:04000000C44DF03FBC
:04000100C44CBBC46C
:04000200C44B8A451C
:04000300C44A5BB6DA
:04000400C449300EAD
:04000500C4480744A0
:04000600C446E14CBF
:04000700C445BE1D11
:04000800C4449DAFA0
:04000900C4437FF875
:04000A00C44264EE9A
:04000B00C4414C8917
:04000C00C44036BFF7
:04000D00C43F238940
:04000E00C43E12DEFC
:04000F00C43D04B533
:04001000C43BF906EE
:04001100C43AEFC935
:04001200C439E8F70E
:04001300C438E48683
:04001400C437E26F9C
:04001500C436E2AC5F
:04001600C435E534D4
:04001700C434EA0003
:04001800C433F108F4
:04001900C432FA47AC
:04001A00C43205B433
:04001B00C431134891
:04001C00C43022FECC
:04001D00C42F34CEEA
:04001E00C42E48B2F2
:04001F00C42D5EA3EB
:04002000C42C769BDB
:04002100C42B9093C9
:04002200C42AAC87B9
:04002300C429CA6EB4
:04002400C428EA44BE
:04002500C4280C02DD
:04002600C4272FA319
:04002700C426552175
:04002800C4257C76F9
:04002900C424A59EA8
:04002A00C423D0918A
:04002B00C422FD4CA2
:04002C00C4222BC8F7
:04002D00C4215C018D
:04002E00C4208DF16C
:04002F00C41FC19396
:04003000C41EF6E311
:04003100C41E2DDAE2
:04003200C41D66760D
:04003300C41CA0B099
:04003400C41BDC8489
:04003500C41B19EEE1
:04003600C41A58E9A7
:04003700C4199970DF
:04003800C418DB7E8F
:04003900C4181F11B7
:04003A00C417642261
:04003B00C416AAAF8E
:04003C00C415F2B243
:04003D00C4153C2882
:04003E00C414870D52
:04003F00C413D35CB7
:04004000C4132111B3
:04004100C412702A4B
:04004200C411C0A184
:04004300C41112745E
:04004400C410659DE2
:04004500C40FBA1B0F
:04004600C40F0FE8EC
:04004700C40E67027A
:04004800C40DBF65BF
:04004900C40D190DBC
:04004A00C40C73F778
:04004B00C40BD01FF3
:04004C00C40B2D8331
:04004D00C40A8C1F36
:04004E00C409EBEF07
:04004F00C4094CF1A3
:04005000C408AF2110
:04005100C408127C51
:04005200C40776FF6A
:04005300C406DCA75C
:04005400C40643712A
:04005500C405AB5AD9
:04005600C405145F6A
:04005700C4047E7DE2
:04005800C403E9B143
:04005900C40355F98E
:04005A00C402C352C7
:04005B00C40231B8F2
:04005C00C401A12A10
:04005D00C40111A425
:04005E00C400832532
:04005F00C3FFEB519F
:04006000C3FED25AAF
:04006100C3FDBB5FC1
:04006200C3FCA65BDA
:04006300C3FB934AFE
:04006400C3FA822732
:04006500C3F972EC7D
:04006600C3F86596E0
:04006700C3F75A1E63
:04006800C3F6508209
:04006900C3F548BBD8
:04006A00C3F442C5D4
:04006B00C3F33E9D00
:04006C00C3F23C3D62
:04006D00C3F13BA2FE
:04006E00C3F03CC6D9
:04006F00C3EF3FA6F6
:04007000C3EE443E59
:04007100C3ED4A8809
:04007200C3EC528207
:04007300C3EB5C2758
:04007400C3EA677301
:04007500C3E9746205
:04007600C3E882F069
:04007700C3E793192F
:04007800C3E6A4DA5D
:04007900C3E5B82FF4
:04007A00C3E4CD14FA
:04007B00C3E3E38573
:04007C00C3E2FB7F61
:04007D00C3E214FEC8
:04007E00C3E12FFEAD
:04007F00C3E04C7C12
:04008000C3DF6A75FB
:04008100C3DE89E56C
:04008200C3DDAAC868
:04008300C3DCCD1CF1
:04008400C3DBF0DD0D
:04008500C3DB1608BB
:04008600C3DA3C9904
:04008700C3D9648DE8
:04008800C3D88DE26A
:04008900C3D7B8938E
:04008A00C3D6E49F56
:04008B00C3D61201C5
:04008C00C3D540B7E1
:04008D00C3D470BEAA
:04008E00C3D3A21323
:04008F00C3D2D4B351
:04009000C3D2089A35
:04009100C3D13DC7D3
:04009200C3D074372C
:04009300C3CFABE646
:04009400C3CEE4D122
:04009500C3CE1EF7C1
:04009600C3CD5A5428
:04009700C3CC96E65A
:04009800C3CBD4AA58
:04009900C3CB139D25
:04009A00C3CA53BEC4
:04009B00C3C9950838
:04009C00C3C8D77A84
:04009D00C3C81B12A7
:04009E00C3C75FCCA9
:04009F00C3C6A5A788
:0400A000C3C5EC9F49
:0400A100C3C534B3EC
:0400A200C3C47DE175
:0400A300C3C3C825E6
:0400A400C3C3137D42
:0400A500C3C25FE88B
:0400A600C3C1AD63C2
:0400A700C3C0FBEBEC
:0400A800C3C04B7F07
:0400A900C3BF9C1C19
:0400AA00C3BEEDC024
:0400AB00C3BE406927
:0400AC00C3BD941527
:0400AD00C3BCE8C127
:0400AE00C3BC3E6D24
:0400AF00C3BB951426
:0400B000C3BAECB72C
:0400B100C3BA455138
:0400B200C3B99EE24E
:0400B300C3B8F9686D
:0400B400C3B854E099
:0400B500C3B7B149D3
:0400B600C3B70EA01E
:0400B700C3B66CE47C
:0400B800C3B5CC14EC
:0400B900C3B52C2C73
:0400BA00C3B48D2B13
:0400BB00C3B3EF10CC
:0400BC00C3B351D8A1
:0400BD00C3B2B58293
:0400BE00C3B21A0CA3
:0400BF00C3B17F74D6
:0400C000C3B0E5B92B
:0400C100C3B04CD9A3
:0400C200C3AFB4D143
:0400C300C3AF1DA208
:0400C400C3AE8747F9
:0400C500C3ADF1C115
:0400C600C3AD5D0E5B
:0400C700C3ACC92BD2
:0400C800C3AC361877
:0400C900C3ABA3D250
:0400CA00C3AB125959
:0400CB00C3AA81AA99
:0400CC00C3A9F1C310
:0400CD00C3A962A5BC
:0400CE00C3A8D44CA3
:0400CF00C3A846B8C4
:0400D000C3A7B9E722
:0400D100C3A72DD8BC
:0400D200C3A6A28897
:0400D300C3A617F7B2
:0400D400C3A58E240E
:0400D500C3A5050CAE
:0400D600C3A47CAE95
:0400D700C3A3F50AC0
:0400D800C3A36E1E32
:0400D900C3A2E7E7F0
:0400DA00C3A26266F5
:0400DB00C3A1DD9848
:0400DC00C3A1597DE6
:0400DD00C3A0D612D4
:0400DE00C3A0535711
:0400DF00C39FD14B9F
:0400E000C39F4FEC7F
:0400E100C39ECF39B2
:0400E200C39E4F303A
:0400E300C39DCFD119
:0400E400C39D511A4D
:0400E500C39CD30ADB
:0400E600C39C55A0C2
:0400E700C39BD8DB04
:0400E800C39B5CB8A2
:0400E900C39AE1389D
:0400EA00C39A665AF5
:0400EB00C399EC1BAE
:0400EC00C399727BC7
:0400ED00C398F97843
:0400EE00C39881131F
:0400EF00C398094861
:0400F000C397921808
:0400F100C3971B8214
:0400F200C396A58389
:0400F300C396301C64
:0400F400C395BB4AAB
:0400F500C395470E5A
:0400F600C394D36676
:0400F700C3946051FD
:0400F800C393EDCDF4
:0400F900C3937BDB57
:0400FA00C3930A7929
:0400FB00C39299A56E
:0400FC00C392296022
:0400FD00C391B9A74B
:0400FE00C3914A7BE5
:0400FF00C390DBD9F6
:04010000C3903DD794
:04010100C38F63BA8B
:04010200C38E8BB865
:04010300C38DB5CB28
:04010400C38CE1EBDC
:04010500C38C101285
:04010600C38B403730
:04010700C38A7255E0
:04010800C389A6659C
:04010900C388DC606B
:04010A00C388144151
:04010B00C3874DFF5A
:04010C00C386899687
:04010D00C385C6FFE1
:04010E00C38506346B
:04010F00C38447302E
:04011000C38389EC30
:04011100C382CE6275
:04011200C382148D03
:04011300C3815C68E0
:04011400C380A5ED12
:04011500C37FE22D95
:04011600C37E7BBF6A
:04011700C37D188507
:04011800C37BB87578
:04011900C37A5B85C5
:04011A00C37901ABF9
:04011B00C377AADD1F
:04011C00C37657133C
:04011D00C37506415F
:04011E00C373B8608F
:04011F00C3726D65D5
:04012000C37125483A
:04012100C36FE000C8
:04012200C36E9D8586
:04012300C36D5DCD7E
:04012400C36C20D0B8
:04012500C36AE6863D
:04012600C369AEE714
:04012700C36879EB45
:04012800C3674789D9
:04012900C36617BAD8
:04012A00C364EA764A
:04012B00C363BFB536
:04012C00C3629771A2
:04012D00C36171A198
:04012E00C3604E3E1E
:04012F00C35F2D413C
:04013000C35E0EA4F8
:04013100C35CF25F5A
:04013200C35BD86B68
:04013300C35AC0C229
:04013400C359AB5CA4
:04013500C3589834DF
:04013600C3578743E1
:04013700C3567883B0
:04013800C3556BEC54
:04013900C354617AD0
:04013A00C35359262C
:04013B00C35252E970
:04013C00C3514EBF9E
:04013D00C3504CA1BE
:04013E00C34F4C8AD5
:04013F00C34E4E73EA
:04014000C34D525702
:04014100C34C583122
:04014200C34B5FFC50
:04014300C34A69B191
:04014400C349754CEA
:04014500C34882C762
:04014600C347921DFC
:04014700C346A349BF
:04014800C345B647AE
:04014900C344CB11CF
:04014A00C343E1A228
:04014B00C342F9F5BD
:04014C00C34214078F
:04014D00C3412FD1AA
:04014E00C3404D500D
:04014F00C33F6C7FBF
:04015000C33E8D59C4
:04015100C33DAFDB20
:04015200C33CD3FFD8
:04015300C33BF9C1F0
:04015400C33B211D6B
:04015500C33A4A104F
:04015600C3397493A2
:04015700C338A0A564
:04015800C337CE409B
:04015900C336FD614B
:04015A00C3362E0476
:04015B00C335602424
:04015C00C33493BE57
:04015D00C333C8CF11
:04015E00C332FF5257
:04015F00C33237432D
:04016000C33170A097
:04016100C330AB6498
:04016200C32FE78D33
:04016300C32F25156C
:04016400C32E63FB48
:04016500C32DA43BC7
:04016600C32CE5D0F1
:04016700C32C28B9C4
:04016800C32B6CF148
:04016900C32AB2767D
:04016A00C329F94369
:04016B00C32941570C
:04016C00C3288AAE6C
:04016D00C327D5448B
:04016E00C32721176B
:04016F00C3266E2411
:04017000C325BC6780
:04017100C3250BDFB8
:04017200C3245C87BF
:04017300C323AE5D97
:04017400C323015E42
:04017500C3225588C4
:04017600C321AAD720
:04017700C321014A55
:04017800C32058DC6C
:04017900C31FB18C63
:04017A00C31F0B573D
:04017B00C31E663AFF
:04017C00C31DC232AB
:04017D00C31D1F3E41
:04017E00C31C7D5BC6
:04017F00C31BDC853D
:04018000C31B3CBBA6
:04018100C31A9DFB05
:04018200C31A00415B
:04018300C319638CAD
:04018400C318C7D9FC
:04018500C3182D2648
:04018600C317937098
:04018700C316FAB5EC
:04018800C31662F444
:04018900C315CC29A5
:04018A00C315365310
:04018B00C314A16F89
:04018C00C3140D7C0F
:04018D00C3137A77A7
:04018E00C312E85E52
:04018F00C312572F11
:04019000C311C6E8E9
:04019100C3113787D8
:04019200C310A909E4
:04019300C3101B6E0C
:04019400C30F8EB354
:04019500C30F02D6BC
:04019600C30E77D548
:04019700C30DEDAFF8
:04019800C30D6461CE
:04019900C30CDBE9CF
:04019A00C30C5447F7
:04019B00C30BCD774E
:04019C00C30B4778D2
:04019D00C30AC24986
:04019E00C30A3DE86B
:04019F00C309BA5284
:0401A000C3093786D2
:0401A100C308B58357
:0401A200C308344713
:0401A300C307B3D00B
:0401A400C307341D3C
:0401A500C306B52BAD
:0401A600C30636FA5C
:0401A700C305B9874C
:0401A800C3053CD27D
:0401A900C304C0D8F3
:0401AA00C3044599AC
:0401AB00C303CB11AE
:0401AC00C3035141F7
:0401AD00C302D8268B
:0401AE00C3025FC069
:0401AF00C301E80C94
:0401B000C30171090D
:0401B100C300FAB6D7
:0401B200C3008511F0
:0401B300C30010195C
:0401B400C2FF3798B7
:0401B500C2FE5054E2
:0401B600C2FD6A61BB
:0401B700C2FC85BD44
:0401B800C2FBA2657F
:0401B900C2FAC05670
:0401BA00C2F9DF8F18
:0401BB00C2F9000C79
:0401BC00C2F821CB99
:0401BD00C2F744C978
:0401BE00C2F6690418
:0401BF00C2F58E7A7D
:0401C000C2F4B527A9
:0401C100C2F3DD0A9E
:0401C200C2F306205E
:0401C300C2F23066EE
:0401C400C2F15BDB4E
:0401C500C2F0887C80
:0401C600C2EFB64787
:0401C700C2EEE53966
:0401C800C2EE15501E
:0401C900C2ED468AB3
:0401CA00C2EC78E526
:0401CB00C2EBAC5E79
:0401CC00C2EAE0F4AF
:0401CD00C2EA16A4C8
:0401CE00C2E94D6CC9
:0401CF00C2E88549B4
:0401D000C2E7BE3B89
:0401D100C2E6F83E4C
:0401D200C2E63351FD
:0401D300C2E56F72A0
:0401D400C2E4AC9E37
:0401D500C2E3EAD4C3
:0401D600C2E32A1145
:0401D700C2E26A55C1
:0401D800C2E1AB9C39
:0401D900C2E0EDE5AE
:0401DA00C2E0312D21
:0401DB00C2DF757496
:0401DC00C2DEBAB80D
:0401DD00C2DE00F589
:0401DE00C2DD482B0B
:0401DF00C2DC905896
:0401E000C2DBD97A2B
:0401E100C2DB238FCB
:0401E200C2DA6E957A
:0401E300C2D9BA8B38
:0401E400C2D9076F06
:0401E500C2D8553FE8
:0401E600C2D7A3F9E0
:0401E700C2D6F39DEC
:0401E800C2D6442710
:0401E900C2D595974F
:0401EA00C2D4E7EBA9
:0401EB00C2D43B211E
:0401EC00C2D38F38B3
:0401ED00C2D2E42D69
:0401EE00C2D23A013E
:0401EF00C2D190B039
:0401F000C2D0E83958
:0401F100C2D0409B9D
:0401F200C2CF99D50A
:0401F300C2CEF3E4A1
:0401F400C2CE4EC861
:0401F500C2CDAA7E4F
:0401F600C2CD070669
:0401F700C2CC645DB5
:0401F800C2CBC28430
:0401F900C2CB2177DD
:0401FA00C2CA8135BF
:0401FB00C2C9E1BED6
:0401FC00C2C9431021
:0401FD00C2C8A529A6
:0401FE00C2C8080863
:0401FF00C2C76BAC5C
:04020000C2C68C5B8B
:04020100C2C5581604
:04020200C2C426CC80
:04020300C2C2F87407
:04020400C2C1CD03A3
:04020500C2C0A46E61
:04020600C2BF7EAD48
:04020700C2BE5BB662
:04020800C2BD3B7FB9
:04020900C2BC1DFE58
:04020A00C2BB032C44
:04020B00C2B9EAFE8C
:04020C00C2B8D56D32
:04020D00C2B7C26F43
:04020E00C2B6B1FCC7
:04020F00C2B5A40BC5
:04021000C2B4989547
:04021100C2B38F9055
:04021200C2B288F6F6
:04021300C2B184BE32
:04021400C2B082E111
:04021500C2AF83569B
:04021600C2AE8618D6
:04021700C2AD8B1DCC
:04021800C2AC925F83
:04021900C2AB9BD801
:04021A00C2AAA77F4E
:04021B00C2A9B54D72
:04021C00C2A8C53D72
:04021D00C2A7D74855
:04021E00C2A6EB6623
:04021F00C2A60192E0
:04022000C2A519C595
:04022100C2A433F947
:04022200C2A35027FC
:04022300C2A26E4ABB
:04022400C2A18E5B8A
:04022500C2A0B0556E
:04022600C29FD4326D
:04022700C29EF9EC8E
:04022800C29E217ED3
:04022900C29D4AE147
:04022A00C29C7611EB
:04022B00C29BA309C6
:04022C00C29AD1C2DF
:04022D00C29A023738
:04022E00C2993464D9
:04022F00C2986844C5
:04023000C2979DD103
:04023100C296D50795
:04023200C2960DE083
:04023300C2954858D0
:04023400C294846A82
:04023500C293C2129C
:04023600C293014B23
:04023700C29242101D
:04023800C291845E8D
:04023900C290C82F78
:04023A00C2900D7FE2
:04023B00C28F544BCF
:04023C00C28E9C8D45
:04023D00C28DE64345
:04023E00C28D3167D5
:04023F00C28C7DF6FA
:04024000C28BCBEBB7
:04024100C28B1B440D
:04024200C28A6BFB06
:04024300C289BE0EA0
:04024400C2891178E2
:04024500C2886636CF
:04024600C287BC446B
:04024700C287139FB8
:04024800C2866C42BC
:04024900C285C62C78
:04024A00C2852157F1
:04024B00C2847DC12B
:04024C00C283DB6628
:04024D00C2833A44EA
:04024E00C2829A5678
:04024F00C281FB99D4
:04025000C2815E0CFD
:04025100C280C1A9FD
:04025200C280266ED2
:04025300C27F18B29C
:04025400C27DE6CBB6
:04025500C27CB7238D
:04025600C27B89B32B
:04025700C27A5E7594
:04025800C2793565CD
:04025900C2780E7BDE
:04025A00C276E9B4CB
:04025B00C275C70899
:04025C00C274A6744E
:04025D00C27387F1F0
:04025E00C2726B7A83
:04025F00C27151090E
:04026000C270389B95
:04026100C26F22291D
:04026200C26E0DAFAC
:04026300C26CFB2846
:04026400C26BEA8FF0
:04026500C26ADBDEB0
:04026600C269CF1288
:04026700C268C4267F
:04026800C267BB149A
:04026900C266B3D9DD
:04026A00C265AE6F4C
:04026B00C264AAD2ED
:04026C00C263A8FFC2
:04026D00C262A8F0D1
:04026E00C261AAA11E
:04026F00C260AE0EAD
:04027000C25FB33284
:04027100C25EBA0AA5
:04027200C25DC29215
:04027300C25CCCC5D8
:04027400C25BD89FF2
:04027500C25AE61D66
:04027600C259F53A3A
:04027700C25905F271
:04027800C25818430D
:04027900C2572C2715
:04027A00C256419C8B
:04027B00C255589D73
:04027C00C2547127D0
:04027D00C2538B37A6
:04027E00C252A6C8FA
:04027F00C251C3D8CD
:04028000C250E26224
:04028100C250026401
:04028200C24F23D96B
:04028300C24E46BF62
:04028400C24D6B13E9
:04028500C24C90D007
:04028600C24BB7F5BB
:04028700C24AE07C0B
:04028800C24A0A64F8
:04028900C24935AA87
:04028A00C2486249BB
:04028B00C247904096
:04028C00C246BF8B1C
:04028D00C245F02650
:04028E00C245221033
:04028F00C2445545CB
:04029000C24389C319
:04029100C242BF8620
:04029200C241F68BE4
:04029300C2412ED066
:04029400C2406853A9
:04029500C23FA30FB2
:04029600C23EDF0481
:04029700C23E1C2D1A
:04029800C23D5A8980
:04029900C23C9A14B5
:04029A00C23BDACCBD
:04029B00C23B1CAF97
:04029C00C23A5FBA49
:04029D00C239A3EAD5
:04029E00C238E93E3B
:04029F00C2382FB280
:0402A000C2377744A6
:0402A100C236BFF2B0
:0402A200C23609BA9D
:0402A300C235549874
:0402A400C234A08B35
:0402A500C233ED91E2
:0402A600C2333BA67E
:0402A700C2328ACA0B
:0402A800C231DAFA8B
:0402A900C2312C3200
:0402AA00C2307E736D
:0402AB00C22FD1B8D5
:0402AC00C22F260037
:0402AD00C22E7B4A98
:0402AE00C22DD192FA
:0402AF00C22D28D75D
:0402B000C22C8117C4
:0402B100C22BDA4F33
:0402B200C22B347EA9
:0402B300C22A8FA22A
:0402B400C229EBB9B7
:0402B500C22948C052
:0402B600C228A6B7FD
:0402B700C228059ABA
:0402B800C22765688C
:0402B900C226C62073
:0402BA00C22627BF72
:0402BB00C2258A448A
:0402BC00C224EDADBE
:0402BD00C22451F70F
:0402BE00C223B7227E
:0402BF00C2231D2C0D
:0402C000C2228412C0
:0402C100C221EBD398
:0402C200C221546D94
:0402C300C220BDDFB9
:0402C400C220282804
:0402C500C21F93447D
:0402C600C21EFF3322
:0402C700C21E6BF3F5
:0402C800C21DD983F7
:0402C900C21D47E12A
:0402CA00C21CB70B90
:0402CB00C21C26FF2C
:0402CC00C21B97BDFD
:0402CD00C21B094304
:0402CE00C21A7B8F46
:0402CF00C219EE9FC3
:0402D000C21962737A
:0402D100C218D7096F
:0402D200C2184C5FA3
:0402D300C217C27319
:0402D400C2173946CE
:0402D500C216B0D4C9
:0402D600C216291D06
:0402D700C215A21F8B
:0402D800C2151BD957
:0402D900C214964A6B
:0402DA00C214116FCA
:0402DB00C2138D4974
:0402DC00C21309D56B
:0402DD00C2128712B0
:0402DE00C212050043
:0402DF00C211839C29
:0402E000C21102E560
:0402E100C21082DAEB
:0402E200C210037BC8
:0402E300C20F84C5FD
:0402E400C20F06B788
:0402E500C20E89516B
:0402E600C20E0C90A8
:0402E700C20D90753F
:0402E800C20D14FD32
:0402E900C20C9A2782
:0402EA00C20C1FF330
:0402EB00C20BA65F3D
:0402EC00C20B2D6AAA
:0402ED00C20AB5127A
:0402EE00C20A3D58AB
:0402EF00C209C63941
:0402F000C2094FB53B
:0402F100C208D9CB9B
:0402F200C208647862
:0402F300C207EFBE91
:0402F400C2077B9929
:0402F500C207080A2A
:0402F600C206950E99
:0402F700C20622A772
:0402F800C205B0D1BA
:0402F900C2053F8C6F
:0402FA00C204CED894
:0402FB00C2045EB229
:0402FC00C203EF1B2F
:0402FD00C2038011A7
:0402FE00C203119393
:0402FF00C202A3A1F3
:04030000C202069B94
:04030100C2012DDC2C
:04030200C200573BA3
:04030300C1FF055CD5
:04030400C1FD605F78
:04030500C1FBBF7009
:04030600C1FA228294
:04030700C1F889852B
:04030800C1F6F46FD7
:04030900C1F56330A7
:04030A00C1F3D5BDA9
:04030B00C1F24C08E7
:04030C00C1F0C60571
:04030D00C1EF43A851
:04030E00C1EDC4E594
:04030F00C1EC49B044
:04031000C1EAD1FD70
:04031100C1E95DC120
:04031200C1E7ECF162
:04031300C1E67F8040
:04031400C1E51566C4
:04031500C1E3AE96FC
:04031600C1E24B06EF
:04031700C1E0EAACAB
:04031800C1DF8D7D37
:04031900C1DE33709E
:04031A00C1DCDC7BEB
:04031B00C1DB889327
:04031C00C1DA37AF5C
:04031D00C1D8E9C793
:04031E00C1D79ECFD6
:04031F00C1D656C02D
:04032000C1D51190A2
:04032100C1D3CF373E
:04032200C1D28FAB0A
:04032300C1D152E40E
:04032400C1D018DA52
:04032500C1CEE184E0
:04032600C1CDACDABF
:04032700C1CC7AD5F6
:04032800C1CB4B6B8F
:04032900C1CA1E9592
:04032A00C1C8F44C06
:04032B00C1C7CC87F3
:04032C00C1C6A7405F
:04032D00C1C5846F53
:04032E00C1C4640CD6
:04032F00C1C34611EF
:04033000C1C22A77A5
:04033100C1C1113500
:04033200C1BFFA4706
:04033300C1BEE5A4BE
:04033400C1BDD3472D
:04033500C1BCC3285C
:04033600C1BBB54151
:04033700C1BAA98C12
:04033800C1B9A003A4
:04033900C1B8989F10
:04033A00C1B7935A5A
:04033B00C1B6902F88
:04033C00C1B58F17A1
:04033D00C1B4900CAB
:04033E00C1B39309AB
:04033F00C1B29808A7
:04034000C1B19F03A5
:04034100C1B0A7F6AA
:04034200C1AFB2D9BC
:04034300C1AEBFA9DF
:04034400C1ADCE6019
:04034500C1ACDEF871
:04034600C1ABF16CEA
:04034700C1AB05B889
:04034800C1AA1BD655
:04034900C1A933C251
:04034A00C1A84D7683
:04034B00C1A768EDF1
:04034C00C1A686249C
:04034D00C1A5A5148D
:04034E00C1A4C5BBC6
:04034F00C1A3E8124C
:04035000C1A30C1623
:04035100C1A231C351
:04035200C1A15913D9
:04035300C1A08202C1
:04035400C19FAC8C0D
:04035500C19ED8AEBF
:04035600C19E0662DC
:04035700C19D35A669
:04035800C19C66736B
:04035900C19B98C8E4
:04035A00C19ACC9FD9
:04035B00C19A01F54D
:04035C00C19938C645
:04035D00C198710FC3
:04035E00C197AACBCE
:04035F00C196E5F668
:04036000C196228E92
:04036100C195608F53
:04036200C1949FF4AF
:04036300C193E0BBA7
:04036400C19322E03F
:04036500C19266607B
:04036600C191AB375F
:04036700C190F162EE
:04036800C19038DD2B
:04036900C18F81A619
:04036A00C18ECBB9BC
:04036B00C18E171315
:04036C00C18D63B12B
:04036D00C18CB18FFF
:04036E00C18C00AC92
:04036F00C18B5103EA
:04037000C18AA2910B
:04037100C189F555F4
:04037200C189494AAA
:04037300C1889E6E31
:04037400C187F4BE8B
:04037500C1874C38B8
:04037600C186A4D8C0
:04037700C185FE9CA2
:04037800C185598161
:04037900C184B58501
:04037A00C18412A484
:04037B00C18370DCEE
:04037C00C182D02B3F
:04037D00C182308E7B
:04037E00C1819203A4
:04037F00C180F486BF
:04038000C1805816CA
:04038100C17F79615E
:04038200C17E44A54F
:04038300C17D11F433
:04038400C17BE14810
:04038500C17AB29EE9
:04038600C17985F1C3
:04038700C1785B3BA3
:04038800C177327A8D
:04038900C1760BA886
:04038A00C174E6C094
:04038B00C173C3BFB8
:04038C00C172A2A1F7
:04038D00C171836156
:04038E00C17065FADB
:04038F00C16F4A6987
:04039000C16E30AA60
:04039100C16D18B86A
:04039200C16C028FA9
:04039300C16AEE2D20
:04039400C169DB8CD4
:04039500C168CAA8C9
:04039600C167BB7F01
:04039700C166AE0C81
:04039800C165A24B4E
:04039900C16498396A
:04039A00C1638FD2DA
:04039B00C16289139F
:04039C00C16183F7C1
:04039D00C160807C3F
:04039E00C15F7E9D20
:04039F00C15E7E5766
:0403A000C15D7FA814
:0403A100C15C828B2E
:0403A200C15B86FDB8
:0403A300C15A8CFBB4
:0403A400C159948126
:0403A500C1589D8D11
:0403A600C157A81A79
:0403A700C156B42760
:0403A800C155C1AFCB
:0403A900C154D0B0BB
:0403AA00C153E12634
:0403AB00C152F30F39
:0403AC00C1520667CD
:0403AD00C1511B2BF4
:0403AE00C1503159B0
:0403AF00C14F48ED05
:0403B000C14E61E5F4
:0403B100C14D7C3E80
:0403B200C14C97F5AE
:0403B300C14BB5077E
:0403B400C14AD371F6
:0403B500C149F33116
:0403B600C1491444E1
:0403B700C14836A65D
:0403B800C1475A5788
:0403B900C1467F5268
:0403BA00C145A595FF
:0403BB00C144CD1F4D
:0403BC00C143F5EB59
:0403BD00C1431FF821
:0403BE00C1424B42AB
:0403BF00C14177C9F8
:0403C000C140A5880B
:0403C100C13FD47FE5
:0403C200C13F04A98A
:0403C300C13E3605FC
:0403C400C13D68913E
:0403C500C13C9C4A51
:0403C600C13BD12E38
:0403C700C13B073BF4
:0403C800C13A3E6E8A
:0403C900C13976C4FC
:0403CA00C138B03D49
:0403CB00C137EAD577
:0403CC00C137268B84
:0403CD00C136635C76
:0403CE00C135A1464E
:0403CF00C134E0470E
:0403D000C134205DB7
:0403D100C13361864D
:0403D200C132A3BFD2
:0403D300C131E70845
:0403D400C1312B5DAB
:0403D500C13070BC07
:0403D600C12FB72557
:0403D700C12EFE94A1
:0403D800C12E4708E3
:0403D900C12D907E24
:0403DA00C12CDAF662
:0403DB00C12C266D9E
:0403DC00C12B72E1DE
:0403DD00C12AC05120
:0403DE00C12A0EB969
:0403DF00C1295E1AB8
:0403E000C128AE7111
:0403E100C127FFBB76
:0403E200C12751F8E6
:0403E300C126A52664
:0403E400C125F942F4
:0403E500C1254E4C94
:0403E600C124A44149
:0403E700C123FB1F14
:0403E800C12352E6F5
:0403E900C122AB93EF
:0403EA00C122052502
:0403EB00C1215F9A33
:0403EC00C120BAF082
:0403ED00C1201727ED
:0403EE00C11F743C7B
:0403EF00C11ED22D2C
:0403F000C11E30FA00
:0403F100C11D90A0FA
:0403F200C11CF11E1B
:0403F300C11C527463
:0403F400C11BB49ED7
:0403F500C11B179C75
:0403F600C11A7B6B42
:0403F700C119E00C3C
:0403F800C119457C66
:0403F900C118ABBAC2
:0403FA00C11812C450
:0403FB00C1177A9913
:0403FC00C116E3370C
:0403FD00C1164C9E3B
:0403FE00C115B6CCA3
:0403FF00C11521BF44
:04040000C1144CF0E7
:04040100C113274EAE
:04040200C11204AA75
:04040300C110E4FA46
:04040400C10FC83428
:04040500C10EAE4E28
:04040600C10D973D50
:04040700C10C82F9A9
:04040800C10B71783B
:04040900C10A62B012
:04040A00C109569836
:04040B00C1084D28AF
:04040C00C107465688
:04040D00C106421AC8
:04040E00C105406B79
:04040F00C1044141A2
:04041000C10344934D
:04041100C1024A5A80
:04041200C101528D45
:04041300C1005D24A3
:04041400C0FED42F23
:04041500C0FCF2C075
:04041600C0FB15EC26
:04041700C0F93DA447
:04041800C0F769D9E7
:04041900C0F59A7E12
:04041A00C0F3CF84D8
:04041B00C0F208DD46
:04041C00C0F0467C6A
:04041D00C0EE885352
:04041E00C0ECCE540C
:04041F00C0EB1874A2
:04042000C0E966A425
:04042100C0E7B8D99F
:04042200C0E60F061B
:04042300C0E4691EAA
:04042400C0E2C71754
:04042500C0E128E327
:04042600C0DF8E772E
:04042700C0DDF7C776
:04042800C0DC64C907
:04042900C0DAD572EE
:04042A00C0D949B537
:04042B00C0D7C188ED
:04042C00C0D63CE119
:04042D00C0D4BBB6C6
:04042E00C0D33DFA00
:04042F00C0D1C3A6CF
:04043000C0D04CAE3E
:04043100C0CED90858
:04043200C0CD68AB26
:04043300C0CBFB8EB1
:04043400C0CA91A603
:04043500C0C92AEA26
:04043600C0C7C75222
:04043700C0C666D302
:04043800C0C50966CC
:04043900C0C3AF018C
:04043A00C0C2579B4A
:04043B00C0C1032D0C
:04043C00C0BFB1ADDF
:04043D00C0BE6313C7
:04043E00C0BD1757CF
:04043F00C0BBCE72FE
:04044000C0BA885A5C
:04044100C0B94508F1
:04044200C0B80475C5
:04044300C0B6C698E1
:04044400C0B58B6A4A
:04044500C0B452E409
:04044600C0B31CFE25
:04044700C0B1E9B1A6
:04044800C0B0B8F692
:04044900C0AF8AC6F0
:04044A00C0AE5F1AC7
:04044B00C0AD35EB20
:04044C00C0AC0F32FF
:04044D00C0AAEAE96E
:04044E00C0A9C9096F
:04044F00C0A8A98B0D
:04045000C0A78C694C
:04045100C0A6719D33
:04045200C0A55921C7
:04045300C0A442EE11
:04045400C0A32EFE15
:04045500C0A21D4BD9
:04045600C0A10DD064
:04045700C0A00086BB
:04045800C09EF568E5
:04045900C09DEC70E6
:04045A00C09CE599C4
:04045B00C09BE0DC86
:04045C00C09ADE3430
:04045D00C099DD9DC8
:04045E00C098DF1053
:04045F00C097E289D7
:04046000C096E80159
:04046100C095EF75DE
:04046200C094F8DF6B
:04046300C094043904
:04046400C0931180B0
:04046500C09220AD74
:04046600C09131BD53
:04046700C09044AB52
:04046800C08F597177
:04046900C08E700BC6
:04046A00C08D887544
:04046B00C08CA2AAF5
:04046C00C08BBEA6DD
:04046D00C08ADC6302
:04046E00C089FBDF67
:04046F00C0891D1310
:04047000C0883FFD04
:04047100C087649844
:04047200C0868AE0D6
:04047300C085B2D1BD
:04047400C084DC66FE
:04047500C084079B9D
:04047600C083346E9D
:04047700C08262D904
:04047800C08192D9D4
:04047900C080C46A11
:04047A00C07FEF113F
:04047B00C07E586087
:04047C00C07CC4BCC0
:04047D00C07B341BF1
:04047E00C079A67823
:04047F00C0781BCB5B
:04048000C076940DA1
:04048100C0750F38FB
:04048200C0738D4373
:04048300C0720E280D
:04048400C07091E2D1
:04048500C06F1868C4
:04048600C06DA1B5EF
:04048700C06C2DC157
:04048800C06ABC8703
:04048900C0694E00F8
:04048A00C067E2273E
:04048B00C06678F4DB
:04048C00C0651261D4
:04048D00C063AE6931
:04048E00C0624D05F6
:04048F00C060EE302B
:04049000C05F91E4D4
:04049100C05E381AF7
:04049200C05CE0CE9C
:04049300C05B8BF9C6
:04049400C05A39967B
:04049500C058E9A0C2
:04049600C0579C109F
:04049700C05650E219
:04049800C055080F34
:04049900C053C194F7
:04049A00C0527D6A65
:04049B00C0513B8C85
:04049C00C04FFBF65C
:04049D00C04EBEA1EE
:04049E00C04D838A40
:04049F00C04C4AAB58
:0404A000C04B13FF3B
:0404A100C049DF81EE
:0404A200C048AD2D74
:0404A300C0477CFED4
:0404A400C0464EEF11
:0404A500C04522FB31
:0404A600C043F91E38
:0404A700C042D1532B
:0404A800C041AB960E
:0404A900C04087E2E6
:0404AA00C03F6633B6
:0404AB00C03E468485
:0404AC00C03D28D156
:0404AD00C03C0D172B
:0404AE00C03AF3500D
:0404AF00C039DB78FD
:0404B000C038C58B00
:0404B100C037B18619
:0404B200C0369F644D
:0404B300C0358F21A0
:0404B400C03480B917
:0404B500C0337428B4
:0404B600C032696A7D
:0404B700C031607C74
:0404B800C03059599E
:0404B900C02F53FEFF
:0404BA00C02E506898
:0404BB00C02D4E9171
:0404BC00C02C4E778B
:0404BD00C02B5016EA
:0404BE00C02A536B92
:0404BF00C029587187
:0404C000C0285F26CB
:0404C100C027678663
:0404C200C026718D52
:0404C300C0257D389B
:0404C400C0248A8442
:0404C500C023996D4A
:0404C600C022A9F0B7
:0404C700C021BC098B
:0404C800C020CFB6CB
:0404C900C01FE4F379
:0404CA00C01EFBBD98
:0404CB00C01E14112A
:0404CC00C01D2DEC36
:0404CD00C01C494ABC
:0404CE00C01B6629C0
:0404CF00C01A848546
:0404D000C019A45C4F
:0404D100C018C5AAE0
:0404D200C017E86CFB
:0404D300C0170CA1A1
:0404D400C0163244D8
:0404D500C0155953A2
:0404D600C01481CB02
:0404D700C013ABA9FA
:0404D800C012D6EB8D
:0404D900C012038DBD
:0404DA00C011318D8F
:0404DB00C01060E904
:0404DC00C00F919D1F
:0404DD00C00EC3A7E3
:0404DE00C00DF70452
:0404DF00C00D2BB26F
:0404E000C00C61AE3D
:0404E100C00B98F5BF
:0404E200C00AD186F5
:0404E300C00A0B5CE4
:0404E400C00946778E
:0404E500C00882D4F5
:0404E600C007C06F1C
:0404E700C006FF4705
:0404E800C0063F59B2
:0404E900C00580A426
:0404EA00C004C32364
:0404EB00C00406D66D
:0404EC00C0034BBA44
:0404ED00C00291CCEC
:0404EE00C001D90B65
:0404EF00C0012174B3
:0404F000C0006B04D9
:0404F100BFFF6B7668
:0404F200BFFE03291D
:0404F300BFFC9D1F8E
:0404F400BFFB3953BE
:0404F500BFF9D7C2B2
:0404F600BFF878666D
:0404F700BFF71B3CF4
:0404F800BFF5C03F4D
:0404F900BFF4676C79
:0404FA00BFF310BE7E
:0404FB00BFF1BC3160
:0404FC00BFF069C123
:0404FD00BFEF196BC9
:0404FE00BFEDCB2A59
:0404FF00BFEC7EFBD5
:04050000BFEAA55554
:04050100BFE818EE49
:04050200BFE5948A33
:04050300BFE3180C2E
:04050400BFE0A3555C
:04050500BFDE3649D6
:04050600BFDBD0CDBA
:04050700BFD972C422
:04050800BFD71C1429
:04050900BFD4CCA2ED
:04050A00BFD2845484
:04050B00BFD043100A
:04050C00BFCE08BC9A
:04050D00BFCBD5414A
:04050E00BFC9A88435
:04050F00BFC7826F71
:04051000BFC562EA17
:04051100BFC349DD3E
:04051200BFC13731FD
:04051300BFBF2AD16B
:04051400BFBD24A59E
:04051500BFBB2498AC
:04051600BFB92A95AA
:04051700BFB73687AD
:04051800BFB54858CB
:04051900BFB35FF518
:04051A00BFB17D49A7
:04051B00BFAFA0408E
:04051C00BFADC8C8DF
:04051D00BFABF6CCAE
:04051E00BFAA2A3B0B
:04051F00BFA863020C
:04052000BFA6A10EC3
:04052100BFA4E44E41
:04052200BFA32CAF98
:04052300BFA17A21D9
:04052400BF9FCC9217
:04052500BF9E23F260
:04052600BF9C802FC7
:04052700BF9AE13A5C
:04052800BF9947032D
:04052900BF97B17A4D
:04052A00BF96208ECA
:04052B00BF949431B4
:04052C00BF930C5419
:04052D00BF9188E80A
:04052E00BF9009DD94
:04052F00BF8E8F26C6
:04053000BF8D18B5AE
:04053100BF8BA67B5B
:04053200BF8A386BD9
:04053300BF88CE7738
:04053400BF87689184
:04053500BF8606ADCA
:04053600BF84A8BD19
:04053700BF834EB57B
:04053800BF81F888FF
:04053900BF80A629B0
:04053A00BF7EAF1AB7
:04053B00BF7C194E1A
:04053C00BF798AD722
:04053D00BF77039DE4
:04053E00BF7483897A
:04053F00BF720A85F8
:04054000BF6F987A77
:04054100BF6D2D520B
:04054200BF6AC8F7CD
:04054300BF686B53CF
:04054400BF66145228
:04054500BF63C3DFEE
:04054600BF6179E434
:04054700BF5F364F0D
:04054800BF5CF90A91
:04054900BF5AC202D1
:04054A00BF589123E2
:04054B00BF56665BD6
:04054C00BF544196C1
:04054D00BF5222C2B5
:04054E00BF5009CDC4
:04054F00BF4DF6A402
:04055000BF4BE9357F
:04055100BF49E16F4E
:04055200BF47DF417F
:04055300BF45E29925
:04055400BF43EB6650
:04055500BF41F99811
:04055600BF400D1E77
:04055700BF3E25E896
:04055800BF3C43E77A
:04055900BF3A670935
:04055A00BF388F41D6
:04055B00BF36BC7D6E
:04055C00BF34EEB00A
:04055D00BF3325CAB9
:04055E00BF3161BC8C
:04055F00BF2FA2798F
:04056000BF2DE7F1D3
:04056100BF2C321663
:04056200BF2A80DB51
:04056300BF28D431A8
:04056400BF272C0C75
:04056500BF25885CCA
:04056600BF23E917AF
:04056700BF224E2D34
:04056800BF20B79366
:04056900BF1F253B50
:04056A00BF1D971A00
:04056B00BF1C0D2282
:04056C00BF1A8747E4
:04056D00BF19057E2F
:04056E00BF1787BA72
:04056F00BF160DF0B6
:04057000BF14981309
:04057100BF13261975
:04057200BF11B7F707
:04057300BF104DA0C8
:04057400BF0EE70AC5
:04057500BF0D842A08
:04057600BF0C24F69C
:04057700BF0AC9628C
:04057800BF097164E2
:04057900BF081CF2A9
:04057A00BF06CC02EA
:04057B00BF057E89B1
:04057C00BF04347E06
:04057D00BF02EDD7F5
:04057E00BF01AA8986
:04057F00BF006A8CC3
:04058000BEFE5BABB5
:04058100BEFBE8BA1B
:04058200BEF97C3210
:04058300BEF71600A9
:04058400BEF4B612F9
:04058500BEF25C570F
:04058600BEF008BDFE
:04058700BEEDBB32D8
:04058800BEEB73A7AC
:04058900BEE932088D
:04058A00BEE6F6478C
:04058B00BEE4C052B8
:04058C00BEE2901922
:04058D00BEE0658CDB
:04058E00BEDE409BF2
:04058F00BEDC213677
:04059000BEDA074E7A
:04059100BED7F2D30C
:04059200BED5E3B738
:04059300BED3D9EA10
:04059400BED1D55DA2
:04059500BECFD602FD
:04059600BECDDBCB30
:04059700BECBE6A849
:04059800BEC9F68D55
:04059900BEC80B6B62
:04059A00BEC6253480
:04059B00BEC443DBBC
:04059C00BEC2675222
:04059D00BEC08F8DC0
:04059E00BEBEBC7DA4
:04059F00BEBCEE16DA
:0405A000BEBB244C6E
:0405A100BEB95F116F
:0405A200BEB79E59E9
:0405A300BEB5E218E7
:0405A400BEB42A4176
:0405A500BEB276C9A3
:0405A600BEB0C7A379
:0405A700BEAF1CC304
:0405A800BEAD761F4F
:0405A900BEABD3AB67
:0405AA00BEAA355A56
:0405AB00BEA89B2229
:0405AC00BEA704F8EA
:0405AD00BEA572D1A4
:0405AE00BEA3E4A262
:0405AF00BEA25A602E
:0405B000BEA0D40114
:0405B100BE9F517A1E
:0405B200BE9DD2C157
:0405B300BE9C57CBC8
:0405B400BE9AE08E7D
:0405B500BE996D017D
:0405B600BE97FD1AD5
:0405B700BE9690CE8E
:0405B800BE952814B0
:0405B900BE93C2E348
:0405BA00BE9261315B
:0405BB00BE9102F4F7
:0405BC00BE8FA82422
:0405BD00BE8E50B7E7
:0405BE00BE8CFCA54E
:0405BF00BE8BABE460
:0405C000BE8A5E6B26
:0405C100BE891433A8
:0405C200BE87CD31F2
:0405C300BE86895F08
:0405C400BE8548B2F6
:0405C500BE840B24C1
:0405C600BE82D0AB76
:0405C700BE81993F19
:0405C800BE8064DAB3
:0405C900BE7E66E2AA
:0405CA00BE7C09FDED
:0405CB00BE79B2F350
:0405CC00BE7761B6DF
:0405CD00BE751635AC
:0405CE00BE72D063C6
:0405CF00BE70902F3B
:0405D000BE6E558C1A
:0405D100BE6C206B71
:0405D200BE69F0BD51
:0405D300BE67C674C5
:0405D400BE65A182DD
:0405D500BE6381D9A7
:0405D600BE61676B30
:0405D700BE5F522B86
:0405D800BE5D420CB6
:0405D900BE5B36FFD0
:0405DA00BE5930F7DF
:0405DB00BE572FE8F0
:0405DC00BE5533C510
:0405DD00BE533C814C
:0405DE00BE514A10B0
:0405DF00BE4F5C644B
:0405E000BE4D737128
:0405E100BE4B8F2C52
:0405E200BE49AF88D7
:0405E300BE47D479C2
:0405E400BE45FDF41F
:0405E500BE442BECF9
:0405E600BE425E575C
:0405E700BE40952855
:0405E800BE3ED055EE
:0405E900BE3D0FD232
:0405EA00BE3B53942D
:0405EB00BE399B90EA
:0405EC00BE37E7BC73
:0405ED00BE36380CD2
:0405EE00BE348C7615
:0405EF00BE32E4F044
:0405F000BE31416F68
:0405F100BE2FA1E98F
:0405F200BE2E0654BF
:0405F300BE2C6EA507
:0405F400BE2ADAD36E
:0405F500BE294AD4FD
:0405F600BE27BE9EC0
:0405F700BE263627BF
:0405F800BE24B16705
:0405F900BE2330539A
:0405FA00BE21B2E389
:0405FB00BE20390CD9
:0405FC00BE1EC2C796
:0405FD00BE1D5009C6
:0405FE00BE1BE0CA76
:0405FF00BE1A7502A9
:04060000BE1870723E
:04060100BE15ACCEA8
:04060200BE12F669C5
:04060300BE104D03D5
:04060400BE0DB0591E
:04060500BE0B202CDC
:04060600BE089C3D51
:04060700BE06244FB8
:04060800BE03B8274E
:04060900BE01578A4D
:04060A00BDFE047EAF
:04060B00BDF97019AC
:04060C00BDF4F17ACE
:04060D00BDF0883381
:04060E00BDEC33DB31
:04060F00BDE7F40B44
:04061000BDE3C85D21
:04061100BDDFB06E2B
:04061200BDDBABDDC4
:04061300BDD7BA4B4A
:04061400BDD3DB591E
:04061500BDD00EAE98
:04061600BDCC53EE16
:04061700BDC8AAC3ED
:04061800BDC512D674
:04061900BDC18BD301
:04061A00BDBE1567E5
:04061B00BDBAAF4273
:04061C00BDB75914F9
:04061D00BDB4128FC7
:04061E00BDB0DB6729
:04061F00BDADB35268
:04062000BDAA9A07CE
:04062100BDA78F3DA5
:04062200BDA492AE33
:04062300BDA1A415BC
:04062400BD9EC33084
:04062500BD9BEFBBCF
:04062600BD992976DB
:04062700BD967022EA
:04062800BD93C37F3C
:04062900BD9123510B
:04062A00BD8E8F5C96
:04062B00BD8C076516
:04062C00BD898B32C7
:04062D00BD871A8CDF
:04062E00BD84B53A98
:04062F00BD825B0726
:04063000BD800BBDC1
:04063100BD7B8E50AF
:04063200BD771A294D
:04063300BD72BAA337
:04063400BD6E6F59CF
:04063500BD6A37EC77
:04063600BD6613FD8D
:04063700BD62032F6E
:04063800BD5E052876
:04063900BD5A198D00
:04063A00BD56400960
:04063B00BD527844F0
:04063C00BD4EC1EA04
:04063D00BD4B1CAAEB
:04063E00BD478832FA
:04063F00BD4404337F
:04064000BD40905FCA
:04064100BD3D2C6926
:04064200BD39D807DF
:04064300BD3692F03E
:04064400BD335CDA8C
:04064500BD3035800F
:04064600BD2D1C9B0F
:04064700BD2A11E9CE
:04064800BD2715268F
:04064900BD24261195
:04064A00BD21446A20
:04064B00BD1E6FF170
:04064C00BD1BA869C1
:04064D00BD18ED9651
:04064E00BD163F3A5C
:04064F00BD139D1E1C
:04065000BD110706CB
:04065100BD0E7CBBA3
:04065200BD0BFE06D8
:04065300BD098AB1A2
:04065400BD07228636
:04065500BD04C552C9
:04065600BD0272E28D
:04065700BD002B02B5
:04065800BCFBDB0606
:04065900BCF774680E
:04065A00BCF321CB01
:04065B00BCEEE2D23D
:04065C00BCEAB7211C
:04065D00BCE69E60F9
:04065E00BCE298372B
:04065F00BCDEA44F0A
:04066000BCDAC254EA
:04066100BCD6F1F31F
:04066200BCD332DAF9
:04066300BCCF84BACA
:04066400BCCBE743E1
:04066500BCC85A2A89
:04066600BCC4DD2211
:04066700BCC16FE1C2
:04066800BCBE121EE4
:04066900BCBAC392C2
:04066A00BCB783F79F
:04066B00BCB45308C0
:04066C00BCB130826B
:04066D00BCAE1C21E2
:04066E00BCAB15A666
:04066F00BCA81CCF38
:04067000BCA5315F95
:04067100BCA25318BC
:04067200BC9F81BDEB
:04067300BC9CBD145A
:04067400BC9A04E147
:04067500BC9758ECEA
:04067600BC94B8FD7B
:04067700BC9224DC31
:04067800BC8F9C5443
:04067900BC8D1F2FE6
:04067A00BC8AAD3A4F
:04067B00BC884641B0
:04067C00BC85EA113E
:04067D00BC83987B27
:04067E00BC81514D9D
:04067F00BC7E28AE67
:04068000BC79C2D7A8
:04068100BC7570B91B
:04068200BC7131FA1C
:04068300BC6D064103
:04068400BC68ED3829
:04068500BC64E68AE1
:04068600BC60F1E380
:04068700BC5D0EF157
:04068800BC593D64B8
:04068900BC557CEDF3
:04068A00BC51CD3D55
:04068B00BC4E2E092A
:04068C00BC4A9F05C0
:04068D00BC471FEA5D
:04068E00BC43B06D4C
:04068F00BC405048D3
:04069000BC3CFF3738
:04069100BC39BCF3C1
:04069200BC36893BAE
:04069300BC3363CD44
:04069400BC304C67C3
:04069500BC2D42CA6C
:04069600BC2A46B97B
:04069700BC2757F530
:04069800BC247642C6
:04069900BC21A16679
:04069A00BC1ED92683
:04069B00BC1C1D491D
:04069C00BC196D997F
:04069D00BC16C9DCE2
:04069E00BC1431DF78
:04069F00BC11A56B7A
:0406A000BC0F244C1B
:0406A100BC0CAE508F
:0406A200BC0A434506
:0406A300BC07E2F9B5
:0406A400BC058D3BC9
:0406A500BC0341DD74
:0406A600BC0100AFE4
:0406A700BBFD9307FD
:0406A800BBF9385C06
:0406A900BBF4F104A9
:0406AA00BBF0BCA73E
:0406AB00BBEC9AF218
:0406AC00BBE88B8F8D
:0406AD00BBE48E2DEF
:0406AE00BBE0A27B90
:0406AF00BBDCC829BF
:0406B000BBD8FEEACB
:0406B100BBD54671FE
:0406B200BBD19E72A8
:0406B300BBCE06A410
:0406B400BBCA7EBF80
:0406B500BBC7067A3F
:0406B600BBC39D9194
:0406B700BBC043BEC3
:0406B800BBBCF8BE11
:0406B900BBB9BC4EBF
:0406BA00BBB68E2D10
:0406BB00BBB36E1C43
:0406BC00BBB05BDB99
:0406BD00BBAD572C4E
:0406BE00BBAA5FD4A0
:0406BF00BBA77596CA
:0406C000BBA4983807
:0406C100BBA1C78092
:0406C200BB9F0336A1
:0406C300BB9C4B236E
:0406C400BB999F0F30
:0406C500BB96FEC61C
:0406C600BB946A1364
:0406C700BB91E0C241
:0406C800BB8F62A0E2
:0406C900BB8CEF7D7A
:0406CA00BB8A87253B
:0406CB00BB88296A55
:0406CC00BB85D61DF7
:0406CD00BB838D0E50
:0406CE00BB814E118D
:0406CF00BB7E31F0CD
:0406D000BB79DB2FE8
:0406D100BB759789D5
:0406D200BB7166A8EA
:0406D300BB6D48397A
:0406D400BB693BEBD8
:0406D500BB65416B55
:0406D600BB61586C40
:0406D700BB5D80A0E7
:0406D800BB59B9BA97
:0406D900BB56037099
:0406DA00BB525D773B
:0406DB00BB4EC787C4
:0406DC00BB4B41597A
:0406DD00BB47CAA8A5
:0406DE00BB44632D89
:0406DF00BB410AA76A
:0406E000BB3DC0D38B
:0406E100BB3A856F2C
:0406E200BB37583B8F
:0406E300BB3438FAF2
:0406E400BB31276C93
:0406E500BB2E2355B0
:0406E600BB2B2C7B83
:0406E700BB2842A149
:0406E800BB25658F3A
:0406E900BB22950C8F
:0406EA00BB1FD0E181
:0406EB00BB1D18D645
:0406EC00BB1A6CB712
:0406ED00BB17CC4E1D
:0406EE00BB15376899
:0406EF00BB12ADD2BB
:0406F000BB102F5AB2
:0406F100BB0DBBCEB4
:0406F200BB0B5300EB
:0406F300BB08F4BE8E
:0406F400BB06A0DBC6
:0406F500BB045729C2
:0406F600BB02177AB2
:0406F700BAFFC3473C
:0406F800BAFB6AF2ED
:0406F900BAF725A087
:0406FA00BAF2F2FE60
:0406FB00BAEED2B8C9
:0406FC00BAEAC47E14
:0406FD00BAE6C80091
:0406FE00BAE2DCF18F
:0406FF00BADF030358
:04070000BAD998B614
:04070100BAD2460022
:04070200BACB32BD7F
:04070300BAC45CC355
:04070400BABDC1FDBC
:04070500BAB76065BA
:04070600BAB1360846
:04070700BAAB410741
:04070800BAA57F8F80
:04070900BA9FEFDFC5
:04070A00BA9A9047C0
:04070B00BA955F2418
:04070C00BA905AE065
:04070D00BA8B81F72B
:04070E00BA86D2EEE7
:04070F00BA824C5A04
:04071000BA7BD9B522
:04071100BA73663918
:04071200BA6B3BB1D2
:04071300BA6357A1CD
:04071400BA5BB7A76E
:04071500BA54597405
:04071600BA4D3ACCD2
:04071700BA465988FD
:04071800BA3FB3949D
:04071900BA3946EEB5
:04071A00BA3311A538
:04071B00BA2D11D80A
:04071C00BA2745BAF9
:04071D00BA21AB89C9
:04071E00BA1C41962A
:04071F00BA17063FC0
:04072000BA11F7F023
:04072100BA0D1524D4
:04072200BA085C6352
:04072300BA03CC4108
:04072400B9FEC6BB99
:04072500B9F640CD14
:04072600B9EE0428FC
:04072700B9E60E53CE
:04072800B9DE5CE9F1
:04072900B9D6ED9CB4
:04072A00B9CFBE3154
:04072B00B9C8CC81FC
:04072C00B9C21676C2
:04072D00B9BB9A0DAD
:04072E00B9B55556AE
:04072F00B9AF4670A8
:04073000B9A96B8A6E
:04073100B9A3C2E5C1
:04073200B99E4ACF53
:04073300B99901A6C9
:04073400B993E5D5BB
:04073500B98EF5D5AF
:04073600B98A302D1F
:04073700B98593717C
:04073800B9811E4025
:04073900B9799E8963
:04073A00B9714A6ED9
:04073B00B9693DB3A8
:04073C00B96175F139
:04073D00B959F0D7DF
:04073E00B952AC27D9
:04073F00B94BA5B855
:04074000B944DB716C
:04074100B93E4B4F23
:04074200B937F35E72
:04074300B931D1B93E
:04074400B92BE48F5A
:04074500B9262A1D8A
:04074600B920A0AF87
:04074700B91B46A1F3
:04074800B9161A5A6A
:04074900B9111A5375
:04074A00B90C450F92
:04074B00B907992031
:04074C00B9031522B6
:04074D00B8FD6F7F05
:04074E00B8F4FF5AA2
:04074F00B8ECD753D8
:04075000B8E4F50113
:04075100B8DD560EAB
:04075200B8D5F839E5
:04075300B8CED953F0
:04075400B8C7F740EB
:04075500B8C14FF8E0
:04075600B8BAE183C9
:04075700B8B4A9F990
:04075800B8AEA7840C
:04075900B8A8D85E06
:04075A00B8A33ACF37
:04075B00B89DCD2F49
:04075C00B8988DE3D9
:04075D00B8937B5E74
:04075E00B88E94219C
:04075F00B889D6BAC5
:04076000B88541C354
:04076100B880D3E1A8
:04076200B879178DBE
:04076300B870D06139
:04076400B868CFCCD6
:04076500B8611374F0
:04076600B859990FD6
:04076700B8525E6BBB
:04076800B84B6167C2
:04076900B8449FF3FE
:04076A00B83E18136A
:04076B00B837C7DAFA
:04076C00B831AD6E85
:04076D00B82BC702DC
:04076E00B82612D9BE
:04076F00B8208F48D7
:04077000B81B3AAECA
:04077100B816137B28
:04077200B811182A78
:04077300B80C474631
:04077400B8079F64BF
:04077500B8031F2581
:04077600B7FD8A71D0
:04077700B7F520AC06
:04077800B7ECFE8557
:04077900B7E5219728
:04077A00B7DD8794CC
:04077B00B7D62E417E
:04077C00B7CF137769
:04077D00B7C83520A4
:04077E00B7C1913935
:04077F00B7BB25CE11
:04078000B7B4F10019
:04078100B7AEF0FB24
:04078200B7A923FEF2
:04078300B7A388563A
:04078400B79E1C5EA2
:04078500B798DE81C2
:04078600B793CD3424
:04078700B78EE6FD46
:04078800B78A2A6C96
:04078900B785961E7C
:04078A00B78128BD4E
:04078B00B779C1FA7F
:04078C00B7717B3A8C
:04078D00B7697AD0FE
:04078E00B761BE632E
:04078F00B75A43B260
:04079000B753088CC7
:04079100B74C0AD582
:04079200B74548829D
:04079300B73EBF9816
:04079400B7386E30D4
:04079500B7325271B4
:04079600B72C6A937F
:04079700B726B4DBF2
:04079800B7212FA0B6
:04079900B71BD9446D
:04079A00B716B039A5
:04079B00B711B2FEE2
:04079C00B70CE01D99
:04079D00B708362F34
:04079E00B703B3D713
:04079F00B6FEAF8B68
:0407A000B6F6416701
:0407A100B6EE1ACFC7
:0407A200B6E639621C
:0407A300B6DE9AD351
:0407A400B6D73CEB9D
:0407A500B6D01D8528
:0407A600B6C93A8C0A
:0407A700B6C291FF46
:0407A800B6BC21EDCD
:0407A900B6B5E87881
:0407AA00B6AFE3CE35
:0407AB00B6AA122FA9
:0407AC00B6A471EA94
:0407AD00B69F015B97
:0407AE00B699BEED4D
:0407AF00B694A9183B
:0407B000B68FBE61E1
:0407B100B68AFD5BAC
:0407B200B68664A300
:0407B300B681F2E237
:0407B400B67B4D9D26
:0407B500B672FE50CA
:0407B600B66AF572B8
:0407B700B66330AE47
:0407B800B65BADC2BD
:0407B900B6546A7E4A
:0407BA00B64D64C60E
:0407BB00B6469A9113
:0407BC00B64009E456
:0407BD00B639B0D8C1
:0407BE00B6338D942D
:0407BF00B62D9E5164
:0407C000B627E15522
:0407C100B62254F513
:0407C200B61CF795D5
:0407C300B617C7A6F8
:0407C400B612C3A7FF
:0407C500B60DEA245F
:0407C600B60939B384
:0407C700B604B0F8CC
:0407C800B6004EA485
:0407C900B5F822DE7F
:0407CA00B5EFF03F58
:0407CB00B5E8030A80
:0407CC00B5E058F24A
:0407CD00B5D8EFBEEE
:0407CE00B5D1C54894
:0407CF00B5CAD77C54
:0407D000B5C4245830
:0407D100B5BDA9EB1E
:0407D200B5B76654FD
:0407D300B5B157C2A3
:0407D400B5AB7C73D2
:0407D500B5A5D2B73D
:0407D600B5A058E78B
:0407D700B59B0D6F52
:0407D800B595EEC520
:0407D900B590FB6E6E
:0407DA00B58C31FBAE
:0407DB00B587910845
:0407DC00B58317408A
:0407DD00B57D86ABB5
:0407DE00B5752810B5
:0407DF00B56D1044A0
:0407E000B5653CEED1
:0407E100B55DABCB8C
:0407E200B5565AA905
:0407E300B54F476C5B
:0407E400B54870069E
:0407E500B541D27ECA
:0407E600B53B6CE8CB
:0407E700B5353D6C7B
:0407E800B52F423FA8
:0407E900B52979A70E
:0407EA00B523E1F75B
:0407EB00B51E79912D
:0407EC00B5193EE419
:0407ED00B514306FA0
:0407EE00B50F4CBA3D
:0407EF00B50A925C59
:0407F000B505FFF656
:0407F100B501943783
:0407F200B4FA9BAF0B
:0407F300B4F25735D0
:0407F400B4EA589F6C
:0407F500B4E29D9B32
:0407F600B4DB23F05D
:0407F700B4D3E9721C
:0407F800B4CCEC0D84
:0407F900B4C629BB9E
:0407FA00B4BFA08860
:0407FB00B4B94E91AE
:0407FC00B4B332035D
:0407FD00B4AD491A34
:0407FE00B4A79221E9
:0407FF00B4A20B7223
:04080000B49A6EF741
:04080100B4906AA0A5
:04080200B4870CBFEC
:04080300B47C950923
:04080400B46C33A5F8
:04080500B45CE26B92
:04080600B44E8FACB1
:04080700B4412AE0EE
:04080800B434A494CC
:04080900B428EE53CE
:04080A00B41DFA9B84
:04080B00B413BCC99D
:04080C00B40A290FF2
:04080D00B40134619D
:04080E00B3F1A8D7C3
:04080F00B3E1FF0D45
:04081000B3D35956AF
:04081100B3C5A6D1F4
:04081200B3B8D7B5EB
:04081300B3ACDD3F66
:04081400B3A1A9A241
:04081500B3972FF670
:04081600B38D642B0F
:04081700B3843AF973
:04081800B37753A4BB
:04081900B3674DB3C1
:04081A00B35851ACD2
:04081B00B34A4E4E40
:04081C00B33D33783D
:04081D00B330F215ED
:04081E00B3257C0B77
:04081F00B31AC4281C
:04082000B310BE183B
:04082100B3075E5368
:04082200B2FD3421CE
:04082300B2ECCE75F0
:04082400B2DD78C603
:04082500B2CF2172BB
:04082600B2C1B7FBA9
:04082700B2B52CF545
:04082800B2A971F60A
:04082900B29E798082
:04082A00B29436F757
:04082B00B28A9E925D
:04082C00B281A548A8
:04082D00B27281948E
:04082E00B262CEE6FE
:04082F00B254207E21
:04083000B246657DEA
:04083100B2398E1D2D
:04083200B22D8BA0B8
:04083300B222503964
:04083400B217CF0226
:04083500B20DFBEC19
:04083600B204CBAE8F
:04083700B1F8677934
:04083800B1E854725D
:04083900B1D94BD313
:04083A00B1CB3C5BA7
:04083B00B1BE15E74E
:04083C00B1B1C95E2F
:04083D00B1A648A573
:04083E00B19B86875D
:04083F00B19176AD50
:04084000B1880D8CE2
:04084100B17E80AE56
:04084200B16E09EC9E
:04084300B15EA3EF10
:04084400B1503D0E64
:04084500B142C4C434
:04084600B1362B9FFD
:04084700B12A632D42
:04084800B11F5DEA95
:04084900B1150F34A2
:04084A00B10B6B3A49
:04084B00B10266EEA2
:04084C00B0F3EFF521
:04084D00B0E4296A80
:04084E00B0D5682594
:04084F00B0C79B3E55
:04085000B0BAB2E3A5
:04085100B0AEA0495C
:04085200B0A3559D5D
:04085300B098C5EDA7
:04085400B08EE51F5E
:04085500B085A7E3E0
:04085600B07A074726
:04085700B069DCF3B5
:04085800B05ABE468E
:04085900B04C99EF17
:04085A00B03F5FBC90
:04085B00B03300872F
:04085C00B0276E242F
:04085D00B01C9B54DC
:04085E00B0127BB1A8
:04085F00B00903A534
:04086000B000285864
:04086100AFEFBF4DE9
:04086200AFE040299A
:04086300AFD1C187C9
:04086400AFC432D01B
:04086500AFB7847F26
:04086600AFABA8117B
:04086700AFA08FF2BD
:04086800AF962F71A7
:04086900AF8C7AAD29
:04086A00AF83668B67
:04086B00AF75D15044
:04086C00AF65EE99ED
:04086D00AF5712C4AB
:04086E00AF492CD290
:04086F00AF3C2CDC92
:04087000AF3004029F
:04087100AF24A45EAE
:04087200AF1A00EBCE
:04087300AF100D7F36
:04087400AF06BEB954
:04087500AEFC13E7DB
:04087600AEEBCA73A8
:04087700AEDC8E76EF
:04087800AECE4E842E
:04087900AEC0FA53C0
:04087A00AEB482A4F2
:04087B00AEA8D93812
:04087C00AE9DF0B786
:04087D00AE93BCABCF
:04087E00AE8A3168A5
:04087F00AE814406FC
:04088000AE71D4A2DF
:04088100AE623579B5
:04088200AE5398B722
:04088300AE45EDA9E8
:04088400AE3924AEB7
:04088500AE2D2F2C39
:04088600AE21FF7729
:04088700AE1788C759
:04088800AE0DBF26CC
:04088900AE049766BC
:04088A00ADF80E2196
:04088B00ADE808BA12
:04088C00ADD90C488E
:04088D00ADCB07AC3C
:04088E00ADBDEAE42E
:04088F00ADB1A6F36E
:04089000ADA62DD70D
:04089100AD9B727534
:04089200AD91688B31
:04089300AD8804A187
:04089400AD7E77FBC3
:04089500AD6E093209
:04089600AD5EAA2188
:04089700AD50493ADD
:04089800AD42D61186
:04089900AD36414CEB
:04089A00AD2A7C8B7C
:04089B00AD1F7A5FB4
:04089C00AD152E3533
:04089D00AD0B8C4CC7
:04089E00AD0289A47A
:04089F00ACF437E896
:0408A000ACE4733819
:0408A100ACD5B338E7
:0408A200ACC7E711E7
:0408A300ACBAFF03E9
:0408A400ACAEEC52B8
:0408A500ACA3A13629
:0408A600AC9910CC2D
:0408A700AC8F2F04DF
:0408A800AC85F09794
:0408A900AC7A95EFA1
:0408AA00AC6A688F3D
:0408AB00AC5B469864
:0408AC00AC4D1EC46D
:0408AD00AC3FE0EC90
:0408AE00AC337DF3F7
:0408AF00AC27E7B7D4
:0408B000AC1D10FF6C
:0408B100AC12ED6D2B
:0408B200AC097170AC
:0408B300AC009234CF
:0408B400ABF08B35E5
:0408B500ABE1045857
:0408B600ABD27E192A
:0408B700ABC4E7E601
:0408B800ABB8323F68
:0408B900ABAC4EA4F2
:0408BA00ABA12F853A
:0408BB00AB96C833FD
:0408BC00AB8D0CCF25
:0408BD00AB83F23FD8
:0408BE00AB76DC43F6
:0408BF00AB66ED7FB8
:0408C000AB58060625
:0408C100AB4A14D753
:0408C200AB3D0A0D33
:0408C300AB30D6C7B9
:0408C400AB256D1CD7
:0408C500AB1AC007A3
:0408C600AB10C35B55
:0408C700AB076BB65A
:0408C800AAFD5CDE4B
:0408C900AAED032071
:0408CA00AADDB78C60
:0408CB00AACF68B296
:0408CC00AAC2064076
:0408CD00AAB580F553
:0408CE00AAA9CA8980
:0408CF00AA9ED5A266
:0408D000AA9495C38E
:0408D100AA8AFF3AB6
:0408D200AA82071BD4
:0408D300AA73465866
:0408D400AA6393B7C9
:0408D500AA54E46FCE
:0408D600AA4727C244
:0408D700AA3A4E08E3
:0408D800AA2E489B61
:0408D900AA2309C67F
:0408DA00AA1884B91B
:0408DB00AA0EAD753F
:0408DC00AA0578C42D
:0408DD00A9F9B84E6F
:0408DE00A9E99B9B4E
:0408DF00A9DA8912F7
:0408E000A9CC6F86AA
:0408E100A9BF3EE489
:0408E200A9B2E825AA
:0408E300A9A75D392B
:0408E400A99C90F942
:0408E500A992771647
:0408E600A989040DCB
:0408E700A9802D1B9C
:0408E800A96FD057CD
:0408E900A96057A803
:0408EA00A951DE87AB
:0408EB00A944547553
:0408EC00A937AA0579
:0408ED00A92BD0CA99
:0408EE00A920BB433F
:0408EF00A9165CD01A
:0408F000A90CA9A006
:0408F100A90396A51C
:0408F200A8F633151C
:0408F300A8E65147DB
:0408F400A8D775C844
:0408F500A8C98FAD52
:0408F600A8BC8F1FEC
:0408F700A8B0654FF1
:0408F800A8A504614A
:0408F900A89A5F60FA
:0408FA00A8906A2B2D
:0408FB00A887196B46
:0408FC00A87CC50609
:0408FD00A86C770D5F
:0408FE00A85D365962
:0408FF00A84EF18985
:04090000A83C1839BE
:04090100A8249CCBBF
:04090200A8100FEB3F
:04090300A7FC27C165
:04090400A7DCAD516E
:04090500A7C120F76F
:04090600A7A9051583
:04090700A793EBBA0D
:04090800A78174B39C
:04090900A762979AB0
:04090A00A7464EB4FA
:04090B00A72D8DBFC8
:04090C00A717E3E066
:04090D00A704EE51FC
:04090E00A6E8AD4A60
:04090F00A6CBA26D64
:04091000A6B237A8AC
:04091100A69BF91C8C
:04091200A6888165CD
:04091300A66EEF8A53
:04091400A6511D26A5
:04091500A63703B24C
:04091600A6202C38B3
:04091700A60C2E9D5F
:04091800A5F55F8C56
:04091900A5D6BFEBB5
:04091A00A5BBF2C8BF
:04091B00A5A47E0011
:04091C00A58FF6AEFF
:04091D00A57BFE8C2C
:04091E00A55C8BD178
:04091F00A54105DE0B
:04092000A528EF4ACD
:04092100A513DA52EE
:04092200A50166E8DD
:04092300A4E281F4D5
:04092400A4C63DEC3C
:04092500A4AD80EE0F
:04092600A497DA4771
:04092700A484E7536A
:04092800A468A37BA1
:04092900A44B9BF34D
:04092A00A43233D0F0
:04092B00A41BF754BE
:04092C00A408813466
:04092D00A3EEF193B1
:04092E00A3D120FD34
:04092F00A3B708D68C
:04093000A3A032430B
:04093100A38C353D21
:04093200A3756D75C7
:04093300A356CE1ADF
:04093400A33C00EFF1
:04093500A3248BE587
:04093600A3100425E1
:04093700A2FC1860A6
:04093800A2DCA46237
:04093900A2C11D1228
:04093A00A2A9051158
:04093B00A293EEA9EC
:04093C00A28179D04B
:04093D00A262A4F816
:04093E00A2465E3A35
:04093F00A22D9EA6A1
:04094000A217F5897C
:04094100A2050044C7
:04094200A1E8D10453
:04094300A1CBC56E11
:04094400A1B259877C
:04094500A19C1990C8
:04094600A188A03AAA
:04094700A16F29B8BB
:04094800A15153B9AD
:04094900A137369FFD
:04094A00A1205B8805
:04094B00A10C5A673A
:04094C00A0F5B05012
:04094D00A0D70A2EF7
:04094E00A0BC36E033
:04094F00A0A4BC475D
:04095000A0902F84C0
:04095100A07C661010
:04095200A05CE9E9D3
:04095300A0415B4123
:04095400A0293CA6F4
:04095500A014204F7B
:04095600A001A62333
:040957009FE2F41017
:040958009FC6A4C3CF
:040959009FADDD84ED
:04095A009F982D8CA9
:04095B009F8532241E
:04095C009F6929CD99
:04095D009F4C146D2A
:04095E009F329FC95C
:04095F009F1C58057C
:040960009F08D7BB5A
:040961009EEF8C5722
:040962009ED1AB4D2A
:040963009EB7845F58
:040964009EA0A08928
:040965009E8C97A02D
:040966009E761CEA73
:040967009E576A7AB3
:040968009E3C8C3DE8
:040969009E2507EED2
:04096A009E10728BDE
:04096B009DFCDCCF44
:04096C009DDD5312A8
:04096D009DC1B85B15
:04096E009DA98F0FA1
:04096F009D94693DAD
:040970009D81E6AAD5
:040971009D63663BE1
:040972009D4709BDD7
:040973009D2E36CEB1
:040974009D187C7DD1
:040975009D0577EB7A
:040976009CE9A5242F
:040977009CCC816A29
:040978009CB3001319
:040979009C9CAD1481
:04097A009C8922DC56
:04097B009C70110655
:04097C009C522074F5
:04097D009C37EBCCEC
:04097E009C20FBD5E9
:04097F009C0CE832B2
:040980009BF6AB1F18
:040981009BD7E7F425
:040982009BBCFAF030
:040983009BA5699532
:040984009B90C8ACD0
:040985009B7D74BA28
:040986009B5DD90993
:040987009B422E7AE7
:040988009B29F7327E
:040989009B14C50AEC
:04098A009B02379500
:04098B009AE3F4DC1B
:04098C009AC7876E11
:04098D009AAEA590E9
:04098E009A98DE1342
:04098F009A85CDE593
:040990009A6A3C9E85
:040991009A4D06D89D
:040992009A33759887
:040993009A1D149401
:040994009A097E013D
:0409950099F0B18A9A
:0409960099D2ADC97C
:0409970099B8683A69
:0409980099A1695F59
:04099900998D48A04C
:04099A00997754E015
:04099B0099587D5D8D
:04099C00993D7E6E95
:04099D009925DD4D6E
:04099E0099112E80FD
:04099F0098FE27EEA9
:0409A00098DE76B5B2
:0409A10098C2B9320D
:0409A20098AA713C62
:0409A300989530658E
:0409A400988296049B
:0409A50098649AFCBC
:0409A6009848198BC9
:0409A700982F26114E
:0409A80098194F1536
:0409A9009806314635
:0409AA0097EAEB6578
:0409AB0097CDA085BF
:0409AC0097B3FCB74A
:0409AD00979D8B6027
:0409AE009789E672CD
:0409AF009771692BA8
:0409B00097534F36D4
:0409B1009738F6205D
:0409B2009721E6198A
:0409B300970DB640A6
:0409B40096F8159408
:0409B50096D926B9F0
:0409B60096BE134591
:0409B70096A6601987
:0409B8009691A17003
:0409B900967EF1EC49
:0409BA00965F2832EA
:0409BB0096435525E5
:0409BC00962AFA413C
:0409BD009615A8C61D
:0409BE009602FFC6D8
:0409BF0095E554CD99
:0409C00095C8BCC753
:0409C10095AFB576C3
:0409C2009599CD0B2B
:0409C30095869FE98D
:0409C400956BADC1C1
:0409C500954E4B3BC5
:0409C600953492A52D
:0409C700951E0F0E5C
:0409C800950A5A161C
:0409C90094F2344927
:0409CA0094D401942C
:0409CB0094B992C287
:0409CC0094A26FA4DE
:0409CD00948E2F06CF
:0409CE009478E9AC84
:0409CF009459E0F364
:0409D000943EB6C7D4
:0409D1009426EFA8D1
:0409D20094121F7AE2
:0409D30093FFCF3B84
:0409D40093DFEA7B48
:0409D50093C3FFB514
:0409D60093AB8FFB55
:0409D70093962C3691
:0409D800938373276B
:0409D90093661F5CA6
:0409DA0093496E943B
:0409DB00933051867E
:0409DC00931A56060E
:0409DD009307182440
:0409DE0092EC80CC4B
:0409DF0092CF04743B
:0409E00092B5353562
:0409E100929E9DB98C
:0409E200928AD74BD3
:0409E3009273100AF1
:0409E4009254C26EF9
:0409E500923A3BFE09
:0409E600922304252F
:0409E700920EB15764
:0409E80091F9CE5F54
:0409E90091DAA99F57
:0409EA0091BF66DC77
:0409EB0091A78A281E
:0409EC009192A70A33
:0409ED0091805E8E09
:0409EE009160BB3128
:0409EF009144B6D2A7
:0409F000912C30A373
:0409F1009116B92979
:0409F2009103EECEB1
:0409F30090E6F85240
:0409F40090CA2CEA8F
:0409F50090B0F87F47
:0409F600909AE8806B
:0409F700908798A2AB
:0409F800906D623B61
:0409F900904FCA351C
:0409FA009035E2ACA6
:0409FB00901F35E133
:0409FC00900B5CC23E
:0409FD008FF3FA2E4C
:0409FE008FD58FCC36
:0409FF008FBAF0209B
:040A00008F9A944EE7
:040A01008F6CE18C89
:040A02008F35805458
:040A03008F0B1199AB
:040A04008ED51CEA85
:040A05008EA34A561C
:040A06008E7A3B3D6C
:040A07008E3FBB4221
:040A08008E12E874EE
:040A09008DE12091CA
:040A0A008DAC7F2B05
:040A0B008D842BA00B
:040A0C008D4A8B196B
:040A0D008D1B3169A3
:040A0E008CEDD31781
:040A0F008CB63A0067
:040A10008C8BA052D9
:040A11008C55F850B8
:040A12008C23F2F649
:040A13008BFB3E6FAC
:040A14008BC082759C
:040A15008B938189B5
:040A16008B620BD80C
:040A17008B2D33F6FA
:040A18008B04B68D08
:040A19008ACB60978D
:040A1A008A9BD5726C
:040A1B008A6ECF27E9
:040A1C008A36FBA873
:040A1D008A0C3519F1
:040A1E0089D6DCE8B1
:040A1F0089A4A29272
:040A2000897C4C3C45
:040A2100894151B600
:040A2200891420BC57
:040A230088E30068FC
:040A240088ADEFCFDB
:040A2500888546D4A6
:040A2600884C3E3783
:040A2700881C7FA9FF
:040A280087EFD49AE6
:040A290087B7C47255
:040A2A00878CCF4B9B
:040A2B008757C9BB65
:040A2C008725586F53
:040A2D0086FD638A55
:040A2E0086C2282E26
:040A2F008694C56A7A
:040A30008663FD4F8D
:040A3100862EB1FE5E
:040A32008605DBEC6E
:040A330085CD232822
:040A3400859D2F6FFE
:040A35008570E28066
:040A3600853893A8C4
:040A3700850D6E5F5C
:040A380084D8BDFBA6
:040A390084A613F18B
:040A3A00847E836CC7
:040A3B008443052CBF
:040A3C0084156F0F9F
:040A3D0083E501BF8D
:040A3E0083AF79E821
:040A3F0083867560D5
:040A4000834E0EBB18
:040A4100831DE440ED
:040A420082F1F81233
:040A430082B968B359
:040A4400828E11E3AA
:040A45008259B8FB1F
:040A46008226D4949C
:040A470081FFAB1D63
:040A480081C3E81B63
:040A490081961D383D
:040A4A0081660D10A4
:040A4B008130470DA2
:040A4C00810712CF3D
:040A4D0080CF005CFA
:040A4E00809E9DAD3C
:040A4F0080798A54CC
:040A5000805D218A1A
:040A510080475CBBC3
:040A52008036AE8AB2
:040A53008029E67B95
:040A540080201B3FA4
:040A550080189A105B
:040A56008012D9F140
:040A5700800E71EBB1
:040A5800800B11906E
:040A590080087B3E58
:040A5A0080067FBCD7
:040A5B008004FADB3E
:040A5C008003D0DF64
:040A5D008002EC899E
:040A5E0080023D9342
:040A5F008001B782D9
:040A6000800150C7FA
:040A61008001020FFF
:040A62008000C5BE8D
:040A630080009786F2
:040A64008000741B7F
:040A6500800058F8BD
:040A66008000442C9C
:040A67008000343D9A
:040A680080002807DB
:040A690080001EAC3F
:040A6A008000178170
:040A6B0080001202F3
:040A6C0080000DCD2C
:040A6D0080000A9368
:040A6E008000081AE2
:040A6F0080000635C8
:040A7000800004C23C
:040A7100800003A559
:040A7200800002CB33
:040A730080000224D9
:040A7400800001A459
:040A750080000142BA
:040A7600800000F705
:040A7700800000BD3E
:040A78008000009169
:040A79008000006F8A
:040A7A0080000055A3
:040A7B0080000041B6
:040A7C0080000032C4
:040A7D0080000026CF
:040A7E008000001DD7
:040A7F0080000016DD
:040A800080000011E1
:040A81008000000DE4
:040A82008000000AE6
:040A830080000008E7
:040A840080000006E8
:040A850080000005E8
:040A860080000003E9
:040A870080000003E8
:040A880080000002E8
:040A890080000002E7
:040A8A0080000001E7
:040A8B0080000001E6
:040A8C0080000001E5
:040A8D0080000001E4
:040A8E0080000000E4
:040A8F0080000000E3
:040A900080000000E2
:040A910080000000E1
:040A920080000000E0
:040A930080000000DF
:040A940080000000DE
:040A950080000000DD
:040A960080000000DC
:040A970080000000DB
:040A980080000000DA
:040A990080000000D9
:040A9A0080000000D8
:040A9B0080000000D7
:040A9C0080000000D6
:040A9D0080000000D5
:040A9E0080000000D4
:040A9F0080000000D3
:040AA00080000000D2
:040AA10080000000D1
:040AA20080000000D0
:040AA30080000000CF
:040AA40080000000CE
:040AA50080000000CD
:040AA60080000000CC
:040AA70080000000CB
:040AA80080000000CA
:040AA90080000000C9
:040AAA0080000000C8
:040AAB0080000000C7
:040AAC0080000000C6
:040AAD0080000000C5
:040AAE0080000000C4
:040AAF0080000000C3
:040AB00080000000C2
:040AB10080000000C1
:040AB20080000000C0
:040AB30080000000BF
:040AB40080000000BE
:040AB50080000000BD
:040AB60080000000BC
:040AB70080000000BB
:040AB80080000000BA
:040AB90080000000B9
:040ABA0080000000B8
:040ABB0080000000B7
:040ABC0080000000B6
:040ABD0080000000B5
:040ABE0080000000B4
:040ABF0080000000B3
:040AC00080000000B2
:040AC10080000000B1
:040AC20080000000B0
:040AC30080000000AF
:040AC40080000000AE
:040AC50080000000AD
:040AC60080000000AC
:040AC70080000000AB
:040AC80080000000AA
:040AC90080000000A9
:040ACA0080000000A8
:040ACB0080000000A7
:040ACC0080000000A6
:040ACD0080000000A5
:040ACE0080000000A4
:040ACF0080000000A3
:040AD00080000000A2
:040AD10080000000A1
:040AD20080000000A0
:040AD300800000009F
:040AD400800000009E
:040AD500800000009D
:040AD600800000009C
:040AD700800000009B
:040AD800800000009A
:040AD9008000000099
:040ADA008000000098
:040ADB008000000097
:040ADC008000000096
:040ADD008000000095
:040ADE008000000094
:040ADF008000000093
:040AE0008000000092
:040AE1008000000091
:040AE2008000000090
:040AE300800000008F
:040AE400800000008E
:040AE500800000008D
:040AE600800000008C
:040AE700800000008B
:040AE800800000008A
:040AE9008000000089
:040AEA008000000088
:040AEB008000000087
:040AEC008000000086
:040AED008000000085
:040AEE008000000084
:040AEF008000000083
:040AF0008000000082
:040AF1008000000081
:040AF2008000000080
:040AF300800000007F
:040AF400800000007E
:040AF500800000007D
:040AF600800000007C
:040AF700800000007B
:040AF800800000007A
:040AF9008000000079
:040AFA008000000078
:040AFB008000000077
:040AFC008000000076
:040AFD008000000075
:040AFE008000000074
:040AFF008000000073
:040B00008000000071
:040B01008000000070
:040B0200800000006F
:040B0300800000006E
:040B0400800000006D
:040B0500800000006C
:040B0600800000006B
:040B0700800000006A
:040B08008000000069
:040B09008000000068
:040B0A008000000067
:040B0B008000000066
:040B0C008000000065
:040B0D008000000064
:040B0E008000000063
:040B0F008000000062
:040B10008000000061
:040B11008000000060
:040B1200800000005F
:040B1300800000005E
:040B1400800000005D
:040B1500800000005C
:040B1600800000005B
:040B1700800000005A
:040B18008000000059
:040B19008000000058
:040B1A008000000057
:040B1B008000000056
:040B1C008000000055
:040B1D008000000054
:040B1E008000000053
:040B1F008000000052
:040B20008000000051
:040B21008000000050
:040B2200800000004F
:040B2300800000004E
:040B2400800000004D
:040B2500800000004C
:040B2600800000004B
:040B2700800000004A
:040B28008000000049
:040B29008000000048
:040B2A008000000047
:040B2B008000000046
:040B2C008000000045
:040B2D008000000044
:040B2E008000000043
:040B2F008000000042
:040B30008000000041
:040B31008000000040
:040B3200800000003F
:040B3300800000003E
:040B3400800000003D
:040B3500800000003C
:040B3600800000003B
:040B3700800000003A
:040B38008000000039
:040B39008000000038
:040B3A008000000037
:040B3B008000000036
:040B3C008000000035
:040B3D008000000034
:040B3E008000000033
:040B3F008000000032
:040B40008000000031
:040B41008000000030
:040B4200800000002F
:040B4300800000002E
:040B4400800000002D
:040B4500800000002C
:040B4600800000002B
:040B4700800000002A
:040B48008000000029
:040B49008000000028
:040B4A008000000027
:040B4B008000000026
:040B4C008000000025
:040B4D008000000024
:040B4E008000000023
:040B4F008000000022
:040B50008000000021
:040B51008000000020
:040B5200800000001F
:040B5300800000001E
:040B5400800000001D
:040B5500800000001C
:040B5600800000001B
:040B5700800000001A
:040B58008000000019
:040B59008000000018
:040B5A008000000017
:040B5B008000000016
:040B5C008000000015
:040B5D008000000014
:040B5E008000000013
:040B5F008000000012
:040B60008000000011
:040B61008000000010
:040B6200800000000F
:040B6300800000000E
:040B6400800000000D
:040B6500800000000C
:040B6600800000000B
:040B6700800000000A
:040B68008000000009
:040B69008000000008
:040B6A008000000007
:040B6B008000000006
:040B6C008000000005
:040B6D008000000004
:040B6E008000000003
:040B6F008000000002
:040B70008000000001
:040B71008000000000
:040B720080000000FF
:040B730080000000FE
:040B740080000000FD
:040B750080000000FC
:040B760080000000FB
:040B770080000000FA
:040B780080000000F9
:040B790080000000F8
:040B7A0080000000F7
:040B7B0080000000F6
:040B7C0080000000F5
:040B7D0080000000F4
:040B7E0080000000F3
:040B7F0080000000F2
:040B800080000000F1
:040B810080000000F0
:040B820080000000EF
:040B830080000000EE
:040B840080000000ED
:040B850080000000EC
:040B860080000000EB
:040B870080000000EA
:040B880080000000E9
:040B890080000000E8
:040B8A0080000000E7
:040B8B0080000000E6
:040B8C0080000000E5
:040B8D0080000000E4
:040B8E0080000000E3
:040B8F0080000000E2
:040B900080000000E1
:040B910080000000E0
:040B920080000000DF
:040B930080000000DE
:040B940080000000DD
:040B950080000000DC
:040B960080000000DB
:040B970080000000DA
:040B980080000000D9
:040B990080000000D8
:040B9A0080000000D7
:040B9B0080000000D6
:040B9C0080000000D5
:040B9D0080000000D4
:040B9E0080000000D3
:040B9F0080000000D2
:040BA00080000000D1
:040BA10080000000D0
:040BA20080000000CF
:040BA30080000000CE
:040BA40080000000CD
:040BA50080000000CC
:040BA60080000000CB
:040BA70080000000CA
:040BA80080000000C9
:040BA90080000000C8
:040BAA0080000000C7
:040BAB0080000000C6
:040BAC0080000000C5
:040BAD0080000000C4
:040BAE0080000000C3
:040BAF0080000000C2
:040BB00080000000C1
:040BB10080000000C0
:040BB20080000000BF
:040BB30080000000BE
:040BB40080000000BD
:040BB50080000000BC
:040BB60080000000BB
:040BB70080000000BA
:040BB80080000000B9
:040BB90080000000B8
:040BBA0080000000B7
:040BBB0080000000B6
:040BBC0080000000B5
:040BBD0080000000B4
:040BBE0080000000B3
:040BBF0080000000B2
:040BC00080000000B1
:040BC10080000000B0
:040BC20080000000AF
:040BC30080000000AE
:040BC40080000000AD
:040BC50080000000AC
:040BC60080000000AB
:040BC70080000000AA
:040BC80080000000A9
:040BC90080000000A8
:040BCA0080000000A7
:040BCB0080000000A6
:040BCC0080000000A5
:040BCD0080000000A4
:040BCE0080000000A3
:040BCF0080000000A2
:040BD00080000000A1
:040BD10080000000A0
:040BD200800000009F
:040BD300800000009E
:040BD400800000009D
:040BD500800000009C
:040BD600800000009B
:040BD700800000009A
:040BD8008000000099
:040BD9008000000098
:040BDA008000000097
:040BDB008000000096
:040BDC008000000095
:040BDD008000000094
:040BDE008000000093
:040BDF008000000092
:040BE0008000000091
:040BE1008000000090
:040BE200800000008F
:040BE300800000008E
:040BE400800000008D
:040BE500800000008C
:040BE600800000008B
:040BE700800000008A
:040BE8008000000089
:040BE9008000000088
:040BEA008000000087
:040BEB008000000086
:040BEC008000000085
:040BED008000000084
:040BEE008000000083
:040BEF008000000082
:040BF0008000000081
:040BF1008000000080
:040BF200800000007F
:040BF300800000007E
:040BF400800000007D
:040BF500800000007C
:040BF600800000007B
:040BF700800000007A
:040BF8008000000079
:040BF9008000000078
:040BFA008000000077
:040BFB008000000076
:040BFC008000000075
:040BFD008000000074
:040BFE008000000073
:040BFF008000000072
:00000001FF
