:04000000C1EE5EA54A
:04000100C1EAB0148C
:04000200C1E71371CE
:04000300C1E3884489
:04000400C1E00E8FBA
:04000500C1DCA69A1A
:04000600C1D94ECF3F
:04000700C1D60682D6
:04000800C1D2CE9BF8
:04000900C1CFA59E20
:04000A00C1CC8BA535
:04000B00C1C98118CE
:04000C00C1C68541A3
:04000D00C1C3964491
:04000E00C1C0B67641
:04000F00C1BDE3503C
:04001000C1BB1D87CC
:04001100C1B86455B9
:04001200C1B5B81CA0
:04001300C1B318114C
:04001400C1B0843FB4
:04001500C1ADFC81FC
:04001600C1AB8033C7
:04001700C1A90EAEBF
:04001800C1A6A8A035
:04001900C1A44DE150
:04001A00C1A1FD196A
:04001B00C19FB71CAE
:04001C00C19D7B13F4
:04001D00C19B497CBE
:04001E00C19920F272
:04001F00C197024F34
:04002000C194ECD9C2
:04002100C192E0B7F1
:04002200C190DDE0CC
:04002300C18EE2E5C3
:04002400C18CF17B1F
:04002500C18B08047F
:04002600C18926F86E
:04002700C1874D96AA
:04002800C1857D0E03
:04002900C183B3B725
:04002A00C181F1F2AD
:04002B00C180380B4D
:04002C00C17D0A1672
:04002D00C179B2FDE6
:04002E00C17669C26C
:04002F00C1732E0C5F
:04003000C16FFFDFBE
:04003100C16CDF12AD
:04003200C169CBA62F
:04003300C166C4E1FD
:04003400C163CA34A6
:04003500C160DC5D6D
:04003600C15DFA6B43
:04003700C15B23F98D
:04003800C15859044E
:04003900C1559A15FE
:04003A00C152E4E4E7
:04003B00C1503BACC9
:04003C00C14D9CE036
:04003D00C14B08A704
:04003E00C1487F89AD
:04003F00C145FF2D8B
:04004000C1438940EF
:04004100C1411D514B
:04004200C13EBBB848
:04004300C13C61DD7E
:04004400C13A126744
:04004500C137CB866E
:04004600C1358DBB78
:04004700C1335891D8
:04004800C1312BF3A4
:04004900C12F079824
:04004A00C12CEB6C6E
:04004B00C12AD7BF30
:04004C00C128CC46B5
:04004D00C126C850B0
:04004E00C124CB5DA1
:04004F00C122D6BD37
:04005000C120E9BB27
:04005100C11F03398F
:04005200C11D245355
:04005300C11B4C86FB
:04005400C1197B173C
:04005500C117B125F9
:04005600C115ECECF8
:04005700C1142FF3AE
:04005800C112797DDB
:04005900C110C96C9D
:04005A00C10F1EFEB6
:04005B00C10D7B5206
:04005C00C10BDD08EF
:04005D00C10A450887
:04005E00C108B28E95
:04005F00C10725AD03
:04006000C1059F52E5
:04006100C1041DA514
:04006200C102A1092D
:04006300C1012A8627
:04006400C0FF731254
:04006500C0FC99B38F
:04006600C0F9CAC74C
:04006700C0F7066F69
:04006800C0F44BEDA8
:04006900C0F19AF454
:04006A00C0EEF32DC4
:04006B00C0EC536A28
:04006C00C0E9BED950
:04006D00C0E7328333
:04006E00C0E4AEBF7D
:04006F00C0E233DDDB
:04007000C0DFC1FC30
:04007100C0DD57A6F1
:04007200C0DAF7A554
:04007300C0D89D9ABA
:04007400C0D64CBFE7
:04007500C0D4039B55
:04007600C0D1C1D65E
:04007700C0CF88A5C9
:04007800C0CD556939
:04007900C0CB2AF4DA
:04007A00C0C9074DA5
:04007B00C0C6EA53BE
:04007C00C0C4D579AE
:04007D00C0C2C68AAD
:04007E00C0C0BFAC93
:04007F00C0BEBF1F21
:04008000C0BCC47EBE
:04008100C0BAD17BB5
:04008200C0B8E4140A
:04008300C0B6FD0FF7
:04008400C0B51D31B5
:04008500C0B3427151
:04008600C0B16E890E
:04008700C0AF9FA4C3
:04008800C0ADD77DB3
:04008900C0AC1442B1
:04008A00C0AA572F82
:04008B00C0A89FDE8C
:04008C00C0A6EE9C80
:04008D00C0A54117B2
:04008E00C0A39A76FB
:04008F00C0A1F8A66E
:04009000C0A05C2F81
:04009100C09EC466E3
:04009200C09D31D507
:04009300C09BA50663
:04009400C09A1C19D9
:04009500C0989795E3
:04009600C09718C037
:04009700C0959E7002
:04009800C09428B335
:04009900C092B792C8
:04009A00C0914B1FA7
:04009B00C08FE265CB
:04009C00C08E7EF0A4
:04009D00C08D1F4CA7
:04009E00C08BC386CA
:04009F00C08A6C6B3C
:0400A000C089198476
:0400A100C087CA5DED
:0400A200C0867F4154
:0400A300C0853738A5
:0400A400C083F5160A
:0400A500C082B4D889
:0400A600C08179118B
:0400A700C08041498B
:0400A800C07E1A53A9
:0400A900C07BB7AEB3
:0400AA00C0795E8D2E
:0400AB00C0770B2BE4
:0400AC00C074BD98C7
:0400AD00C072798420
:0400AE00C070395491
:0400AF00C06E0244D9
:0400B000C06BD0420F
:0400B100C069A52F4E
:0400B200C067801291
:0400B300C065618142
:0400B400C0634A15C6
:0400B500C06136F8F8
:0400B600C05F2B1FDD
:0400B700C05D23F70E
:0400B800C05B24BE47
:0400B900C05929CA37
:0400BA00C057348077
:0400BB00C0554533B4
:0400BC00C0535C359C
:0400BD00C05176E7D1
:0400BE00C04F98D5C2
:0400BF00C04DBFA1D0
:0400C000C04BEB5AEC
:0400C100C04A1C0B0A
:0400C200C04851C21F
:0400C300C0468DA204
:0400C400C044CD0067
:0400C500C04311899A
:0400C600C0415C6475
:0400C700C03FAAE1AB
:0400C800C03DFD96A4
:0400C900C03C567E63
:0400CA00C03AB3B5D0
:0400CB00C03913A085
:0400CC00C0377A6F50
:0400CD00C035E44E08
:0400CE00C03451D217
:0400CF00C032C4B5C2
:0400D000C0313BE21E
:0400D100C02FB7F68F
:0400D200C02E379273
:0400D300C02CBB0979
:0400D400C02B42AD4E
:0400D500C029CE3F31
:0400D600C0285DCA17
:0400D700C026F10D41
:0400D800C02588EDCA
:0400D900C02423BF5D
:0400DA00C022C21C62
:0400DB00C02164EAF2
:0400DC00C0200AC373
:0400DD00C01EB5206C
:0400DE00C01D61BC24
:0400DF00C01C1336F8
:0400E000C01AC794E7
:0400E100C0197F269D
:0400E200C0183AD434
:0400E300C016F9C882
:0400E400C015BADEAB
:0400E500C0147FDDE7
:0400E600C013488477
:0400E700C0121444EB
:0400E800C010E2D989
:0400E900C00FB44A46
:0400EA00C00E893685
:0400EB00C00D610DD6
:0400EC00C00C3C22E6
:0400ED00C00B1A7BAF
:0400EE00C009FAF05B
:0400EF00C008DE6CFB
:0400F000C007C4A7DA
:0400F100C006AF2A6C
:0400F200C0059A614A
:0400F300C00489A01C
:0400F400C0037BBA10
:0400F500C0026F597D
:0400F600C00166A13E
:0400F700C000606382
:0400F800BFFEB94747
:0400F900BFFCB5E8AB
:0400FA00BFFAB88809
:0400FB00BFF8BFADDE
:0400FC00BFF6CD3747
:0400FD00BFF4DE72FC
:0400FE00BFF2F45108
:0400FF00BFF10EE15E
:04010000BFEE5EA54B
:04010100BFEAB0148D
:04010200BFE71371CF
:04010300BFE388448A
:04010400BFE00E8FBB
:04010500BFDCA69A1B
:04010600BFD94ECF40
:04010700BFD60682D7
:04010800BFD2CE9BF9
:04010900BFCFA59E21
:04010A00BFCC8BA536
:04010B00BFC98118CF
:04010C00BFC68541A4
:04010D00BFC3964492
:04010E00BFC0B67642
:04010F00BFBDE3503D
:04011000BFBB1D87CD
:04011100BFB86455BA
:04011200BFB5B81CA1
:04011300BFB318114D
:04011400BFB0843FB5
:04011500BFADFC81FD
:04011600BFAB8033C8
:04011700BFA90EAEC0
:04011800BFA6A8A036
:04011900BFA44DE151
:04011A00BFA1FD196B
:04011B00BF9FB71CAF
:04011C00BF9D7B13F5
:04011D00BF9B497CBF
:04011E00BF9920F273
:04011F00BF97024F35
:04012000BF94ECD9C3
:04012100BF92E0B7F2
:04012200BF90DDE0CD
:04012300BF8EE2E5C4
:04012400BF8CF17B20
:04012500BF8B080480
:04012600BF8926F86F
:04012700BF874D96AB
:04012800BF857D0E04
:04012900BF83B3B726
:04012A00BF81F1F2AE
:04012B00BF80380B4E
:04012C00BF7D0A1673
:04012D00BF79B2FDE7
:04012E00BF7669C26D
:04012F00BF732E0C60
:04013000BF6FFFDFBF
:04013100BF6CDF12AE
:04013200BF69CBA630
:04013300BF66C4E1FE
:04013400BF63CA34A7
:04013500BF60DC5D6E
:04013600BF5DFA6B44
:04013700BF5B23F98E
:04013800BF5859044F
:04013900BF559A15FF
:04013A00BF52E4E4E8
:04013B00BF503BACCA
:04013C00BF4D9CE037
:04013D00BF4B08A705
:04013E00BF487F89AE
:04013F00BF45FF2D8C
:04014000BF438940F0
:04014100BF411D514C
:04014200BF3EBBB849
:04014300BF3C61DD7F
:04014400BF3A126745
:04014500BF37CB866F
:04014600BF358DBB79
:04014700BF335891D9
:04014800BF312BF3A5
:04014900BF2F079825
:04014A00BF2CEB6C6F
:04014B00BF2AD7BF31
:04014C00BF28CC46B6
:04014D00BF26C850B1
:04014E00BF24CB5DA2
:04014F00BF22D6BD38
:04015000BF20E9BB28
:04015100BF1F033990
:04015200BF1D245356
:04015300BF1B4C86FC
:04015400BF197B173D
:04015500BF17B125FA
:04015600BF15ECECF9
:04015700BF142FF3AF
:04015800BF12797DDC
:04015900BF10C96C9E
:04015A00BF0F1EFEB7
:04015B00BF0D7B5207
:04015C00BF0BDD08F0
:04015D00BF0A450888
:04015E00BF08B28E96
:04015F00BF0725AD04
:04016000BF059F52E6
:04016100BF041DA515
:04016200BF02A1092E
:04016300BF012A8628
:04016400BEFF731255
:04016500BEFC99B390
:04016600BEF9CAC74D
:04016700BEF7066F6A
:04016800BEF44BEDA9
:04016900BEF19AF455
:04016A00BEEEF32DC5
:04016B00BEEC536A29
:04016C00BEE9BED951
:04016D00BEE7328334
:04016E00BEE4AEBF7E
:04016F00BEE233DDDC
:04017000BEDFC1FC31
:04017100BEDD57A6F2
:04017200BEDAF7A555
:04017300BED89D9ABB
:04017400BED64CBFE8
:04017500BED4039B56
:04017600BED1C1D65F
:04017700BECF88A5CA
:04017800BECD55693A
:04017900BECB2AF4DB
:04017A00BEC9074DA6
:04017B00BEC6EA53BF
:04017C00BEC4D579AF
:04017D00BEC2C68AAE
:04017E00BEC0BFAC94
:04017F00BEBEBF1F22
:04018000BEBCC47EBF
:04018100BEBAD17BB6
:04018200BEB8E4140B
:04018300BEB6FD0FF8
:04018400BEB51D31B6
:04018500BEB3427152
:04018600BEB16E890F
:04018700BEAF9FA4C4
:04018800BEADD77DB4
:04018900BEAC1442B2
:04018A00BEAA572F83
:04018B00BEA89FDE8D
:04018C00BEA6EE9C81
:04018D00BEA54117B3
:04018E00BEA39A76FC
:04018F00BEA1F8A66F
:04019000BEA05C2F82
:04019100BE9EC466E4
:04019200BE9D31D508
:04019300BE9BA50664
:04019400BE9A1C19DA
:04019500BE989795E4
:04019600BE9718C038
:04019700BE959E7003
:04019800BE9428B336
:04019900BE92B792C9
:04019A00BE914B1FA8
:04019B00BE8FE265CC
:04019C00BE8E7EF0A5
:04019D00BE8D1F4CA8
:04019E00BE8BC386CB
:04019F00BE8A6C6B3D
:0401A000BE89198477
:0401A100BE87CA5DEE
:0401A200BE867F4155
:0401A300BE853738A6
:0401A400BE83F5160B
:0401A500BE82B4D88A
:0401A600BE8179118C
:0401A700BE8041498C
:0401A800BE7E1A53AA
:0401A900BE7BB7AEB4
:0401AA00BE795E8D2F
:0401AB00BE770B2BE5
:0401AC00BE74BD98C8
:0401AD00BE72798421
:0401AE00BE70395492
:0401AF00BE6E0244DA
:0401B000BE6BD04210
:0401B100BE69A52F4F
:0401B200BE67801292
:0401B300BE65618143
:0401B400BE634A15C7
:0401B500BE6136F8F9
:0401B600BE5F2B1FDE
:0401B700BE5D23F70F
:0401B800BE5B24BE48
:0401B900BE5929CA38
:0401BA00BE57348078
:0401BB00BE554533B5
:0401BC00BE535C359D
:0401BD00BE5176E7D2
:0401BE00BE4F98D5C3
:0401BF00BE4DBFA1D1
:0401C000BE4BEB5AED
:0401C100BE4A1C0B0B
:0401C200BE4851C220
:0401C300BE468DA205
:0401C400BE44CD0068
:0401C500BE4311899B
:0401C600BE415C6476
:0401C700BE3FAAE1AC
:0401C800BE3DFD96A5
:0401C900BE3C567E64
:0401CA00BE3AB3B5D1
:0401CB00BE3913A086
:0401CC00BE377A6F51
:0401CD00BE35E44E09
:0401CE00BE3451D218
:0401CF00BE32C4B5C3
:0401D000BE313BE21F
:0401D100BE2FB7F690
:0401D200BE2E379274
:0401D300BE2CBB097A
:0401D400BE2B42AD4F
:0401D500BE29CE3F32
:0401D600BE285DCA18
:0401D700BE26F10D42
:0401D800BE2588EDCB
:0401D900BE2423BF5E
:0401DA00BE22C21C63
:0401DB00BE2164EAF3
:0401DC00BE200AC374
:0401DD00BE1EB5206D
:0401DE00BE1D61BC25
:0401DF00BE1C1336F9
:0401E000BE1AC794E8
:0401E100BE197F269E
:0401E200BE183AD435
:0401E300BE16F9C883
:0401E400BE15BADEAC
:0401E500BE147FDDE8
:0401E600BE13488478
:0401E700BE121444EC
:0401E800BE10E2D98A
:0401E900BE0FB44A47
:0401EA00BE0E893686
:0401EB00BE0D610DD7
:0401EC00BE0C3C22E7
:0401ED00BE0B1A7BB0
:0401EE00BE09FAF05C
:0401EF00BE08DE6CFC
:0401F000BE07C4A7DB
:0401F100BE06AF2A6D
:0401F200BE059A614B
:0401F300BE0489A01D
:0401F400BE037BBA11
:0401F500BE026F597E
:0401F600BE0166A13F
:0401F700BE00606383
:0401F800BDFEB94748
:0401F900BDFCB5E8AC
:0401FA00BDFAB8880A
:0401FB00BDF8BFADDF
:0401FC00BDF6CD3748
:0401FD00BDF4DE72FD
:0401FE00BDF2F45109
:0401FF00BDF10EE15F
:04020000BDEE5EA54C
:04020100BDEAB0148E
:04020200BDE71371D0
:04020300BDE388448B
:04020400BDE00E8FBC
:04020500BDDCA69A1C
:04020600BDD94ECF41
:04020700BDD60682D8
:04020800BDD2CE9BFA
:04020900BDCFA59E22
:04020A00BDCC8BA537
:04020B00BDC98118D0
:04020C00BDC68541A5
:04020D00BDC3964493
:04020E00BDC0B67643
:04020F00BDBDE3503E
:04021000BDBB1D87CE
:04021100BDB86455BB
:04021200BDB5B81CA2
:04021300BDB318114E
:04021400BDB0843FB6
:04021500BDADFC81FE
:04021600BDAB8033C9
:04021700BDA90EAEC1
:04021800BDA6A8A037
:04021900BDA44DE152
:04021A00BDA1FD196C
:04021B00BD9FB71CB0
:04021C00BD9D7B13F6
:04021D00BD9B497CC0
:04021E00BD9920F274
:04021F00BD97024F36
:04022000BD94ECD9C4
:04022100BD92E0B7F3
:04022200BD90DDE0CE
:04022300BD8EE2E5C5
:04022400BD8CF17B21
:04022500BD8B080481
:04022600BD8926F870
:04022700BD874D96AC
:04022800BD857D0E05
:04022900BD83B3B727
:04022A00BD81F1F2AF
:04022B00BD80380B4F
:04022C00BD7D0A1674
:04022D00BD79B2FDE8
:04022E00BD7669C26E
:04022F00BD732E0C61
:04023000BD6FFFDFC0
:04023100BD6CDF12AF
:04023200BD69CBA631
:04023300BD66C4E1FF
:04023400BD63CA34A8
:04023500BD60DC5D6F
:04023600BD5DFA6B45
:04023700BD5B23F98F
:04023800BD58590450
:04023900BD559A1500
:04023A00BD52E4E4E9
:04023B00BD503BACCB
:04023C00BD4D9CE038
:04023D00BD4B08A706
:04023E00BD487F89AF
:04023F00BD45FF2D8D
:04024000BD438940F1
:04024100BD411D514D
:04024200BD3EBBB84A
:04024300BD3C61DD80
:04024400BD3A126746
:04024500BD37CB8670
:04024600BD358DBB7A
:04024700BD335891DA
:04024800BD312BF3A6
:04024900BD2F079826
:04024A00BD2CEB6C70
:04024B00BD2AD7BF32
:04024C00BD28CC46B7
:04024D00BD26C850B2
:04024E00BD24CB5DA3
:04024F00BD22D6BD39
:04025000BD20E9BB29
:04025100BD1F033991
:04025200BD1D245357
:04025300BD1B4C86FD
:04025400BD197B173E
:04025500BD17B125FB
:04025600BD15ECECFA
:04025700BD142FF3B0
:04025800BD12797DDD
:04025900BD10C96C9F
:04025A00BD0F1EFEB8
:04025B00BD0D7B5208
:04025C00BD0BDD08F1
:04025D00BD0A450889
:04025E00BD08B28E97
:04025F00BD0725AD05
:04026000BD059F52E7
:04026100BD041DA516
:04026200BD02A1092F
:04026300BD012A8629
:04026400BCFF731256
:04026500BCFC99B391
:04026600BCF9CAC74E
:04026700BCF7066F6B
:04026800BCF44BEDAA
:04026900BCF19AF456
:04026A00BCEEF32DC6
:04026B00BCEC536A2A
:04026C00BCE9BED952
:04026D00BCE7328335
:04026E00BCE4AEBF7F
:04026F00BCE233DDDD
:04027000BCDFC1FC32
:04027100BCDD57A6F3
:04027200BCDAF7A556
:04027300BCD89D9ABC
:04027400BCD64CBFE9
:04027500BCD4039B57
:04027600BCD1C1D660
:04027700BCCF88A5CB
:04027800BCCD55693B
:04027900BCCB2AF4DC
:04027A00BCC9074DA7
:04027B00BCC6EA53C0
:04027C00BCC4D579B0
:04027D00BCC2C68AAF
:04027E00BCC0BFAC95
:04027F00BCBEBF1F23
:04028000BCBCC47EC0
:04028100BCBAD17BB7
:04028200BCB8E4140C
:04028300BCB6FD0FF9
:04028400BCB51D31B7
:04028500BCB3427153
:04028600BCB16E8910
:04028700BCAF9FA4C5
:04028800BCADD77DB5
:04028900BCAC1442B3
:04028A00BCAA572F84
:04028B00BCA89FDE8E
:04028C00BCA6EE9C82
:04028D00BCA54117B4
:04028E00BCA39A76FD
:04028F00BCA1F8A670
:04029000BCA05C2F83
:04029100BC9EC466E5
:04029200BC9D31D509
:04029300BC9BA50665
:04029400BC9A1C19DB
:04029500BC989795E5
:04029600BC9718C039
:04029700BC959E7004
:04029800BC9428B337
:04029900BC92B792CA
:04029A00BC914B1FA9
:04029B00BC8FE265CD
:04029C00BC8E7EF0A6
:04029D00BC8D1F4CA9
:04029E00BC8BC386CC
:04029F00BC8A6C6B3E
:0402A000BC89198478
:0402A100BC87CA5DEF
:0402A200BC867F4156
:0402A300BC853738A7
:0402A400BC83F5160C
:0402A500BC82B4D88B
:0402A600BC8179118D
:0402A700BC8041498D
:0402A800BC7E1A53AB
:0402A900BC7BB7AEB5
:0402AA00BC795E8D30
:0402AB00BC770B2BE6
:0402AC00BC74BD98C9
:0402AD00BC72798422
:0402AE00BC70395493
:0402AF00BC6E0244DB
:0402B000BC6BD04211
:0402B100BC69A52F50
:0402B200BC67801293
:0402B300BC65618144
:0402B400BC634A15C8
:0402B500BC6136F8FA
:0402B600BC5F2B1FDF
:0402B700BC5D23F710
:0402B800BC5B24BE49
:0402B900BC5929CA39
:0402BA00BC57348079
:0402BB00BC554533B6
:0402BC00BC535C359E
:0402BD00BC5176E7D3
:0402BE00BC4F98D5C4
:0402BF00BC4DBFA1D2
:0402C000BC4BEB5AEE
:0402C100BC4A1C0B0C
:0402C200BC4851C221
:0402C300BC468DA206
:0402C400BC44CD0069
:0402C500BC4311899C
:0402C600BC415C6477
:0402C700BC3FAAE1AD
:0402C800BC3DFD96A6
:0402C900BC3C567E65
:0402CA00BC3AB3B5D2
:0402CB00BC3913A087
:0402CC00BC377A6F52
:0402CD00BC35E44E0A
:0402CE00BC3451D219
:0402CF00BC32C4B5C4
:0402D000BC313BE220
:0402D100BC2FB7F691
:0402D200BC2E379275
:0402D300BC2CBB097B
:0402D400BC2B42AD50
:0402D500BC29CE3F33
:0402D600BC285DCA19
:0402D700BC26F10D43
:0402D800BC2588EDCC
:0402D900BC2423BF5F
:0402DA00BC22C21C64
:0402DB00BC2164EAF4
:0402DC00BC200AC375
:0402DD00BC1EB5206E
:0402DE00BC1D61BC26
:0402DF00BC1C1336FA
:0402E000BC1AC794E9
:0402E100BC197F269F
:0402E200BC183AD436
:0402E300BC16F9C884
:0402E400BC15BADEAD
:0402E500BC147FDDE9
:0402E600BC13488479
:0402E700BC121444ED
:0402E800BC10E2D98B
:0402E900BC0FB44A48
:0402EA00BC0E893687
:0402EB00BC0D610DD8
:0402EC00BC0C3C22E8
:0402ED00BC0B1A7BB1
:0402EE00BC09FAF05D
:0402EF00BC08DE6CFD
:0402F000BC07C4A7DC
:0402F100BC06AF2A6E
:0402F200BC059A614C
:0402F300BC0489A01E
:0402F400BC037BBA12
:0402F500BC026F597F
:0402F600BC0166A140
:0402F700BC00606384
:0402F800BBFEB94749
:0402F900BBFCB5E8AD
:0402FA00BBFAB8880B
:0402FB00BBF8BFADE0
:0402FC00BBF6CD3749
:0402FD00BBF4DE72FE
:0402FE00BBF2F4510A
:0402FF00BBF10EE160
:04030000BBEE5EA54D
:04030100BBEAB0148F
:04030200BBE71371D1
:04030300BBE388448C
:04030400BBE00E8FBD
:04030500BBDCA69A1D
:04030600BBD94ECF42
:04030700BBD60682D9
:04030800BBD2CE9BFB
:04030900BBCFA59E23
:04030A00BBCC8BA538
:04030B00BBC98118D1
:04030C00BBC68541A6
:04030D00BBC3964494
:04030E00BBC0B67644
:04030F00BBBDE3503F
:04031000BBBB1D87CF
:04031100BBB86455BC
:04031200BBB5B81CA3
:04031300BBB318114F
:04031400BBB0843FB7
:04031500BBADFC81FF
:04031600BBAB8033CA
:04031700BBA90EAEC2
:04031800BBA6A8A038
:04031900BBA44DE153
:04031A00BBA1FD196D
:04031B00BB9FB71CB1
:04031C00BB9D7B13F7
:04031D00BB9B497CC1
:04031E00BB9920F275
:04031F00BB97024F37
:04032000BB94ECD9C5
:04032100BB92E0B7F4
:04032200BB90DDE0CF
:04032300BB8EE2E5C6
:04032400BB8CF17B22
:04032500BB8B080482
:04032600BB8926F871
:04032700BB874D96AD
:04032800BB857D0E06
:04032900BB83B3B728
:04032A00BB81F1F2B0
:04032B00BB80380B50
:04032C00BB7D0A1675
:04032D00BB79B2FDE9
:04032E00BB7669C26F
:04032F00BB732E0C62
:04033000BB6FFFDFC1
:04033100BB6CDF12B0
:04033200BB69CBA632
:04033300BB66C4E100
:04033400BB63CA34A9
:04033500BB60DC5D70
:04033600BB5DFA6B46
:04033700BB5B23F990
:04033800BB58590451
:04033900BB559A1501
:04033A00BB52E4E4EA
:04033B00BB503BACCC
:04033C00BB4D9CE039
:04033D00BB4B08A707
:04033E00BB487F89B0
:04033F00BB45FF2D8E
:04034000BB438940F2
:04034100BB411D514E
:04034200BB3EBBB84B
:04034300BB3C61DD81
:04034400BB3A126747
:04034500BB37CB8671
:04034600BB358DBB7B
:04034700BB335891DB
:04034800BB312BF3A7
:04034900BB2F079827
:04034A00BB2CEB6C71
:04034B00BB2AD7BF33
:04034C00BB28CC46B8
:04034D00BB26C850B3
:04034E00BB24CB5DA4
:04034F00BB22D6BD3A
:04035000BB20E9BB2A
:04035100BB1F033992
:04035200BB1D245358
:04035300BB1B4C86FE
:04035400BB197B173F
:04035500BB17B125FC
:04035600BB15ECECFB
:04035700BB142FF3B1
:04035800BB12797DDE
:04035900BB10C96CA0
:04035A00BB0F1EFEB9
:04035B00BB0D7B5209
:04035C00BB0BDD08F2
:04035D00BB0A45088A
:04035E00BB08B28E98
:04035F00BB0725AD06
:04036000BB059F52E8
:04036100BB041DA517
:04036200BB02A10930
:04036300BB012A862A
:04036400BAFF731257
:04036500BAFC99B392
:04036600BAF9CAC74F
:04036700BAF7066F6C
:04036800BAF44BEDAB
:04036900BAF19AF457
:04036A00BAEEF32DC7
:04036B00BAEC536A2B
:04036C00BAE9BED953
:04036D00BAE7328336
:04036E00BAE4AEBF80
:04036F00BAE233DDDE
:04037000BADFC1FC33
:04037100BADD57A6F4
:04037200BADAF7A557
:04037300BAD89D9ABD
:04037400BAD64CBFEA
:04037500BAD4039B58
:04037600BAD1C1D661
:04037700BACF88A5CC
:04037800BACD55693C
:04037900BACB2AF4DD
:04037A00BAC9074DA8
:04037B00BAC6EA53C1
:04037C00BAC4D579B1
:04037D00BAC2C68AB0
:04037E00BAC0BFAC96
:04037F00BABEBF1F24
:04038000BABCC47EC1
:04038100BABAD17BB8
:04038200BAB8E4140D
:04038300BAB6FD0FFA
:04038400BAB51D31B8
:04038500BAB3427154
:04038600BAB16E8911
:04038700BAAF9FA4C6
:04038800BAADD77DB6
:04038900BAAC1442B4
:04038A00BAAA572F85
:04038B00BAA89FDE8F
:04038C00BAA6EE9C83
:04038D00BAA54117B5
:04038E00BAA39A76FE
:04038F00BAA1F8A671
:04039000BAA05C2F84
:04039100BA9EC466E6
:04039200BA9D31D50A
:04039300BA9BA50666
:04039400BA9A1C19DC
:04039500BA989795E6
:04039600BA9718C03A
:04039700BA959E7005
:04039800BA9428B338
:04039900BA92B792CB
:04039A00BA914B1FAA
:04039B00BA8FE265CE
:04039C00BA8E7EF0A7
:04039D00BA8D1F4CAA
:04039E00BA8BC386CD
:04039F00BA8A6C6B3F
:0403A000BA89198479
:0403A100BA87CA5DF0
:0403A200BA867F4157
:0403A300BA853738A8
:0403A400BA83F5160D
:0403A500BA82B4D88C
:0403A600BA8179118E
:0403A700BA8041498E
:0403A800BA7E1A53AC
:0403A900BA7BB7AEB6
:0403AA00BA795E8D31
:0403AB00BA770B2BE7
:0403AC00BA74BD98CA
:0403AD00BA72798423
:0403AE00BA70395494
:0403AF00BA6E0244DC
:0403B000BA6BD04212
:0403B100BA69A52F51
:0403B200BA67801294
:0403B300BA65618145
:0403B400BA634A15C9
:0403B500BA6136F8FB
:0403B600BA5F2B1FE0
:0403B700BA5D23F711
:0403B800BA5B24BE4A
:0403B900BA5929CA3A
:0403BA00BA5734807A
:0403BB00BA554533B7
:0403BC00BA535C359F
:0403BD00BA5176E7D4
:0403BE00BA4F98D5C5
:0403BF00BA4DBFA1D3
:0403C000BA4BEB5AEF
:0403C100BA4A1C0B0D
:0403C200BA4851C222
:0403C300BA468DA207
:0403C400BA44CD006A
:0403C500BA4311899D
:0403C600BA415C6478
:0403C700BA3FAAE1AE
:0403C800BA3DFD96A7
:0403C900BA3C567E66
:0403CA00BA3AB3B5D3
:0403CB00BA3913A088
:0403CC00BA377A6F53
:0403CD00BA35E44E0B
:0403CE00BA3451D21A
:0403CF00BA32C4B5C5
:0403D000BA313BE221
:0403D100BA2FB7F692
:0403D200BA2E379276
:0403D300BA2CBB097C
:0403D400BA2B42AD51
:0403D500BA29CE3F34
:0403D600BA285DCA1A
:0403D700BA26F10D44
:0403D800BA2588EDCD
:0403D900BA2423BF60
:0403DA00BA22C21C65
:0403DB00BA2164EAF5
:0403DC00BA200AC376
:0403DD00BA1EB5206F
:0403DE00BA1D61BC27
:0403DF00BA1C1336FB
:0403E000BA1AC794EA
:0403E100BA197F26A0
:0403E200BA183AD437
:0403E300BA16F9C885
:0403E400BA15BADEAE
:0403E500BA147FDDEA
:0403E600BA1348847A
:0403E700BA121444EE
:0403E800BA10E2D98C
:0403E900BA0FB44A49
:0403EA00BA0E893688
:0403EB00BA0D610DD9
:0403EC00BA0C3C22E9
:0403ED00BA0B1A7BB2
:0403EE00BA09FAF05E
:0403EF00BA08DE6CFE
:0403F000BA07C4A7DD
:0403F100BA06AF2A6F
:0403F200BA059A614D
:0403F300BA0489A01F
:0403F400BA037BBA13
:0403F500BA026F5980
:0403F600BA0166A141
:0403F700BA00606385
:0403F800B9FEB9474A
:0403F900B9FCB5E8AE
:0403FA00B9FAB8880C
:0403FB00B9F8BFADE1
:0403FC00B9F6CD374A
:0403FD00B9F4DE72FF
:0403FE00B9F2F4510B
:0403FF00B9F10EE161
:04040000B9EE5EA54E
:04040100B9EAB01490
:04040200B9E71371D2
:04040300B9E388448D
:04040400B9E00E8FBE
:04040500B9DCA69A1E
:04040600B9D94ECF43
:04040700B9D60682DA
:04040800B9D2CE9BFC
:04040900B9CFA59E24
:04040A00B9CC8BA539
:04040B00B9C98118D2
:04040C00B9C68541A7
:04040D00B9C3964495
:04040E00B9C0B67645
:04040F00B9BDE35040
:04041000B9BB1D87D0
:04041100B9B86455BD
:04041200B9B5B81CA4
:04041300B9B3181150
:04041400B9B0843FB8
:04041500B9ADFC8100
:04041600B9AB8033CB
:04041700B9A90EAEC3
:04041800B9A6A8A039
:04041900B9A44DE154
:04041A00B9A1FD196E
:04041B00B99FB71CB2
:04041C00B99D7B13F8
:04041D00B99B497CC2
:04041E00B99920F276
:04041F00B997024F38
:04042000B994ECD9C6
:04042100B992E0B7F5
:04042200B990DDE0D0
:04042300B98EE2E5C7
:04042400B98CF17B23
:04042500B98B080483
:04042600B98926F872
:04042700B9874D96AE
:04042800B9857D0E07
:04042900B983B3B729
:04042A00B981F1F2B1
:04042B00B980380B51
:04042C00B97D0A1676
:04042D00B979B2FDEA
:04042E00B97669C270
:04042F00B9732E0C63
:04043000B96FFFDFC2
:04043100B96CDF12B1
:04043200B969CBA633
:04043300B966C4E101
:04043400B963CA34AA
:04043500B960DC5D71
:04043600B95DFA6B47
:04043700B95B23F991
:04043800B958590452
:04043900B9559A1502
:04043A00B952E4E4EB
:04043B00B9503BACCD
:04043C00B94D9CE03A
:04043D00B94B08A708
:04043E00B9487F89B1
:04043F00B945FF2D8F
:04044000B9438940F3
:04044100B9411D514F
:04044200B93EBBB84C
:04044300B93C61DD82
:04044400B93A126748
:04044500B937CB8672
:04044600B9358DBB7C
:04044700B9335891DC
:04044800B9312BF3A8
:04044900B92F079828
:04044A00B92CEB6C72
:04044B00B92AD7BF34
:04044C00B928CC46B9
:04044D00B926C850B4
:04044E00B924CB5DA5
:04044F00B922D6BD3B
:04045000B920E9BB2B
:04045100B91F033993
:04045200B91D245359
:04045300B91B4C86FF
:04045400B9197B1740
:04045500B917B125FD
:04045600B915ECECFC
:04045700B9142FF3B2
:04045800B912797DDF
:04045900B910C96CA1
:04045A00B90F1EFEBA
:04045B00B90D7B520A
:04045C00B90BDD08F3
:04045D00B90A45088B
:04045E00B908B28E99
:04045F00B90725AD07
:04046000B9059F52E9
:04046100B9041DA518
:04046200B902A10931
:04046300B9012A862B
:04046400B8FF731258
:04046500B8FC99B393
:04046600B8F9CAC750
:04046700B8F7066F6D
:04046800B8F44BEDAC
:04046900B8F19AF458
:04046A00B8EEF32DC8
:04046B00B8EC536A2C
:04046C00B8E9BED954
:04046D00B8E7328337
:04046E00B8E4AEBF81
:04046F00B8E233DDDF
:04047000B8DFC1FC34
:04047100B8DD57A6F5
:04047200B8DAF7A558
:04047300B8D89D9ABE
:04047400B8D64CBFEB
:04047500B8D4039B59
:04047600B8D1C1D662
:04047700B8CF88A5CD
:04047800B8CD55693D
:04047900B8CB2AF4DE
:04047A00B8C9074DA9
:04047B00B8C6EA53C2
:04047C00B8C4D579B2
:04047D00B8C2C68AB1
:04047E00B8C0BFAC97
:04047F00B8BEBF1F25
:04048000B8BCC47EC2
:04048100B8BAD17BB9
:04048200B8B8E4140E
:04048300B8B6FD0FFB
:04048400B8B51D31B9
:04048500B8B3427155
:04048600B8B16E8912
:04048700B8AF9FA4C7
:04048800B8ADD77DB7
:04048900B8AC1442B5
:04048A00B8AA572F86
:04048B00B8A89FDE90
:04048C00B8A6EE9C84
:04048D00B8A54117B6
:04048E00B8A39A76FF
:04048F00B8A1F8A672
:04049000B8A05C2F85
:04049100B89EC466E7
:04049200B89D31D50B
:04049300B89BA50667
:04049400B89A1C19DD
:04049500B8989795E7
:04049600B89718C03B
:04049700B8959E7006
:04049800B89428B339
:04049900B892B792CC
:04049A00B8914B1FAB
:04049B00B88FE265CF
:04049C00B88E7EF0A8
:04049D00B88D1F4CAB
:04049E00B88BC386CE
:04049F00B88A6C6B40
:0404A000B88919847A
:0404A100B887CA5DF1
:0404A200B8867F4158
:0404A300B8853738A9
:0404A400B883F5160E
:0404A500B882B4D88D
:0404A600B88179118F
:0404A700B88041498F
:0404A800B87E1A53AD
:0404A900B87BB7AEB7
:0404AA00B8795E8D32
:0404AB00B8770B2BE8
:0404AC00B874BD98CB
:0404AD00B872798424
:0404AE00B870395495
:0404AF00B86E0244DD
:0404B000B86BD04213
:0404B100B869A52F52
:0404B200B867801295
:0404B300B865618146
:0404B400B8634A15CA
:0404B500B86136F8FC
:0404B600B85F2B1FE1
:0404B700B85D23F712
:0404B800B85B24BE4B
:0404B900B85929CA3B
:0404BA00B85734807B
:0404BB00B8554533B8
:0404BC00B8535C35A0
:0404BD00B85176E7D5
:0404BE00B84F98D5C6
:0404BF00B84DBFA1D4
:0404C000B84BEB5AF0
:0404C100B84A1C0B0E
:0404C200B84851C223
:0404C300B8468DA208
:0404C400B844CD006B
:0404C500B84311899E
:0404C600B8415C6479
:0404C700B83FAAE1AF
:0404C800B83DFD96A8
:0404C900B83C567E67
:0404CA00B83AB3B5D4
:0404CB00B83913A089
:0404CC00B8377A6F54
:0404CD00B835E44E0C
:0404CE00B83451D21B
:0404CF00B832C4B5C6
:0404D000B8313BE222
:0404D100B82FB7F693
:0404D200B82E379277
:0404D300B82CBB097D
:0404D400B82B42AD52
:0404D500B829CE3F35
:0404D600B8285DCA1B
:0404D700B826F10D45
:0404D800B82588EDCE
:0404D900B82423BF61
:0404DA00B822C21C66
:0404DB00B82164EAF6
:0404DC00B8200AC377
:0404DD00B81EB52070
:0404DE00B81D61BC28
:0404DF00B81C1336FC
:0404E000B81AC794EB
:0404E100B8197F26A1
:0404E200B8183AD438
:0404E300B816F9C886
:0404E400B815BADEAF
:0404E500B8147FDDEB
:0404E600B81348847B
:0404E700B8121444EF
:0404E800B810E2D98D
:0404E900B80FB44A4A
:0404EA00B80E893689
:0404EB00B80D610DDA
:0404EC00B80C3C22EA
:0404ED00B80B1A7BB3
:0404EE00B809FAF05F
:0404EF00B808DE6CFF
:0404F000B807C4A7DE
:0404F100B806AF2A70
:0404F200B8059A614E
:0404F300B80489A020
:0404F400B8037BBA14
:0404F500B8026F5981
:0404F600B80166A142
:0404F700B800606386
:0404F800B7FEB9474B
:0404F900B7FCB5E8AF
:0404FA00B7FAB8880D
:0404FB00B7F8BFADE2
:0404FC00B7F6CD374B
:0404FD00B7F4DE7200
:0404FE00B7F2F4510C
:0404FF00B7F10EE162
:04050000B7EE5EA54F
:04050100B7EAB01491
:04050200B7E71371D3
:04050300B7E388448E
:04050400B7E00E8FBF
:04050500B7DCA69A1F
:04050600B7D94ECF44
:04050700B7D60682DB
:04050800B7D2CE9BFD
:04050900B7CFA59E25
:04050A00B7CC8BA53A
:04050B00B7C98118D3
:04050C00B7C68541A8
:04050D00B7C3964496
:04050E00B7C0B67646
:04050F00B7BDE35041
:04051000B7BB1D87D1
:04051100B7B86455BE
:04051200B7B5B81CA5
:04051300B7B3181151
:04051400B7B0843FB9
:04051500B7ADFC8101
:04051600B7AB8033CC
:04051700B7A90EAEC4
:04051800B7A6A8A03A
:04051900B7A44DE155
:04051A00B7A1FD196F
:04051B00B79FB71CB3
:04051C00B79D7B13F9
:04051D00B79B497CC3
:04051E00B79920F277
:04051F00B797024F39
:04052000B794ECD9C7
:04052100B792E0B7F6
:04052200B790DDE0D1
:04052300B78EE2E5C8
:04052400B78CF17B24
:04052500B78B080484
:04052600B78926F873
:04052700B7874D96AF
:04052800B7857D0E08
:04052900B783B3B72A
:04052A00B781F1F2B2
:04052B00B780380B52
:04052C00B77D0A1677
:04052D00B779B2FDEB
:04052E00B77669C271
:04052F00B7732E0C64
:04053000B76FFFDFC3
:04053100B76CDF12B2
:04053200B769CBA634
:04053300B766C4E102
:04053400B763CA34AB
:04053500B760DC5D72
:04053600B75DFA6B48
:04053700B75B23F992
:04053800B758590453
:04053900B7559A1503
:04053A00B752E4E4EC
:04053B00B7503BACCE
:04053C00B74D9CE03B
:04053D00B74B08A709
:04053E00B7487F89B2
:04053F00B745FF2D90
:04054000B7438940F4
:04054100B7411D5150
:04054200B73EBBB84D
:04054300B73C61DD83
:04054400B73A126749
:04054500B737CB8673
:04054600B7358DBB7D
:04054700B7335891DD
:04054800B7312BF3A9
:04054900B72F079829
:04054A00B72CEB6C73
:04054B00B72AD7BF35
:04054C00B728CC46BA
:04054D00B726C850B5
:04054E00B724CB5DA6
:04054F00B722D6BD3C
:04055000B720E9BB2C
:04055100B71F033994
:04055200B71D24535A
:04055300B71B4C8600
:04055400B7197B1741
:04055500B717B125FE
:04055600B715ECECFD
:04055700B7142FF3B3
:04055800B712797DE0
:04055900B710C96CA2
:04055A00B70F1EFEBB
:04055B00B70D7B520B
:04055C00B70BDD08F4
:04055D00B70A45088C
:04055E00B708B28E9A
:04055F00B70725AD08
:04056000B7059F52EA
:04056100B7041DA519
:04056200B702A10932
:04056300B7012A862C
:04056400B6FF731259
:04056500B6FC99B394
:04056600B6F9CAC751
:04056700B6F7066F6E
:04056800B6F44BEDAD
:04056900B6F19AF459
:04056A00B6EEF32DC9
:04056B00B6EC536A2D
:04056C00B6E9BED955
:04056D00B6E7328338
:04056E00B6E4AEBF82
:04056F00B6E233DDE0
:04057000B6DFC1FC35
:04057100B6DD57A6F6
:04057200B6DAF7A559
:04057300B6D89D9ABF
:04057400B6D64CBFEC
:04057500B6D4039B5A
:04057600B6D1C1D663
:04057700B6CF88A5CE
:04057800B6CD55693E
:04057900B6CB2AF4DF
:04057A00B6C9074DAA
:04057B00B6C6EA53C3
:04057C00B6C4D579B3
:04057D00B6C2C68AB2
:04057E00B6C0BFAC98
:04057F00B6BEBF1F26
:04058000B6BCC47EC3
:04058100B6BAD17BBA
:04058200B6B8E4140F
:04058300B6B6FD0FFC
:04058400B6B51D31BA
:04058500B6B3427156
:04058600B6B16E8913
:04058700B6AF9FA4C8
:04058800B6ADD77DB8
:04058900B6AC1442B6
:04058A00B6AA572F87
:04058B00B6A89FDE91
:04058C00B6A6EE9C85
:04058D00B6A54117B7
:04058E00B6A39A7600
:04058F00B6A1F8A673
:04059000B6A05C2F86
:04059100B69EC466E8
:04059200B69D31D50C
:04059300B69BA50668
:04059400B69A1C19DE
:04059500B6989795E8
:04059600B69718C03C
:04059700B6959E7007
:04059800B69428B33A
:04059900B692B792CD
:04059A00B6914B1FAC
:04059B00B68FE265D0
:04059C00B68E7EF0A9
:04059D00B68D1F4CAC
:04059E00B68BC386CF
:04059F00B68A6C6B41
:0405A000B68919847B
:0405A100B687CA5DF2
:0405A200B6867F4159
:0405A300B6853738AA
:0405A400B683F5160F
:0405A500B682B4D88E
:0405A600B681791190
:0405A700B680414990
:0405A800B67E1A53AE
:0405A900B67BB7AEB8
:0405AA00B6795E8D33
:0405AB00B6770B2BE9
:0405AC00B674BD98CC
:0405AD00B672798425
:0405AE00B670395496
:0405AF00B66E0244DE
:0405B000B66BD04214
:0405B100B669A52F53
:0405B200B667801296
:0405B300B665618147
:0405B400B6634A15CB
:0405B500B66136F8FD
:0405B600B65F2B1FE2
:0405B700B65D23F713
:0405B800B65B24BE4C
:0405B900B65929CA3C
:0405BA00B65734807C
:0405BB00B6554533B9
:0405BC00B6535C35A1
:0405BD00B65176E7D6
:0405BE00B64F98D5C7
:0405BF00B64DBFA1D5
:0405C000B64BEB5AF1
:0405C100B64A1C0B0F
:0405C200B64851C224
:0405C300B6468DA209
:0405C400B644CD006C
:0405C500B64311899F
:0405C600B6415C647A
:0405C700B63FAAE1B0
:0405C800B63DFD96A9
:0405C900B63C567E68
:0405CA00B63AB3B5D5
:0405CB00B63913A08A
:0405CC00B6377A6F55
:0405CD00B635E44E0D
:0405CE00B63451D21C
:0405CF00B632C4B5C7
:0405D000B6313BE223
:0405D100B62FB7F694
:0405D200B62E379278
:0405D300B62CBB097E
:0405D400B62B42AD53
:0405D500B629CE3F36
:0405D600B6285DCA1C
:0405D700B626F10D46
:0405D800B62588EDCF
:0405D900B62423BF62
:0405DA00B622C21C67
:0405DB00B62164EAF7
:0405DC00B6200AC378
:0405DD00B61EB52071
:0405DE00B61D61BC29
:0405DF00B61C1336FD
:0405E000B61AC794EC
:0405E100B6197F26A2
:0405E200B6183AD439
:0405E300B616F9C887
:0405E400B615BADEB0
:0405E500B6147FDDEC
:0405E600B61348847C
:0405E700B6121444F0
:0405E800B610E2D98E
:0405E900B60FB44A4B
:0405EA00B60E89368A
:0405EB00B60D610DDB
:0405EC00B60C3C22EB
:0405ED00B60B1A7BB4
:0405EE00B609FAF060
:0405EF00B608DE6C00
:0405F000B607C4A7DF
:0405F100B606AF2A71
:0405F200B6059A614F
:0405F300B60489A021
:0405F400B6037BBA15
:0405F500B6026F5982
:0405F600B60166A143
:0405F700B600606387
:0405F800B5FEB9474C
:0405F900B5FCB5E8B0
:0405FA00B5FAB8880E
:0405FB00B5F8BFADE3
:0405FC00B5F6CD374C
:0405FD00B5F4DE7201
:0405FE00B5F2F4510D
:0405FF00B5F10EE163
:04060000B5EE5EA550
:04060100B5EAB01492
:04060200B5E71371D4
:04060300B5E388448F
:04060400B5E00E8FC0
:04060500B5DCA69A20
:04060600B5D94ECF45
:04060700B5D60682DC
:04060800B5D2CE9BFE
:04060900B5CFA59E26
:04060A00B5CC8BA53B
:04060B00B5C98118D4
:04060C00B5C68541A9
:04060D00B5C3964497
:04060E00B5C0B67647
:04060F00B5BDE35042
:04061000B5BB1D87D2
:04061100B5B86455BF
:04061200B5B5B81CA6
:04061300B5B3181152
:04061400B5B0843FBA
:04061500B5ADFC8102
:04061600B5AB8033CD
:04061700B5A90EAEC5
:04061800B5A6A8A03B
:04061900B5A44DE156
:04061A00B5A1FD1970
:04061B00B59FB71CB4
:04061C00B59D7B13FA
:04061D00B59B497CC4
:04061E00B59920F278
:04061F00B597024F3A
:04062000B594ECD9C8
:04062100B592E0B7F7
:04062200B590DDE0D2
:04062300B58EE2E5C9
:04062400B58CF17B25
:04062500B58B080485
:04062600B58926F874
:04062700B5874D96B0
:04062800B5857D0E09
:04062900B583B3B72B
:04062A00B581F1F2B3
:04062B00B580380B53
:04062C00B57D0A1678
:04062D00B579B2FDEC
:04062E00B57669C272
:04062F00B5732E0C65
:04063000B56FFFDFC4
:04063100B56CDF12B3
:04063200B569CBA635
:04063300B566C4E103
:04063400B563CA34AC
:04063500B560DC5D73
:04063600B55DFA6B49
:04063700B55B23F993
:04063800B558590454
:04063900B5559A1504
:04063A00B552E4E4ED
:04063B00B5503BACCF
:04063C00B54D9CE03C
:04063D00B54B08A70A
:04063E00B5487F89B3
:04063F00B545FF2D91
:04064000B5438940F5
:04064100B5411D5151
:04064200B53EBBB84E
:04064300B53C61DD84
:04064400B53A12674A
:04064500B537CB8674
:04064600B5358DBB7E
:04064700B5335891DE
:04064800B5312BF3AA
:04064900B52F07982A
:04064A00B52CEB6C74
:04064B00B52AD7BF36
:04064C00B528CC46BB
:04064D00B526C850B6
:04064E00B524CB5DA7
:04064F00B522D6BD3D
:04065000B520E9BB2D
:04065100B51F033995
:04065200B51D24535B
:04065300B51B4C8601
:04065400B5197B1742
:04065500B517B125FF
:04065600B515ECECFE
:04065700B5142FF3B4
:04065800B512797DE1
:04065900B510C96CA3
:04065A00B50F1EFEBC
:04065B00B50D7B520C
:04065C00B50BDD08F5
:04065D00B50A45088D
:04065E00B508B28E9B
:04065F00B50725AD09
:04066000B5059F52EB
:04066100B5041DA51A
:04066200B502A10933
:04066300B5012A862D
:04066400B4FF73125A
:04066500B4FC99B395
:04066600B4F9CAC752
:04066700B4F7066F6F
:04066800B4F44BEDAE
:04066900B4F19AF45A
:04066A00B4EEF32DCA
:04066B00B4EC536A2E
:04066C00B4E9BED956
:04066D00B4E7328339
:04066E00B4E4AEBF83
:04066F00B4E233DDE1
:04067000B4DFC1FC36
:04067100B4DD57A6F7
:04067200B4DAF7A55A
:04067300B4D89D9AC0
:04067400B4D64CBFED
:04067500B4D4039B5B
:04067600B4D1C1D664
:04067700B4CF88A5CF
:04067800B4CD55693F
:04067900B4CB2AF4E0
:04067A00B4C9074DAB
:04067B00B4C6EA53C4
:04067C00B4C4D579B4
:04067D00B4C2C68AB3
:04067E00B4C0BFAC99
:04067F00B4BEBF1F27
:04068000B4BCC47EC4
:04068100B4BAD17BBB
:04068200B4B8E41410
:04068300B4B6FD0FFD
:04068400B4B51D31BB
:04068500B4B3427157
:04068600B4B16E8914
:04068700B4AF9FA4C9
:04068800B4ADD77DB9
:04068900B4AC1442B7
:04068A00B4AA572F88
:04068B00B4A89FDE92
:04068C00B4A6EE9C86
:04068D00B4A54117B8
:04068E00B4A39A7601
:04068F00B4A1F8A674
:04069000B4A05C2F87
:04069100B49EC466E9
:04069200B49D31D50D
:04069300B49BA50669
:04069400B49A1C19DF
:04069500B4989795E9
:04069600B49718C03D
:04069700B4959E7008
:04069800B49428B33B
:04069900B492B792CE
:04069A00B4914B1FAD
:04069B00B48FE265D1
:04069C00B48E7EF0AA
:04069D00B48D1F4CAD
:04069E00B48BC386D0
:04069F00B48A6C6B42
:0406A000B48919847C
:0406A100B487CA5DF3
:0406A200B4867F415A
:0406A300B4853738AB
:0406A400B483F51610
:0406A500B482B4D88F
:0406A600B481791191
:0406A700B480414991
:0406A800B47E1A53AF
:0406A900B47BB7AEB9
:0406AA00B4795E8D34
:0406AB00B4770B2BEA
:0406AC00B474BD98CD
:0406AD00B472798426
:0406AE00B470395497
:0406AF00B46E0244DF
:0406B000B46BD04215
:0406B100B469A52F54
:0406B200B467801297
:0406B300B465618148
:0406B400B4634A15CC
:0406B500B46136F8FE
:0406B600B45F2B1FE3
:0406B700B45D23F714
:0406B800B45B24BE4D
:0406B900B45929CA3D
:0406BA00B45734807D
:0406BB00B4554533BA
:0406BC00B4535C35A2
:0406BD00B45176E7D7
:0406BE00B44F98D5C8
:0406BF00B44DBFA1D6
:0406C000B44BEB5AF2
:0406C100B44A1C0B10
:0406C200B44851C225
:0406C300B4468DA20A
:0406C400B444CD006D
:0406C500B4431189A0
:0406C600B4415C647B
:0406C700B43FAAE1B1
:0406C800B43DFD96AA
:0406C900B43C567E69
:0406CA00B43AB3B5D6
:0406CB00B43913A08B
:0406CC00B4377A6F56
:0406CD00B435E44E0E
:0406CE00B43451D21D
:0406CF00B432C4B5C8
:0406D000B4313BE224
:0406D100B42FB7F695
:0406D200B42E379279
:0406D300B42CBB097F
:0406D400B42B42AD54
:0406D500B429CE3F37
:0406D600B4285DCA1D
:0406D700B426F10D47
:0406D800B42588EDD0
:0406D900B42423BF63
:0406DA00B422C21C68
:0406DB00B42164EAF8
:0406DC00B4200AC379
:0406DD00B41EB52072
:0406DE00B41D61BC2A
:0406DF00B41C1336FE
:0406E000B41AC794ED
:0406E100B4197F26A3
:0406E200B4183AD43A
:0406E300B416F9C888
:0406E400B415BADEB1
:0406E500B4147FDDED
:0406E600B41348847D
:0406E700B4121444F1
:0406E800B410E2D98F
:0406E900B40FB44A4C
:0406EA00B40E89368B
:0406EB00B40D610DDC
:0406EC00B40C3C22EC
:0406ED00B40B1A7BB5
:0406EE00B409FAF061
:0406EF00B408DE6C01
:0406F000B407C4A7E0
:0406F100B406AF2A72
:0406F200B4059A6150
:0406F300B40489A022
:0406F400B4037BBA16
:0406F500B4026F5983
:0406F600B40166A144
:0406F700B400606388
:0406F800B3FEB9474D
:0406F900B3FCB5E8B1
:0406FA00B3FAB8880F
:0406FB00B3F8BFADE4
:0406FC00B3F6CD374D
:0406FD00B3F4DE7202
:0406FE00B3F2F4510E
:0406FF00B3F10EE164
:04070000B3EE5EA551
:04070100B3EAB01493
:04070200B3E71371D5
:04070300B3E3884490
:04070400B3E00E8FC1
:04070500B3DCA69A21
:04070600B3D94ECF46
:04070700B3D60682DD
:04070800B3D2CE9BFF
:04070900B3CFA59E27
:04070A00B3CC8BA53C
:04070B00B3C98118D5
:04070C00B3C68541AA
:04070D00B3C3964498
:04070E00B3C0B67648
:04070F00B3BDE35043
:04071000B3BB1D87D3
:04071100B3B86455C0
:04071200B3B5B81CA7
:04071300B3B3181153
:04071400B3B0843FBB
:04071500B3ADFC8103
:04071600B3AB8033CE
:04071700B3A90EAEC6
:04071800B3A6A8A03C
:04071900B3A44DE157
:04071A00B3A1FD1971
:04071B00B39FB71CB5
:04071C00B39D7B13FB
:04071D00B39B497CC5
:04071E00B39920F279
:04071F00B397024F3B
:04072000B394ECD9C9
:04072100B392E0B7F8
:04072200B390DDE0D3
:04072300B38EE2E5CA
:04072400B38CF17B26
:04072500B38B080486
:04072600B38926F875
:04072700B3874D96B1
:04072800B3857D0E0A
:04072900B383B3B72C
:04072A00B381F1F2B4
:04072B00B380380B54
:04072C00B37D0A1679
:04072D00B379B2FDED
:04072E00B37669C273
:04072F00B3732E0C66
:04073000B36FFFDFC5
:04073100B36CDF12B4
:04073200B369CBA636
:04073300B366C4E104
:04073400B363CA34AD
:04073500B360DC5D74
:04073600B35DFA6B4A
:04073700B35B23F994
:04073800B358590455
:04073900B3559A1505
:04073A00B352E4E4EE
:04073B00B3503BACD0
:04073C00B34D9CE03D
:04073D00B34B08A70B
:04073E00B3487F89B4
:04073F00B345FF2D92
:04074000B3438940F6
:04074100B3411D5152
:04074200B33EBBB84F
:04074300B33C61DD85
:04074400B33A12674B
:04074500B337CB8675
:04074600B3358DBB7F
:04074700B3335891DF
:04074800B3312BF3AB
:04074900B32F07982B
:04074A00B32CEB6C75
:04074B00B32AD7BF37
:04074C00B328CC46BC
:04074D00B326C850B7
:04074E00B324CB5DA8
:04074F00B322D6BD3E
:04075000B320E9BB2E
:04075100B31F033996
:04075200B31D24535C
:04075300B31B4C8602
:04075400B3197B1743
:04075500B317B12500
:04075600B315ECECFF
:04075700B3142FF3B5
:04075800B312797DE2
:04075900B310C96CA4
:04075A00B30F1EFEBD
:04075B00B30D7B520D
:04075C00B30BDD08F6
:04075D00B30A45088E
:04075E00B308B28E9C
:04075F00B30725AD0A
:04076000B3059F52EC
:04076100B3041DA51B
:04076200B302A10934
:04076300B3012A862E
:04076400B2FF73125B
:04076500B2FC99B396
:04076600B2F9CAC753
:04076700B2F7066F70
:04076800B2F44BEDAF
:04076900B2F19AF45B
:04076A00B2EEF32DCB
:04076B00B2EC536A2F
:04076C00B2E9BED957
:04076D00B2E732833A
:04076E00B2E4AEBF84
:04076F00B2E233DDE2
:04077000B2DFC1FC37
:04077100B2DD57A6F8
:04077200B2DAF7A55B
:04077300B2D89D9AC1
:04077400B2D64CBFEE
:04077500B2D4039B5C
:04077600B2D1C1D665
:04077700B2CF88A5D0
:04077800B2CD556940
:04077900B2CB2AF4E1
:04077A00B2C9074DAC
:04077B00B2C6EA53C5
:04077C00B2C4D579B5
:04077D00B2C2C68AB4
:04077E00B2C0BFAC9A
:04077F00B2BEBF1F28
:04078000B2BCC47EC5
:04078100B2BAD17BBC
:04078200B2B8E41411
:04078300B2B6FD0FFE
:04078400B2B51D31BC
:04078500B2B3427158
:04078600B2B16E8915
:04078700B2AF9FA4CA
:04078800B2ADD77DBA
:04078900B2AC1442B8
:04078A00B2AA572F89
:04078B00B2A89FDE93
:04078C00B2A6EE9C87
:04078D00B2A54117B9
:04078E00B2A39A7602
:04078F00B2A1F8A675
:04079000B2A05C2F88
:04079100B29EC466EA
:04079200B29D31D50E
:04079300B29BA5066A
:04079400B29A1C19E0
:04079500B2989795EA
:04079600B29718C03E
:04079700B2959E7009
:04079800B29428B33C
:04079900B292B792CF
:04079A00B2914B1FAE
:04079B00B28FE265D2
:04079C00B28E7EF0AB
:04079D00B28D1F4CAE
:04079E00B28BC386D1
:04079F00B28A6C6B43
:0407A000B28919847D
:0407A100B287CA5DF4
:0407A200B2867F415B
:0407A300B2853738AC
:0407A400B283F51611
:0407A500B282B4D890
:0407A600B281791192
:0407A700B280414992
:0407A800B27E1A53B0
:0407A900B27BB7AEBA
:0407AA00B2795E8D35
:0407AB00B2770B2BEB
:0407AC00B274BD98CE
:0407AD00B272798427
:0407AE00B270395498
:0407AF00B26E0244E0
:0407B000B26BD04216
:0407B100B269A52F55
:0407B200B267801298
:0407B300B265618149
:0407B400B2634A15CD
:0407B500B26136F8FF
:0407B600B25F2B1FE4
:0407B700B25D23F715
:0407B800B25B24BE4E
:0407B900B25929CA3E
:0407BA00B25734807E
:0407BB00B2554533BB
:0407BC00B2535C35A3
:0407BD00B25176E7D8
:0407BE00B24F98D5C9
:0407BF00B24DBFA1D7
:0407C000B24BEB5AF3
:0407C100B24A1C0B11
:0407C200B24851C226
:0407C300B2468DA20B
:0407C400B244CD006E
:0407C500B2431189A1
:0407C600B2415C647C
:0407C700B23FAAE1B2
:0407C800B23DFD96AB
:0407C900B23C567E6A
:0407CA00B23AB3B5D7
:0407CB00B23913A08C
:0407CC00B2377A6F57
:0407CD00B235E44E0F
:0407CE00B23451D21E
:0407CF00B232C4B5C9
:0407D000B2313BE225
:0407D100B22FB7F696
:0407D200B22E37927A
:0407D300B22CBB0980
:0407D400B22B42AD55
:0407D500B229CE3F38
:0407D600B2285DCA1E
:0407D700B226F10D48
:0407D800B22588EDD1
:0407D900B22423BF64
:0407DA00B222C21C69
:0407DB00B22164EAF9
:0407DC00B2200AC37A
:0407DD00B21EB52073
:0407DE00B21D61BC2B
:0407DF00B21C1336FF
:0407E000B21AC794EE
:0407E100B2197F26A4
:0407E200B2183AD43B
:0407E300B216F9C889
:0407E400B215BADEB2
:0407E500B2147FDDEE
:0407E600B21348847E
:0407E700B2121444F2
:0407E800B210E2D990
:0407E900B20FB44A4D
:0407EA00B20E89368C
:0407EB00B20D610DDD
:0407EC00B20C3C22ED
:0407ED00B20B1A7BB6
:0407EE00B209FAF062
:0407EF00B208DE6C02
:0407F000B207C4A7E1
:0407F100B206AF2A73
:0407F200B2059A6151
:0407F300B20489A023
:0407F400B2037BBA17
:0407F500B2026F5984
:0407F600B20166A145
:0407F700B200606389
:0407F800B1FEB9474E
:0407F900B1FCB5E8B2
:0407FA00B1FAB88810
:0407FB00B1F8BFADE5
:0407FC00B1F6CD374E
:0407FD00B1F4DE7203
:0407FE00B1F2F4510F
:0407FF00B1F10EE165
:04080000B1EE5EA552
:04080100B1EAB01494
:04080200B1E71371D6
:04080300B1E3884491
:04080400B1E00E8FC2
:04080500B1DCA69A22
:04080600B1D94ECF47
:04080700B1D60682DE
:04080800B1D2CE9B00
:04080900B1CFA59E28
:04080A00B1CC8BA53D
:04080B00B1C98118D6
:04080C00B1C68541AB
:04080D00B1C3964499
:04080E00B1C0B67649
:04080F00B1BDE35044
:04081000B1BB1D87D4
:04081100B1B86455C1
:04081200B1B5B81CA8
:04081300B1B3181154
:04081400B1B0843FBC
:04081500B1ADFC8104
:04081600B1AB8033CF
:04081700B1A90EAEC7
:04081800B1A6A8A03D
:04081900B1A44DE158
:04081A00B1A1FD1972
:04081B00B19FB71CB6
:04081C00B19D7B13FC
:04081D00B19B497CC6
:04081E00B19920F27A
:04081F00B197024F3C
:04082000B194ECD9CA
:04082100B192E0B7F9
:04082200B190DDE0D4
:04082300B18EE2E5CB
:04082400B18CF17B27
:04082500B18B080487
:04082600B18926F876
:04082700B1874D96B2
:04082800B1857D0E0B
:04082900B183B3B72D
:04082A00B181F1F2B5
:04082B00B180380B55
:04082C00B17D0A167A
:04082D00B179B2FDEE
:04082E00B17669C274
:04082F00B1732E0C67
:04083000B16FFFDFC6
:04083100B16CDF12B5
:04083200B169CBA637
:04083300B166C4E105
:04083400B163CA34AE
:04083500B160DC5D75
:04083600B15DFA6B4B
:04083700B15B23F995
:04083800B158590456
:04083900B1559A1506
:04083A00B152E4E4EF
:04083B00B1503BACD1
:04083C00B14D9CE03E
:04083D00B14B08A70C
:04083E00B1487F89B5
:04083F00B145FF2D93
:04084000B1438940F7
:04084100B1411D5153
:04084200B13EBBB850
:04084300B13C61DD86
:04084400B13A12674C
:04084500B137CB8676
:04084600B1358DBB80
:04084700B1335891E0
:04084800B1312BF3AC
:04084900B12F07982C
:04084A00B12CEB6C76
:04084B00B12AD7BF38
:04084C00B128CC46BD
:04084D00B126C850B8
:04084E00B124CB5DA9
:04084F00B122D6BD3F
:04085000B120E9BB2F
:04085100B11F033997
:04085200B11D24535D
:04085300B11B4C8603
:04085400B1197B1744
:04085500B117B12501
:04085600B115ECEC00
:04085700B1142FF3B6
:04085800B112797DE3
:04085900B110C96CA5
:04085A00B10F1EFEBE
:04085B00B10D7B520E
:04085C00B10BDD08F7
:04085D00B10A45088F
:04085E00B108B28E9D
:04085F00B10725AD0B
:04086000B1059F52ED
:04086100B1041DA51C
:04086200B102A10935
:04086300B1012A862F
:04086400B0FF73125C
:04086500B0FC99B397
:04086600B0F9CAC754
:04086700B0F7066F71
:04086800B0F44BEDB0
:04086900B0F19AF45C
:04086A00B0EEF32DCC
:04086B00B0EC536A30
:04086C00B0E9BED958
:04086D00B0E732833B
:04086E00B0E4AEBF85
:04086F00B0E233DDE3
:04087000B0DFC1FC38
:04087100B0DD57A6F9
:04087200B0DAF7A55C
:04087300B0D89D9AC2
:04087400B0D64CBFEF
:04087500B0D4039B5D
:04087600B0D1C1D666
:04087700B0CF88A5D1
:04087800B0CD556941
:04087900B0CB2AF4E2
:04087A00B0C9074DAD
:04087B00B0C6EA53C6
:04087C00B0C4D579B6
:04087D00B0C2C68AB5
:04087E00B0C0BFAC9B
:04087F00B0BEBF1F29
:04088000B0BCC47EC6
:04088100B0BAD17BBD
:04088200B0B8E41412
:04088300B0B6FD0FFF
:04088400B0B51D31BD
:04088500B0B3427159
:04088600B0B16E8916
:04088700B0AF9FA4CB
:04088800B0ADD77DBB
:04088900B0AC1442B9
:04088A00B0AA572F8A
:04088B00B0A89FDE94
:04088C00B0A6EE9C88
:04088D00B0A54117BA
:04088E00B0A39A7603
:04088F00B0A1F8A676
:04089000B0A05C2F89
:04089100B09EC466EB
:04089200B09D31D50F
:04089300B09BA5066B
:04089400B09A1C19E1
:04089500B0989795EB
:04089600B09718C03F
:04089700B0959E700A
:04089800B09428B33D
:04089900B092B792D0
:04089A00B0914B1FAF
:04089B00B08FE265D3
:04089C00B08E7EF0AC
:04089D00B08D1F4CAF
:04089E00B08BC386D2
:04089F00B08A6C6B44
:0408A000B08919847E
:0408A100B087CA5DF5
:0408A200B0867F415C
:0408A300B0853738AD
:0408A400B083F51612
:0408A500B082B4D891
:0408A600B081791193
:0408A700B080414993
:0408A800B07E1A53B1
:0408A900B07BB7AEBB
:0408AA00B0795E8D36
:0408AB00B0770B2BEC
:0408AC00B074BD98CF
:0408AD00B072798428
:0408AE00B070395499
:0408AF00B06E0244E1
:0408B000B06BD04217
:0408B100B069A52F56
:0408B200B067801299
:0408B300B06561814A
:0408B400B0634A15CE
:0408B500B06136F800
:0408B600B05F2B1FE5
:0408B700B05D23F716
:0408B800B05B24BE4F
:0408B900B05929CA3F
:0408BA00B05734807F
:0408BB00B0554533BC
:0408BC00B0535C35A4
:0408BD00B05176E7D9
:0408BE00B04F98D5CA
:0408BF00B04DBFA1D8
:0408C000B04BEB5AF4
:0408C100B04A1C0B12
:0408C200B04851C227
:0408C300B0468DA20C
:0408C400B044CD006F
:0408C500B0431189A2
:0408C600B0415C647D
:0408C700B03FAAE1B3
:0408C800B03DFD96AC
:0408C900B03C567E6B
:0408CA00B03AB3B5D8
:0408CB00B03913A08D
:0408CC00B0377A6F58
:0408CD00B035E44E10
:0408CE00B03451D21F
:0408CF00B032C4B5CA
:0408D000B0313BE226
:0408D100B02FB7F697
:0408D200B02E37927B
:0408D300B02CBB0981
:0408D400B02B42AD56
:0408D500B029CE3F39
:0408D600B0285DCA1F
:0408D700B026F10D49
:0408D800B02588EDD2
:0408D900B02423BF65
:0408DA00B022C21C6A
:0408DB00B02164EAFA
:0408DC00B0200AC37B
:0408DD00B01EB52074
:0408DE00B01D61BC2C
:0408DF00B01C133600
:0408E000B01AC794EF
:0408E100B0197F26A5
:0408E200B0183AD43C
:0408E300B016F9C88A
:0408E400B015BADEB3
:0408E500B0147FDDEF
:0408E600B01348847F
:0408E700B0121444F3
:0408E800B010E2D991
:0408E900B00FB44A4E
:0408EA00B00E89368D
:0408EB00B00D610DDE
:0408EC00B00C3C22EE
:0408ED00B00B1A7BB7
:0408EE00B009FAF063
:0408EF00B008DE6C03
:0408F000B007C4A7E2
:0408F100B006AF2A74
:0408F200B0059A6152
:0408F300B00489A024
:0408F400B0037BBA18
:0408F500B0026F5985
:0408F600B00166A146
:0408F700B00060638A
:0408F800AFFEB9474F
:0408F900AFFCB5E8B3
:0408FA00AFFAB88811
:0408FB00AFF8BFADE6
:0408FC00AFF6CD374F
:0408FD00AFF4DE7204
:0408FE00AFF2F45110
:0408FF00AFF10EE166
:04090000AFEE5EA553
:04090100AFEAB01495
:04090200AFE71371D7
:04090300AFE3884492
:04090400AFE00E8FC3
:04090500AFDCA69A23
:04090600AFD94ECF48
:04090700AFD60682DF
:04090800AFD2CE9B01
:04090900AFCFA59E29
:04090A00AFCC8BA53E
:04090B00AFC98118D7
:04090C00AFC68541AC
:04090D00AFC396449A
:04090E00AFC0B6764A
:04090F00AFBDE35045
:04091000AFBB1D87D5
:04091100AFB86455C2
:04091200AFB5B81CA9
:04091300AFB3181155
:04091400AFB0843FBD
:04091500AFADFC8105
:04091600AFAB8033D0
:04091700AFA90EAEC8
:04091800AFA6A8A03E
:04091900AFA44DE159
:04091A00AFA1FD1973
:04091B00AF9FB71CB7
:04091C00AF9D7B13FD
:04091D00AF9B497CC7
:04091E00AF9920F27B
:04091F00AF97024F3D
:04092000AF94ECD9CB
:04092100AF92E0B7FA
:04092200AF90DDE0D5
:04092300AF8EE2E5CC
:04092400AF8CF17B28
:04092500AF8B080488
:04092600AF8926F877
:04092700AF874D96B3
:04092800AF857D0E0C
:04092900AF83B3B72E
:04092A00AF81F1F2B6
:04092B00AF80380B56
:04092C00AF7D0A167B
:04092D00AF79B2FDEF
:04092E00AF7669C275
:04092F00AF732E0C68
:04093000AF6FFFDFC7
:04093100AF6CDF12B6
:04093200AF69CBA638
:04093300AF66C4E106
:04093400AF63CA34AF
:04093500AF60DC5D76
:04093600AF5DFA6B4C
:04093700AF5B23F996
:04093800AF58590457
:04093900AF559A1507
:04093A00AF52E4E4F0
:04093B00AF503BACD2
:04093C00AF4D9CE03F
:04093D00AF4B08A70D
:04093E00AF487F89B6
:04093F00AF45FF2D94
:04094000AF438940F8
:04094100AF411D5154
:04094200AF3EBBB851
:04094300AF3C61DD87
:04094400AF3A12674D
:04094500AF37CB8677
:04094600AF358DBB81
:04094700AF335891E1
:04094800AF312BF3AD
:04094900AF2F07982D
:04094A00AF2CEB6C77
:04094B00AF2AD7BF39
:04094C00AF28CC46BE
:04094D00AF26C850B9
:04094E00AF24CB5DAA
:04094F00AF22D6BD40
:04095000AF20E9BB30
:04095100AF1F033998
:04095200AF1D24535E
:04095300AF1B4C8604
:04095400AF197B1745
:04095500AF17B12502
:04095600AF15ECEC01
:04095700AF142FF3B7
:04095800AF12797DE4
:04095900AF10C96CA6
:04095A00AF0F1EFEBF
:04095B00AF0D7B520F
:04095C00AF0BDD08F8
:04095D00AF0A450890
:04095E00AF08B28E9E
:04095F00AF0725AD0C
:04096000AF059F52EE
:04096100AF041DA51D
:04096200AF02A10936
:04096300AF012A8630
:04096400AEFF73125D
:04096500AEFC99B398
:04096600AEF9CAC755
:04096700AEF7066F72
:04096800AEF44BEDB1
:04096900AEF19AF45D
:04096A00AEEEF32DCD
:04096B00AEEC536A31
:04096C00AEE9BED959
:04096D00AEE732833C
:04096E00AEE4AEBF86
:04096F00AEE233DDE4
:04097000AEDFC1FC39
:04097100AEDD57A6FA
:04097200AEDAF7A55D
:04097300AED89D9AC3
:04097400AED64CBFF0
:04097500AED4039B5E
:04097600AED1C1D667
:04097700AECF88A5D2
:04097800AECD556942
:04097900AECB2AF4E3
:04097A00AEC9074DAE
:04097B00AEC6EA53C7
:04097C00AEC4D579B7
:04097D00AEC2C68AB6
:04097E00AEC0BFAC9C
:04097F00AEBEBF1F2A
:04098000AEBCC47EC7
:04098100AEBAD17BBE
:04098200AEB8E41413
:04098300AEB6FD0F00
:04098400AEB51D31BE
:04098500AEB342715A
:04098600AEB16E8917
:04098700AEAF9FA4CC
:04098800AEADD77DBC
:04098900AEAC1442BA
:04098A00AEAA572F8B
:04098B00AEA89FDE95
:04098C00AEA6EE9C89
:04098D00AEA54117BB
:04098E00AEA39A7604
:04098F00AEA1F8A677
:04099000AEA05C2F8A
:04099100AE9EC466EC
:04099200AE9D31D510
:04099300AE9BA5066C
:04099400AE9A1C19E2
:04099500AE989795EC
:04099600AE9718C040
:04099700AE959E700B
:04099800AE9428B33E
:04099900AE92B792D1
:04099A00AE914B1FB0
:04099B00AE8FE265D4
:04099C00AE8E7EF0AD
:04099D00AE8D1F4CB0
:04099E00AE8BC386D3
:04099F00AE8A6C6B45
:0409A000AE8919847F
:0409A100AE87CA5DF6
:0409A200AE867F415D
:0409A300AE853738AE
:0409A400AE83F51613
:0409A500AE82B4D892
:0409A600AE81791194
:0409A700AE80414994
:0409A800AE7E1A53B2
:0409A900AE7BB7AEBC
:0409AA00AE795E8D37
:0409AB00AE770B2BED
:0409AC00AE74BD98D0
:0409AD00AE72798429
:0409AE00AE7039549A
:0409AF00AE6E0244E2
:0409B000AE6BD04218
:0409B100AE69A52F57
:0409B200AE6780129A
:0409B300AE6561814B
:0409B400AE634A15CF
:0409B500AE6136F801
:0409B600AE5F2B1FE6
:0409B700AE5D23F717
:0409B800AE5B24BE50
:0409B900AE5929CA40
:0409BA00AE57348080
:0409BB00AE554533BD
:0409BC00AE535C35A5
:0409BD00AE5176E7DA
:0409BE00AE4F98D5CB
:0409BF00AE4DBFA1D9
:0409C000AE4BEB5AF5
:0409C100AE4A1C0B13
:0409C200AE4851C228
:0409C300AE468DA20D
:0409C400AE44CD0070
:0409C500AE431189A3
:0409C600AE415C647E
:0409C700AE3FAAE1B4
:0409C800AE3DFD96AD
:0409C900AE3C567E6C
:0409CA00AE3AB3B5D9
:0409CB00AE3913A08E
:0409CC00AE377A6F59
:0409CD00AE35E44E11
:0409CE00AE3451D220
:0409CF00AE32C4B5CB
:0409D000AE313BE227
:0409D100AE2FB7F698
:0409D200AE2E37927C
:0409D300AE2CBB0982
:0409D400AE2B42AD57
:0409D500AE29CE3F3A
:0409D600AE285DCA20
:0409D700AE26F10D4A
:0409D800AE2588EDD3
:0409D900AE2423BF66
:0409DA00AE22C21C6B
:0409DB00AE2164EAFB
:0409DC00AE200AC37C
:0409DD00AE1EB52075
:0409DE00AE1D61BC2D
:0409DF00AE1C133601
:0409E000AE1AC794F0
:0409E100AE197F26A6
:0409E200AE183AD43D
:0409E300AE16F9C88B
:0409E400AE15BADEB4
:0409E500AE147FDDF0
:0409E600AE13488480
:0409E700AE121444F4
:0409E800AE10E2D992
:0409E900AE0FB44A4F
:0409EA00AE0E89368E
:0409EB00AE0D610DDF
:0409EC00AE0C3C22EF
:0409ED00AE0B1A7BB8
:0409EE00AE09FAF064
:0409EF00AE08DE6C04
:0409F000AE07C4A7E3
:0409F100AE06AF2A75
:0409F200AE059A6153
:0409F300AE0489A025
:0409F400AE037BBA19
:0409F500AE026F5986
:0409F600AE0166A147
:0409F700AE0060638B
:0409F800ADFEB94750
:0409F900ADFCB5E8B4
:0409FA00ADFAB88812
:0409FB00ADF8BFADE7
:0409FC00ADF6CD3750
:0409FD00ADF4DE7205
:0409FE00ADF2F45111
:0409FF00ADF10EE167
:040A0000ADEE5EA554
:040A0100ADEAB01496
:040A0200ADE71371D8
:040A0300ADE3884493
:040A0400ADE00E8FC4
:040A0500ADDCA69A24
:040A0600ADD94ECF49
:040A0700ADD60682E0
:040A0800ADD2CE9B02
:040A0900ADCFA59E2A
:040A0A00ADCC8BA53F
:040A0B00ADC98118D8
:040A0C00ADC68541AD
:040A0D00ADC396449B
:040A0E00ADC0B6764B
:040A0F00ADBDE35046
:040A1000ADBB1D87D6
:040A1100ADB86455C3
:040A1200ADB5B81CAA
:040A1300ADB3181156
:040A1400ADB0843FBE
:040A1500ADADFC8106
:040A1600ADAB8033D1
:040A1700ADA90EAEC9
:040A1800ADA6A8A03F
:040A1900ADA44DE15A
:040A1A00ADA1FD1974
:040A1B00AD9FB71CB8
:040A1C00AD9D7B13FE
:040A1D00AD9B497CC8
:040A1E00AD9920F27C
:040A1F00AD97024F3E
:040A2000AD94ECD9CC
:040A2100AD92E0B7FB
:040A2200AD90DDE0D6
:040A2300AD8EE2E5CD
:040A2400AD8CF17B29
:040A2500AD8B080489
:040A2600AD8926F878
:040A2700AD874D96B4
:040A2800AD857D0E0D
:040A2900AD83B3B72F
:040A2A00AD81F1F2B7
:040A2B00AD80380B57
:040A2C00AD7D0A167C
:040A2D00AD79B2FDF0
:040A2E00AD7669C276
:040A2F00AD732E0C69
:040A3000AD6FFFDFC8
:040A3100AD6CDF12B7
:040A3200AD69CBA639
:040A3300AD66C4E107
:040A3400AD63CA34B0
:040A3500AD60DC5D77
:040A3600AD5DFA6B4D
:040A3700AD5B23F997
:040A3800AD58590458
:040A3900AD559A1508
:040A3A00AD52E4E4F1
:040A3B00AD503BACD3
:040A3C00AD4D9CE040
:040A3D00AD4B08A70E
:040A3E00AD487F89B7
:040A3F00AD45FF2D95
:040A4000AD438940F9
:040A4100AD411D5155
:040A4200AD3EBBB852
:040A4300AD3C61DD88
:040A4400AD3A12674E
:040A4500AD37CB8678
:040A4600AD358DBB82
:040A4700AD335891E2
:040A4800AD312BF3AE
:040A4900AD2F07982E
:040A4A00AD2CEB6C78
:040A4B00AD2AD7BF3A
:040A4C00AD28CC46BF
:040A4D00AD26C850BA
:040A4E00AD24CB5DAB
:040A4F00AD22D6BD41
:040A5000AD20E9BB31
:040A5100AD1F033999
:040A5200AD1D24535F
:040A5300AD1B4C8605
:040A5400AD197B1746
:040A5500AD17B12503
:040A5600AD15ECEC02
:040A5700AD142FF3B8
:040A5800AD12797DE5
:040A5900AD10C96CA7
:040A5A00AD0F1EFEC0
:040A5B00AD0D7B5210
:040A5C00AD0BDD08F9
:040A5D00AD0A450891
:040A5E00AD08B28E9F
:040A5F00AD0725AD0D
:040A6000AD059F52EF
:040A6100AD041DA51E
:040A6200AD02A10937
:040A6300AD012A8631
:040A6400ACFF73125E
:040A6500ACFC99B399
:040A6600ACF9CAC756
:040A6700ACF7066F73
:040A6800ACF44BEDB2
:040A6900ACF19AF45E
:040A6A00ACEEF39D5E
:040A6B00ACEC541388
:040A6C00ACE9BE3003
:040A6D00ACE731DAE7
:040A6E00ACE4AF3015
:040A6F00ACE233DDE5
:040A7000ACDFC23500
:040A7100ACDD57A6FB
:040A7200ACDAF732D1
:040A7300ACD89D60FE
:040A7400ACD64C4C64
:040A7500ACD4039B5F
:040A7600ACD1C283BA
:040A7700ACCF88A5D3
:040A7800ACCD552F7D
:040A7900ACCB2B2EA9
:040A7A00ACC90712EA
:040A7B00ACC6EAC853
:040A7C00ACC4D5042D
:040A7D00ACC2C68AB7
:040A7E00ACC0BFAC9D
:040A7F00ACBEBEA9A2
:040A8000ACBCC4B98D
:040A8100ACBAD0C972
:040A8200ACB8E450D8
:040A8300ACB6FD0F01
:040A8400ACB51D31BF
:040A8500ACB3423597
:040A8600ACB16DD4CE
:040A8700ACAF9F2B46
:040A8800ACADD741F9
:040A8900ACAC13C836
:040A8A00ACAA576C4F
:040A8B00ACA89FDE96
:040A8C00ACA6EDE542
:040A8D00ACA541CF04
:040A8E00ACA39A3942
:040A8F00ACA1F82BF3
:040A9000ACA05BF1CA
:040A9100AC9EC466ED
:040A9200AC9D3213D2
:040A9300AC9BA40D67
:040A9400AC9A1C57A5
:040A9500AC989795ED
:040A9600AC97193DC3
:040A9700AC959EEE8E
:040A9800AC9428747E
:040A9900AC92B7D193
:040A9A00AC914AA031
:040A9B00AC8FE2A595
:040A9C00AC8E7EB0EE
:040A9D00AC8D1F8C71
:040A9E00AC8BC34614
:040A9F00AC8A6BEAC8
:040AA000AC89190301
:040AA100AC87CA5DF7
:040AA200AC867EC0E0
:040AA300AC8537FBEC
:040AA400AC83F453D8
:040AA500AC82B4D893
:040AA600AC8179B4F2
:040AA700AC80416A74
:040AA800AC7E1A12F4
:040AA900AC7BB7F07B
:040AAA00AC795E09BC
:040AAB00AC770AA773
:040AAC00AC74BE1C4C
:040AAD00AC7279842A
:040AAE00AC7039D817
:040AAF00AC6E0244E3
:040AB000AC6BCF3725
:040AB100AC69A4EC9C
:040AB200AC6780DBD2
:040AB300AC656208C4
:040AB400AC63498E58
:040AB500AC6136F802
:040AB600AC5F2A54B3
:040AB700AC5D24C34B
:040AB800AC5B247A95
:040AB900AC592A52B8
:040ABA00AC573509F7
:040ABB00AC5544EF03
:040ABC00AC535CBE1D
:040ABD00AC51777150
:040ABE00AC4F98D5CC
:040ABF00AC4DBF5C1F
:040AC000AC4BEA8AC7
:040AC100AC4A1C0B14
:040AC200AC485207E3
:040AC300AC468CD1E0
:040AC400AC44CD0071
:040AC500AC43125BD1
:040AC600AC415B9252
:040AC700AC3FAB286D
:040AC800AC3DFDDD67
:040AC900AC3C55F1FB
:040ACA00AC3AB36E21
:040ACB00AC39142E00
:040ACC00AC37795377
:040ACD00AC35E40759
:040ACE00AC34537E73
:040ACF00AC32C5443C
:040AD000AC313C7297
:040AD100AC2FB83D51
:040AD200AC2E36BA56
:040AD300AC2CBB513B
:040AD400AC2B42F510
:040AD500AC29CE88F2
:040AD600AC285E12D8
:040AD700AC26F10D4B
:040AD800AC25885B66
:040AD900AC242376B0
:040ADA00AC22C26523
:040ADB00AC2164A145
:040ADC00AC200AC37D
:040ADD00AC1EB4D7C0
:040ADE00AC1D629950
:040ADF00AC1C133602
:040AE000AC1AC8295B
:040AE100AC197F26A7
:040AE200AC183AD43E
:040AE300AC16F97ED6
:040AE400AC15BB2969
:040AE500AC148028A5
:040AE600AC13488481
:040AE700AC121444F5
:040AE800AC10E2D993
:040AE900AC0FB44A50
:040AEA00AC0E898243
:040AEB00AC0D615994
:040AEC00AC0C3C22F0
:040AED00AC0B19E352
:040AEE00AC09FAF065
:040AEF00AC08DE1F52
:040AF000AC07C4F497
:040AF100AC06AE9011
:040AF200AC059AAE07
:040AF300AC04895373
:040AF400AC037BBA1A
:040AF500AC026F8060
:040AF600AC01667B6E
:040AF700AC005FEE02
:040AF800ABFEB8ABEE
:040AF900ABFCB59A03
:040AFA00ABFAB88813
:040AFB00ABF8BFADE8
:040AFC00ABF6CC9AEF
:040AFD00ABF4DE2355
:040AFE00ABF2F40261
:040AFF00ABF10E92B7
:040B0000ABEE5E56A4
:040B0100ABEAAF7537
:040B0200ABE71399B1
:040B0300ABE3889444
:040B0400ABE00EDF75
:040B0500ABDCA6219E
:040B0600ABD94E55C4
:040B0700ABD606D48F
:040B0800ABD2CE9B03
:040B0900ABCFA59E2B
:040B0A00ABCC8BF7EE
:040B0B00ABC98118D9
:040B0C00ABC68518D7
:040B0D00ABC3966D73
:040B0E00ABC0B622A0
:040B0F00ABBDE35047
:040B1000ABBB1D5D01
:040B1100ABB86455C4
:040B1200ABB5B89B2C
:040B1300ABB3186602
:040B1400ABB0846995
:040B1500ABADFCACDC
:040B1600ABAB7FB254
:040B1700ABA90EAECA
:040B1800ABA6A8756B
:040B1900ABA44DE15B
:040B1A00ABA1FD701E
:040B1B00AB9FB6F1E5
:040B1C00AB9D7ABB58
:040B1D00AB9B492322
:040B1E00AB99209AD5
:040B1F00AB97024F3F
:040B2000AB94ECADF9
:040B2100AB92E05E55
:040B2200AB90DDB403
:040B2300AB8EE2B8FB
:040B2400AB8CF14E57
:040B2500AB8B08048A
:040B2600AB89269DD4
:040B2700AB874D96B5
:040B2800AB857CE03D
:040B2900AB83B3B730
:040B2A00AB81F24E5B
:040B2B00AB8037C69E
:040B2C00AB7D09B9DB
:040B2D00AB79B32CC1
:040B2E00AB7669C277
:040B2F00AB732DDD9A
:040B3000AB70003D69
:040B3100AB6CDFA02A
:040B3200AB69CB7769
:040B3300AB66C4B138
:040B3400AB63C9D511
:040B3500AB60DBFED8
:040B3600AB5DF9DBDF
:040B3700AB5B2399F8
:040B3800AB58590459
:040B3900AB559A76A8
:040B3A00AB52E54590
:040B3B00AB503C0D72
:040B3C00AB4D9CE041
:040B3D00AB4B0909AC
:040B3E00AB487F271A
:040B3F00AB45FF2D96
:040B4000AB438972C8
:040B4100AB411DB5F2
:040B4200AB3EBAF11B
:040B4300AB3C620E57
:040B4400AB3A12674F
:040B4500AB37CB53AC
:040B4600AB358D241A
:040B4700AB33585E16
:040B4800AB312BF3AF
:040B4900AB2F073295
:040B4A00AB2CEBD213
:040B4B00AB2AD7F208
:040B4C00AB28CC13F3
:040B4D00AB26C7E923
:040B4E00AB24CB9178
:040B4F00AB22D656A9
:040B5000AB20E9BB32
:040B5100AB1F03399A
:040B5200AB1D241F94
:040B5300AB1B4BE9A4
:040B5400AB197AE37C
:040B5500AB17B0F03A
:040B5600AB15ECEC03
:040B5700AB14302883
:040B5800AB12797DE6
:040B5900AB10C96CA8
:040B5A00AB0F1EFEC1
:040B5B00AB0D7AE77D
:040B5C00AB0BDD3EC4
:040B5D00AB0A450892
:040B5E00AB08B28EA0
:040B5F00AB0725E3D8
:040B6000AB059F1B27
:040B6100AB041D6E56
:040B6200AB02A14001
:040B6300AB012A6A4E
:040B6400AAFF72DB97
:040B6500AAFC99EA63
:040B6600AAF9CA58C6
:040B6700AAF70522C2
:040B6800AAF44AD7CA
:040B6900AAF19A4C07
:040B6A00AAEEF24DB0
:040B6B00AAEC544B51
:040B6C00AAE9BF1122
:040B6D00AAE732833E
:040B6E00AAE4AEF750
:040B6F00AAE23416AC
:040B7000AADFC1FC3B
:040B7100AADD581889
:040B7200AADAF7DE26
:040B7300AAD89DD38C
:040B7400AAD64C4C65
:040B7500AAD4027B81
:040B7600AAD1C2BD81
:040B7700AACF886B0E
:040B7800AACD54F5B9
:040B7900AACB2AF4E5
:040B7A00AAC9078776
:040B7B00AAC6EB0318
:040B7C00AAC4D5B47E
:040B7D00AAC2C68AB8
:040B7E00AAC0BFE763
:040B7F00AABEBF1F2C
:040B8000AABCC47EC9
:040B8100AABAD17BC0
:040B8200AAB8E41415
:040B8300AAB6FC977B
:040B8400AAB51CB939
:040B8500AAB341BD11
:040B8600AAB16DD4CF
:040B8700AAAF9F670B
:040B8800AAADD741FA
:040B8900AAAC1405F9
:040B8A00AAAA572F8D
:040B8B00AAA8A01B59
:040B8C00AAA6EE2205
:040B8D00AAA541CF05
:040B8E00AAA39A3943
:040B8F00AAA1F869B6
:040B9000AAA05BB408
:040B9100AA9EC4A3B1
:040B9200AA9D31D512
:040B9300AA9BA48AEB
:040B9400AA9A1C19E4
:040B9500AA9897D3B0
:040B9600AA9718FF03
:040B9700AA959EAFCE
:040B9800AA9428F201
:040B9900AA92B792D3
:040B9A00AA914AA032
:040B9B00AA8FE2A596
:040B9C00AA8E7E702F
:040B9D00AA8D1F0CF2
:040B9E00AA8BC386D5
:040B9F00AA8A6CAB07
:040BA000AA8918C343
:040BA100AA87C9DC7A
:040BA200AA867EC0E1
:040BA300AA8537BA2E
:040BA400AA83F51615
:040BA500AA82B4D894
:040BA600AA81799314
:040BA700AA80414996
:040BA800AA7E1A9572
:040BA900AA7BB873F8
:040BAA00AA795E8D39
:040BAB00AA7709E13B
:040BAC00AA74BEE287
:040BAD00AA72787B35
:040BAE00AA703A5D92
:040BAF00AA6E0287A1
:040BB000AA6BD085D7
:040BB100AA69A42366
:040BB200AA67805559
:040BB300AA656208C5
:040BB400AA634A15D1
:040BB500AA6136718A
:040BB600AA5F2B1FE8
:040BB700AA5D258E80
:040BB800AA5B24BE52
:040BB900AA592A0EFD
:040BBA00AA5734C53D
:040BBB00AA5544EF04
:040BBC00AA535C35A7
:040BBD00AA51777151
:040BBE00AA4F98D5CD
:040BBF00AA4DBED2AB
:040BC000AA4BEB153C
:040BC100AA4A1C0B15
:040BC200AA485207E4
:040BC300AA468CD1E1
:040BC400AA44CD462C
:040BC500AA4312A18C
:040BC600AA415B9253
:040BC700AA3FAB6E28
:040BC800AA3DFD96AF
:040BC900AA3C556489
:040BCA00AA3AB2E1B0
:040BCB00AA39142E01
:040BCC00AA37795378
:040BCD00AA35E4075A
:040BCE00AA3452A84B
:040BCF00AA32C58BF6
:040BD000AA313D0108
:040BD100AA2FB8CDC2
:040BD200AA2E36BA57
:040BD300AA2CBB0984
:040BD400AA2B43867F
:040BD500AA29CDF785
:040BD600AA285E5B90
:040BD700AA26F0C496
:040BD800AA25885B67
:040BD900AA2424081E
:040BDA00AA22C26524
:040BDB00AA2164EAFD
:040BDC00AA200AC37E
:040BDD00AA1EB52077
:040BDE00AA1D62509A
:040BDF00AA1C1380B9
:040BE000AA1AC8295C
:040BE100AA197F26A8
:040BE200AA183AD43F
:040BE300AA16F9C88D
:040BE400AA15BB296A
:040BE500AA147FDDF2
:040BE600AA13488482
:040BE700AA1213F843
:040BE800AA10E370FC
:040BE900AA0FB44A51
:040BEA00AA0E898244
:040BEB00AA0D610DE1
:040BEC00AA0C3C22F1
:040BED00AA0B1A2F06
:040BEE00AA09FAA4B2
:040BEF00AA08DE6C06
:040BF000AA07C4F498
:040BF100AA06AE9012
:040BF200AA059AFBBB
:040BF300AA04895374
:040BF400AA037B6D68
:040BF500AA026F33AE
:040BF600AA01667B6F
:040BF700AA006015DB
:040BF800A9FEB8ABEF
:040BF900A9FCB5E8B6
:040BFA00A9FAB83A62
:040BFB00A9F8C0494C
:040BFC00A9F6CC9AF0
:040BFD00A9F4DD86F4
:040BFE00A9F2F53D26
:040BFF00A9F10E4307
:00000001FF
