:04000000C2BDB9675D
:04000100C2B8A00DD4
:04000200C2B3AECE09
:04000300C2AEE3AEF8
:04000400C2AA3E50FE
:04000500C2A5BC577D
:04000600C2A15DA78F
:04000700C29D203E38
:04000800C29903A1F5
:04000900C29505FB9C
:04000A00C29126DD9C
:04000B00C28D65310C
:04000C00C289BFDA0C
:04000D00C28635B5BD
:04000E00C282C6568E
:04000F00C27EE0FAD3
:04001000C27866EA62
:04001100C2721C8E0D
:04001200C26C009824
:04001300C26611852B
:04001400C2604E79FF
:04001500C25AB58D89
:04001600C25544D5B6
:04001700C24FFBB128
:04001800C24AD8A759
:04001900C245DACC36
:04001A00C24100F0EF
:04001B00C23C494159
:04001C00C237B389AB
:04001D00C2333E703C
:04001E00C22EE87E88
:04001F00C22AB1C977
:04002000C226980953
:04002100C2229B0755
:04002200C21EBA5BE5
:04002300C21AF40504
:04002400C217484B6C
:04002500C213B5C08D
:04002600C2103C3296
:04002700C20CD95FCF
:04002800C2098F4733
:04002900C2065AA60B
:04002A00C2033BF1E1
:04002B00C200325C81
:04002C00C1FA7AE8B3
:04002D00C1F4B7E281
:04002E00C1EF1CB44E
:04002F00C1E9A5D8A6
:04003000C1E4548251
:04003100C1DF25AC5A
:04003200C1DA199680
:04003300C1D52F06FE
:04003400C1D0642DA6
:04003500C1CBB91270
:04003600C1C72C9A78
:04003700C1C2BD760F
:04003800C1BE6AE4F7
:04003900C1BA347B99
:04003A00C1B619A38F
:04003B00C1B218CC6A
:04003C00C1AE319D83
:04003D00C1AA63D21F
:04003E00C1A6AD6D3D
:04003F00C1A30F1B2F
:04004000C19F87E3F2
:04004100C19C16FD4B
:04004200C198BB9B0B
:04004300C19574D51A
:04004400C19242D152
:04004500C18F251D25
:04004600C18C1A4C03
:04004700C18922B198
:04004800C1863D3BF5
:04004900C18369BC4A
:04004A00C180A71FAB
:04004B00C17BEBC8C2
:04004C00C176AA13BC
:04004D00C171887F76
:04004E00C16C8606F5
:04004F00C167A16381
:04005000C162DAEEC1
:04005100C15E30FA62
:04005200C159A29D51
:04005300C1552F8ED6
:04005400C150D77F41
:04005500C14C994CB5
:04005600C1487380AA
:04005700C14466B08A
:04005800C14071989A
:04005900C13C93F320
:04005A00C138CCE3FA
:04005B00C1351C6E21
:04005C00C1318053DB
:04005D00C12DFA4473
:04005E00C12A88101B
:04005F00C12729BBD1
:04006000C123DF7C5D
:04006100C120A750C3
:04006200C11D8184B7
:04006300C11A6E67E9
:04006400C1176C59FB
:04006500C1147BC186
:04006600C1119BBB6E
:04006700C10ECB5F9C
:04006800C10C0BB804
:04006900C1095B1856
:04006A00C106B98C86
:04006B00C10426277F
:04006C00C101A22705
:04006D00C0FE56CEAD
:04006E00C0F985D878
:04006F00C0F4CE66A5
:04007000C0F0316A41
:04007100C0EBAD999A
:04007200C0E743019F
:04007300C0E2EFA553
:04007400C0DEB471C5
:04007500C0DA90F766
:04007600C0D68370FD
:04007700C0D28BA0C8
:04007800C0CEA94D00
:04007900C0CADC021B
:04007A00C0C7225B7E
:04007B00C0C37DB3CE
:04007C00C0BFEC1104
:04007D00C0BC6D4D49
:04007E00C0B90142C2
:04007F00C0B5A78DD4
:04008000C0B25F515A
:04008100C0AF286282
:04008200C0AC027498
:04008300C0A8ECE342
:04008400C0A5E79D8F
:04008500C0A2F2150E
:04008600C0A00BA368
:04008700C09D34E400
:04008800C09A6C9618
:04008900C097B24525
:04008A00C095066EA9
:04008B00C092682592
:04008C00C08FD74DFD
:04008D00C08D53715E
:04008E00C08ADCCC7C
:04008F00C088726C47
:04009000C0861452C0
:04009100C083C23C2A
:04009200C0817C0BA2
:04009300C07E8204A5
:04009400C07A22F913
:04009500C075D8B8A2
:04009600C071A52D63
:04009700C06D86585A
:04009800C0697BAF11
:04009900C06584E3D7
:04009A00C061A22877
:04009B00C05DD2EB87
:04009C00C05A15E051
:04009D00C0566BB12D
:04009E00C052D28CEE
:04009F00C04F4C7C86
:0400A000C04BD6CAB1
:0400A100C04871BC26
:0400A200C0451D9C9C
:0400A300C041D9CEB1
:0400A400C03EA53580
:0400A500C03B7FF5E8
:0400A600C0386AB440
:0400A700C035632BD2
:0400A800C0326AA157
:0400A900C02F80954F
:0400AA00C02CA4A41E
:0400AB00C029D5850E
:0400AC00C02713DA7C
:0400AD00C0245FE22A
:0400AE00C021B87243
:0400AF00C01F1D84CD
:0400B000C01C8E8F53
:0400B100C01A0BAEB8
:0400B200C017947768
:0400B300C015290447
:0400B400C012C8E9C5
:0400B500C01073B94B
:0400B600C00E296BE4
:0400B700C00BE94C45
:0400B800C009B46166
:0400B900C00788A153
:0400BA00C005679A7C
:0400BB00C003500D21
:0400BC00C0014275C8
:0400BD00BFFE7B6A9D
:0400BE00BFFA855BA5
:0400BF00BFF6A037B1
:0400C000BFF2CD7E40
:0400C100BFEF0B7210
:0400C200BFEB5B4EE7
:0400C300BFE7BB0DCB
:0400C400BFE42AD19A
:0400C500BFE0AB49A4
:0400C600BFDD3AF46C
:0400C700BFD9DA8241
:0400C800BFD68826F1
:0400C900BFD345A9B3
:0400CA00BFD011177B
:0400CB00BFCCEAD8E4
:0400CC00BFC9D27A5C
:0400CD00BFC6C7D70C
:0400CE00BFC3CA10D2
:0400CF00BFC0DA18BC
:0400D000BFBDF6EECC
:0400D100BFBB20F59C
:0400D200BFB8562C31
:0400D300BFB597F12D
:0400D400BFB2E56270
:0400D500BFB03EBAC0
:0400D600BFADA3CB4C
:0400D700BFAB13F7B1
:0400D800BFA88FE747
:0400D900BFA6156B3E
:0400DA00BFA3A5BD5E
:0400DB00BFA1411868
:0400DC00BF9EE623BA
:0400DD00BF9C9560CF
:0400DE00BF9A4E086F
:0400DF00BF98119F16
:0400E000BF95DE11D9
:0400E100BF93B324F2
:0400E200BF91923BFD
:0400E300BF8F7A1A37
:0400E400BF8D6A6101
:0400E500BF8B6394D6
:0400E600BF89659FCA
:0400E700BF876F411F
:0400E800BF858191BE
:0400E900BF839B999D
:0400EA00BF81BD43D2
:0400EB00BF7FCEB84D
:0400EC00BF7C31871D
:0400ED00BF78A490A4
:0400EE00BF7523C5F2
:0400EF00BF71B28BA0
:0400F000BF6E4E4C45
:0400F100BF6AFABD2B
:0400F200BF67B2E44E
:0400F300BF6476D69A
:0400F400BF614A9905
:0400F500BF5E2AA917
:0400F600BF5B1720B5
:0400F700BF581017C7
:0400F800BF551508D3
:0400F900BF5225C00D
:0400FA00BF4F41B8FB
:0400FB00BF4C6ADCB0
:0400FC00BF499E84D6
:0400FD00BF46DDD746
:0400FE00BF44273A9A
:0400FF00BF417BFE84
:04010000BF3DB967DF
:04010100BF38A00D56
:04010200BF33AECE8B
:04010300BF2EE3AE7A
:04010400BF2A3E5080
:04010500BF25BC57FF
:04010600BF215DA711
:04010700BF1D203EBA
:04010800BF1903A177
:04010900BF1505FB1E
:04010A00BF1126DD1E
:04010B00BF0D65318E
:04010C00BF09BFDA8E
:04010D00BF0635B53F
:04010E00BF02C65610
:04010F00BEFEE0FA56
:04011000BEF866EAE5
:04011100BEF21C8E90
:04011200BEEC0098A7
:04011300BEE61185AE
:04011400BEE04E7982
:04011500BEDAB58D0C
:04011600BED544D539
:04011700BECFFBB1AB
:04011800BECAD8A7DC
:04011900BEC5DACCB9
:04011A00BEC100F072
:04011B00BEBC4941DC
:04011C00BEB7B3892E
:04011D00BEB33E70BF
:04011E00BEAEE87E0B
:04011F00BEAAB1C9FA
:04012000BEA69809D6
:04012100BEA29B07D8
:04012200BE9EBA5B68
:04012300BE9AF40587
:04012400BE97484BEF
:04012500BE93B5C010
:04012600BE903C3219
:04012700BE8CD95F52
:04012800BE898F47B6
:04012900BE865AA68E
:04012A00BE833BF164
:04012B00BE80325C04
:04012C00BE7A7AE835
:04012D00BE74B7E203
:04012E00BE6F1CB4D0
:04012F00BE69A5D828
:04013000BE645482D3
:04013100BE5F25ACDC
:04013200BE5A199602
:04013300BE552F0680
:04013400BE50642D28
:04013500BE4BB912F2
:04013600BE472C9AFA
:04013700BE42BD7691
:04013800BE3E6AE479
:04013900BE3A347B1B
:04013A00BE3619A311
:04013B00BE3218CCEC
:04013C00BE2E319D05
:04013D00BE2A63D2A1
:04013E00BE26AD6DBF
:04013F00BE230F1BB1
:04014000BE1F87E374
:04014100BE1C16FDCD
:04014200BE18BB9B8D
:04014300BE1574D59C
:04014400BE1242D1D4
:04014500BE0F251DA7
:04014600BE0C1A4C85
:04014700BE0922B11A
:04014800BE063D3B77
:04014900BE0369BCCC
:04014A00BE00A71F2D
:04014B00BDFBEBC845
:04014C00BDF6AA133F
:04014D00BDF1887FF9
:04014E00BDEC860678
:04014F00BDE7A16304
:04015000BDE2DAEE44
:04015100BDDE30FAE5
:04015200BDD9A29DD4
:04015300BDD52F8E59
:04015400BDD0D77FC4
:04015500BDCC994C38
:04015600BDC873802D
:04015700BDC466B00D
:04015800BDC071981D
:04015900BDBC93F3A3
:04015A00BDB8CCE37D
:04015B00BDB51C6EA4
:04015C00BDB180535E
:04015D00BDADFA44F6
:04015E00BDAA88109E
:04015F00BDA729BB54
:04016000BDA3DF7CE0
:04016100BDA0A75046
:04016200BD9D81843A
:04016300BD9A6E676C
:04016400BD976C597E
:04016500BD947BC109
:04016600BD919BBBF1
:04016700BD8ECB5F1F
:04016800BD8C0BB887
:04016900BD895B18D9
:04016A00BD86B98C09
:04016B00BD84262702
:04016C00BD81A22788
:04016D00BD7E56CE2F
:04016E00BD7985D8FA
:04016F00BD74CE6627
:04017000BD70316AC3
:04017100BD6BAD991C
:04017200BD67430121
:04017300BD62EFA5D5
:04017400BD5EB47147
:04017500BD5A90F7E8
:04017600BD5683707F
:04017700BD528BA04A
:04017800BD4EA94D82
:04017900BD4ADC029D
:04017A00BD47225B00
:04017B00BD437DB350
:04017C00BD3FEC1186
:04017D00BD3C6D4DCB
:04017E00BD39014244
:04017F00BD35A78D56
:04018000BD325F51DC
:04018100BD2F286204
:04018200BD2C02741A
:04018300BD28ECE3C4
:04018400BD25E79D11
:04018500BD22F21590
:04018600BD200BA3EA
:04018700BD1D34E482
:04018800BD1A6C969A
:04018900BD17B245A7
:04018A00BD15066E2B
:04018B00BD12682514
:04018C00BD0FD74D7F
:04018D00BD0D5371E0
:04018E00BD0ADCCCFE
:04018F00BD08726CC9
:04019000BD06145242
:04019100BD03C23CAC
:04019200BD017C0B24
:04019300BCFE820428
:04019400BCFA22F996
:04019500BCF5D8B825
:04019600BCF1A52DE6
:04019700BCED8658DD
:04019800BCE97BAF94
:04019900BCE584E35A
:04019A00BCE1A228FA
:04019B00BCDDD2EB0A
:04019C00BCDA15E0D4
:04019D00BCD66BB1B0
:04019E00BCD2D28C71
:04019F00BCCF4C7C09
:0401A000BCCBD6CA34
:0401A100BCC871BCA9
:0401A200BCC51D9C1F
:0401A300BCC1D9CE34
:0401A400BCBEA53503
:0401A500BCBB7FF56B
:0401A600BCB86AB4C3
:0401A700BCB5632B55
:0401A800BCB26AA1DA
:0401A900BCAF8095D2
:0401AA00BCACA4A4A1
:0401AB00BCA9D58591
:0401AC00BCA713DAFF
:0401AD00BCA45FE2AD
:0401AE00BCA1B872C6
:0401AF00BC9F1D8450
:0401B000BC9C8E8FD6
:0401B100BC9A0BAE3B
:0401B200BC979477EB
:0401B300BC952904CA
:0401B400BC92C8E948
:0401B500BC9073B9CE
:0401B600BC8E296B67
:0401B700BC8BE94CC8
:0401B800BC89B461E9
:0401B900BC8788A1D6
:0401BA00BC85679AFF
:0401BB00BC83500DA4
:0401BC00BC8142754B
:0401BD00BC7E7B6A1F
:0401BE00BC7A855B27
:0401BF00BC76A03733
:0401C000BC72CD7EC2
:0401C100BC6F0B7292
:0401C200BC6B5B4E69
:0401C300BC67BB0D4D
:0401C400BC642AD11C
:0401C500BC60AB4926
:0401C600BC5D3AF4EE
:0401C700BC59DA82C3
:0401C800BC56882673
:0401C900BC5345A935
:0401CA00BC501117FD
:0401CB00BC4CEAD866
:0401CC00BC49D27ADE
:0401CD00BC46C7D78E
:0401CE00BC43CA1054
:0401CF00BC40DA183E
:0401D000BC3DF6EE4E
:0401D100BC3B20F51E
:0401D200BC38562CB3
:0401D300BC3597F1AF
:0401D400BC32E562F2
:0401D500BC303EBA42
:0401D600BC2DA3CBCE
:0401D700BC2B13F733
:0401D800BC288FE7C9
:0401D900BC26156BC0
:0401DA00BC23A5BDE0
:0401DB00BC214118EA
:0401DC00BC1EE6233C
:0401DD00BC1C956051
:0401DE00BC1A4E08F1
:0401DF00BC18119F98
:0401E000BC15DE115B
:0401E100BC13B32474
:0401E200BC11923B7F
:0401E300BC0F7A1AB9
:0401E400BC0D6A6183
:0401E500BC0B639458
:0401E600BC09659F4C
:0401E700BC076F41A1
:0401E800BC05819140
:0401E900BC039B991F
:0401EA00BC01BD4354
:0401EB00BBFFCEB8D0
:0401EC00BBFC3187A0
:0401ED00BBF8A49027
:0401EE00BBF523C575
:0401EF00BBF1B28B23
:0401F000BBEE4E4CC8
:0401F100BBEAFABDAE
:0401F200BBE7B2E4D1
:0401F300BBE476D61D
:0401F400BBE14A9988
:0401F500BBDE2AA99A
:0401F600BBDB172038
:0401F700BBD810174A
:0401F800BBD5150856
:0401F900BBD225C090
:0401FA00BBCF41B87E
:0401FB00BBCC6ADC33
:0401FC00BBC99E8459
:0401FD00BBC6DDD7C9
:0401FE00BBC4273A1D
:0401FF00BBC17BFE07
:04020000BBBDB96762
:04020100BBB8A00DD9
:04020200BBB3AECE0E
:04020300BBAEE3AEFD
:04020400BBAA3E5003
:04020500BBA5BC5782
:04020600BBA15DA794
:04020700BB9D203E3D
:04020800BB9903A1FA
:04020900BB9505FBA1
:04020A00BB9126DDA1
:04020B00BB8D653111
:04020C00BB89BFDA11
:04020D00BB8635B5C2
:04020E00BB82C65693
:04020F00BB7EE0FAD8
:04021000BB7866EA67
:04021100BB721C8E12
:04021200BB6C009829
:04021300BB66118530
:04021400BB604E7904
:04021500BB5AB58D8E
:04021600BB5544D5BB
:04021700BB4FFBB12D
:04021800BB4AD8A75E
:04021900BB45DACC3B
:04021A00BB4100F0F4
:04021B00BB3C49415E
:04021C00BB37B389B0
:04021D00BB333E7041
:04021E00BB2EE87E8D
:04021F00BB2AB1C97C
:04022000BB26980958
:04022100BB229B075A
:04022200BB1EBA5BEA
:04022300BB1AF40509
:04022400BB17484B71
:04022500BB13B5C092
:04022600BB103C329B
:04022700BB0CD95FD4
:04022800BB098F4738
:04022900BB065AA610
:04022A00BB033BF1E6
:04022B00BB00325C86
:04022C00BAFA7AE8B8
:04022D00BAF4B7E286
:04022E00BAEF1CB453
:04022F00BAE9A5D8AB
:04023000BAE4548256
:04023100BADF25AC5F
:04023200BADA199685
:04023300BAD52F0603
:04023400BAD0642DAB
:04023500BACBB91275
:04023600BAC72C9A7D
:04023700BAC2BD7614
:04023800BABE6AE4FC
:04023900BABA347B9E
:04023A00BAB619A394
:04023B00BAB218CC6F
:04023C00BAAE319D88
:04023D00BAAA63D224
:04023E00BAA6AD6D42
:04023F00BAA30F1B34
:04024000BA9F87E3F7
:04024100BA9C16FD50
:04024200BA98BB9B10
:04024300BA9574D51F
:04024400BA9242D157
:04024500BA8F251D2A
:04024600BA8C1A4C08
:04024700BA8922B19D
:04024800BA863D3BFA
:04024900BA8369BC4F
:04024A00BA80A71FB0
:04024B00BA7BEBC8C7
:04024C00BA76AA13C1
:04024D00BA71887F7B
:04024E00BA6C8606FA
:04024F00BA67A16386
:04025000BA62DAEEC6
:04025100BA5E30FA67
:04025200BA59A29D56
:04025300BA552F8EDB
:04025400BA50D77F46
:04025500BA4C994CBA
:04025600BA487380AF
:04025700BA4466B08F
:04025800BA4071989F
:04025900BA3C93F325
:04025A00BA38CCE3FF
:04025B00BA351C6E26
:04025C00BA318053E0
:04025D00BA2DFA4478
:04025E00BA2A881020
:04025F00BA2729BBD6
:04026000BA23DF7C62
:04026100BA20A750C8
:04026200BA1D8184BC
:04026300BA1A6E67EE
:04026400BA176C5900
:04026500BA147BC18B
:04026600BA119BBB73
:04026700BA0ECB5FA1
:04026800BA0C0BB809
:04026900BA095B185B
:04026A00BA06B98C8B
:04026B00BA04262784
:04026C00BA01A2270A
:04026D00B9FE56CEB2
:04026E00B9F985D87D
:04026F00B9F4CE66AA
:04027000B9F0316A46
:04027100B9EBAD999F
:04027200B9E74301A4
:04027300B9E2EFA558
:04027400B9DEB471CA
:04027500B9DA90F76B
:04027600B9D6837002
:04027700B9D28BA0CD
:04027800B9CEA94D05
:04027900B9CADC0220
:04027A00B9C7225B83
:04027B00B9C37DB3D3
:04027C00B9BFEC1109
:04027D00B9BC6D4D4E
:04027E00B9B90142C7
:04027F00B9B5A78DD9
:04028000B9B25F515F
:04028100B9AF286287
:04028200B9AC02749D
:04028300B9A8ECE347
:04028400B9A5E79D94
:04028500B9A2F21513
:04028600B9A00BA36D
:04028700B99D34E405
:04028800B99A6C961D
:04028900B997B2452A
:04028A00B995066EAE
:04028B00B992682597
:04028C00B98FD74D02
:04028D00B98D537163
:04028E00B98ADCCC81
:04028F00B988726C4C
:04029000B9861452C5
:04029100B983C23C2F
:04029200B9817C0BA7
:04029300B97E8204AA
:04029400B97A22F918
:04029500B975D8B8A7
:04029600B971A52D68
:04029700B96D86585F
:04029800B9697BAF16
:04029900B96584E3DC
:04029A00B961A2287C
:04029B00B95DD2EB8C
:04029C00B95A15E056
:04029D00B9566BB132
:04029E00B952D28CF3
:04029F00B94F4C7C8B
:0402A000B94BD6CAB6
:0402A100B94871BC2B
:0402A200B9451D9CA1
:0402A300B941D9CEB6
:0402A400B93EA53585
:0402A500B93B7FF5ED
:0402A600B9386AB445
:0402A700B935632BD7
:0402A800B9326AA15C
:0402A900B92F809554
:0402AA00B92CA4A423
:0402AB00B929D58513
:0402AC00B92713DA81
:0402AD00B9245FE22F
:0402AE00B921B87248
:0402AF00B91F1D84D2
:0402B000B91C8E8F58
:0402B100B91A0BAEBD
:0402B200B91794776D
:0402B300B91529044C
:0402B400B912C8E9CA
:0402B500B91073B950
:0402B600B90E296BE9
:0402B700B90BE94C4A
:0402B800B909B4616B
:0402B900B90788A158
:0402BA00B905679A81
:0402BB00B903500D26
:0402BC00B9014275CD
:0402BD00B8FE7B6AA2
:0402BE00B8FA855BAA
:0402BF00B8F6A037B6
:0402C000B8F2CD7E45
:0402C100B8EF0B7215
:0402C200B8EB5B4EEC
:0402C300B8E7BB0DD0
:0402C400B8E42AD19F
:0402C500B8E0AB49A9
:0402C600B8DD3AF471
:0402C700B8D9DA8246
:0402C800B8D68826F6
:0402C900B8D345A9B8
:0402CA00B8D0111780
:0402CB00B8CCEAD8E9
:0402CC00B8C9D27A61
:0402CD00B8C6C7D711
:0402CE00B8C3CA10D7
:0402CF00B8C0DA18C1
:0402D000B8BDF6EED1
:0402D100B8BB20F5A1
:0402D200B8B8562C36
:0402D300B8B597F132
:0402D400B8B2E56275
:0402D500B8B03EBAC5
:0402D600B8ADA3CB51
:0402D700B8AB13F7B6
:0402D800B8A88FE74C
:0402D900B8A6156B43
:0402DA00B8A3A5BD63
:0402DB00B8A141186D
:0402DC00B89EE623BF
:0402DD00B89C9560D4
:0402DE00B89A4E0874
:0402DF00B898119F1B
:0402E000B895DE11DE
:0402E100B893B324F7
:0402E200B891923B02
:0402E300B88F7A1A3C
:0402E400B88D6A6106
:0402E500B88B6394DB
:0402E600B889659FCF
:0402E700B8876F4124
:0402E800B8858191C3
:0402E900B8839B99A2
:0402EA00B881BD43D7
:0402EB00B87FCEB852
:0402EC00B87C318722
:0402ED00B878A490A9
:0402EE00B87523C5F7
:0402EF00B871B28BA5
:0402F000B86E4E4C4A
:0402F100B86AFABD30
:0402F200B867B2E453
:0402F300B86476D69F
:0402F400B8614A990A
:0402F500B85E2AA91C
:0402F600B85B1720BA
:0402F700B8581017CC
:0402F800B8551508D8
:0402F900B85225C012
:0402FA00B84F41B800
:0402FB00B84C6ADCB5
:0402FC00B8499E84DB
:0402FD00B846DDD74B
:0402FE00B844273A9F
:0402FF00B8417BFE89
:04030000B83DB967E4
:04030100B838A00D5B
:04030200B833AECE90
:04030300B82EE3AE7F
:04030400B82A3E5085
:04030500B825BC5704
:04030600B8215DA716
:04030700B81D203EBF
:04030800B81903A17C
:04030900B81505FB23
:04030A00B81126DD23
:04030B00B80D653193
:04030C00B809BFDA93
:04030D00B80635B544
:04030E00B802C65615
:04030F00B7FEE0FA5B
:04031000B7F866EAEA
:04031100B7F21C8E95
:04031200B7EC0098AC
:04031300B7E61185B3
:04031400B7E04E7987
:04031500B7DAB58D11
:04031600B7D544D53E
:04031700B7CFFBB1B0
:04031800B7CAD8A7E1
:04031900B7C5DACCBE
:04031A00B7C100F077
:04031B00B7BC4941E1
:04031C00B7B7B38933
:04031D00B7B33E70C4
:04031E00B7AEE87E10
:04031F00B7AAB1C9FF
:04032000B7A69809DB
:04032100B7A29B07DD
:04032200B79EBA5B6D
:04032300B79AF4058C
:04032400B797484BF4
:04032500B793B5C015
:04032600B7903C321E
:04032700B78CD95F57
:04032800B7898F47BB
:04032900B7865AA693
:04032A00B7833BF169
:04032B00B780325C09
:04032C00B77A7AE83A
:04032D00B774B7E208
:04032E00B76F1CB4D5
:04032F00B769A5D82D
:04033000B7645482D8
:04033100B75F25ACE1
:04033200B75A199607
:04033300B7552F0685
:04033400B750642D2D
:04033500B74BB912F7
:04033600B7472C9AFF
:04033700B742BD7696
:04033800B73E6AE47E
:04033900B73A347B20
:04033A00B73619A316
:04033B00B73218CCF1
:04033C00B72E319D0A
:04033D00B72A63D2A6
:04033E00B726AD6DC4
:04033F00B7230F1BB6
:04034000B71F87E379
:04034100B71C16FDD2
:04034200B718BB9B92
:04034300B71574D5A1
:04034400B71242D1D9
:04034500B70F251DAC
:04034600B70C1A4C8A
:04034700B70922B11F
:04034800B7063D3B7C
:04034900B70369BCD1
:04034A00B700A71F32
:04034B00B6FBEBC84A
:04034C00B6F6AA1344
:04034D00B6F1887FFE
:04034E00B6EC86067D
:04034F00B6E7A16309
:04035000B6E2DAEE49
:04035100B6DE30FAEA
:04035200B6D9A29DD9
:04035300B6D52F8E5E
:04035400B6D0D77FC9
:04035500B6CC994C3D
:04035600B6C8738032
:04035700B6C466B012
:04035800B6C0719822
:04035900B6BC93F3A8
:04035A00B6B8CCE382
:04035B00B6B51C6EA9
:04035C00B6B1805363
:04035D00B6ADFA44FB
:04035E00B6AA8810A3
:04035F00B6A729BB59
:04036000B6A3DF7CE5
:04036100B6A0A7504B
:04036200B69D81843F
:04036300B69A6E6771
:04036400B6976C5983
:04036500B6947BC10E
:04036600B6919BBBF6
:04036700B68ECB5F24
:04036800B68C0BB88C
:04036900B6895B18DE
:04036A00B686B98C0E
:04036B00B684262707
:04036C00B681A2278D
:04036D00B67E56CE34
:04036E00B67985D8FF
:04036F00B674CE662C
:04037000B670316AC8
:04037100B66BAD9921
:04037200B667430126
:04037300B662EFA5DA
:04037400B65EB4714C
:04037500B65A90F7ED
:04037600B656837084
:04037700B6528BA04F
:04037800B64EA94D87
:04037900B64ADC02A2
:04037A00B647225B05
:04037B00B6437DB355
:04037C00B63FEC118B
:04037D00B63C6D4DD0
:04037E00B639014249
:04037F00B635A78D5B
:04038000B6325F51E1
:04038100B62F286209
:04038200B62C02741F
:04038300B628ECE3C9
:04038400B625E79D16
:04038500B622F21595
:04038600B6200BA3EF
:04038700B61D34E487
:04038800B61A6C969F
:04038900B617B245AC
:04038A00B615066E30
:04038B00B612682519
:04038C00B60FD74D84
:04038D00B60D5371E5
:04038E00B60ADCCC03
:04038F00B608726CCE
:04039000B606145247
:04039100B603C23CB1
:04039200B6017C0B29
:04039300B5FE82042D
:04039400B5FA22F99B
:04039500B5F5D8B82A
:04039600B5F1A52DEB
:04039700B5ED8658E2
:04039800B5E97BAF99
:04039900B5E584E35F
:04039A00B5E1A228FF
:04039B00B5DDD2EB0F
:04039C00B5DA15E0D9
:04039D00B5D66BB1B5
:04039E00B5D2D28C76
:04039F00B5CF4C7C0E
:0403A000B5CBD6CA39
:0403A100B5C871BCAE
:0403A200B5C51D9C24
:0403A300B5C1D9CE39
:0403A400B5BEA53508
:0403A500B5BB7FF570
:0403A600B5B86AB4C8
:0403A700B5B5632B5A
:0403A800B5B26AA1DF
:0403A900B5AF8095D7
:0403AA00B5ACA4A4A6
:0403AB00B5A9D58596
:0403AC00B5A713DA04
:0403AD00B5A45FE2B2
:0403AE00B5A1B872CB
:0403AF00B59F1D8455
:0403B000B59C8E8FDB
:0403B100B59A0BAE40
:0403B200B5979477F0
:0403B300B5952904CF
:0403B400B592C8E94D
:0403B500B59073B9D3
:0403B600B58E296B6C
:0403B700B58BE94CCD
:0403B800B589B461EE
:0403B900B58788A1DB
:0403BA00B585679A04
:0403BB00B583500DA9
:0403BC00B581427550
:0403BD00B57E7B6A24
:0403BE00B57A855B2C
:0403BF00B576A03738
:0403C000B572CD7EC7
:0403C100B56F0B7297
:0403C200B56B5B4E6E
:0403C300B567BB0D52
:0403C400B5642AD121
:0403C500B560AB492B
:0403C600B55D3AF4F3
:0403C700B559DA82C8
:0403C800B556882678
:0403C900B55345A93A
:0403CA00B550111702
:0403CB00B54CEAD86B
:0403CC00B549D27AE3
:0403CD00B546C7D793
:0403CE00B543CA1059
:0403CF00B540DA1843
:0403D000B53DF6EE53
:0403D100B53B20F523
:0403D200B538562CB8
:0403D300B53597F1B4
:0403D400B532E562F7
:0403D500B5303EBA47
:0403D600B52DA3CBD3
:0403D700B52B13F738
:0403D800B5288FE7CE
:0403D900B526156BC5
:0403DA00B523A5BDE5
:0403DB00B5214118EF
:0403DC00B51EE62341
:0403DD00B51C956056
:0403DE00B51A4E08F6
:0403DF00B518119F9D
:0403E000B515DE1160
:0403E100B513B32479
:0403E200B511923B84
:0403E300B50F7A1ABE
:0403E400B50D6A6188
:0403E500B50B63945D
:0403E600B509659F51
:0403E700B5076F41A6
:0403E800B505819145
:0403E900B5039B9924
:0403EA00B501BD4359
:0403EB00B4FFCEB8D5
:0403EC00B4FC3187A5
:0403ED00B4F8A4902C
:0403EE00B4F523C57A
:0403EF00B4F1B28B28
:0403F000B4EE4E4CCD
:0403F100B4EAFABDB3
:0403F200B4E7B2E4D6
:0403F300B4E476D622
:0403F400B4E14A998D
:0403F500B4DE2AA99F
:0403F600B4DB17203D
:0403F700B4D810174F
:0403F800B4D515085B
:0403F900B4D225C095
:0403FA00B4CF41B883
:0403FB00B4CC6ADC38
:0403FC00B4C99E845E
:0403FD00B4C6DDD7CE
:0403FE00B4C4273A22
:0403FF00B4C17BFE0C
:04040000B4BDB96767
:04040100B4B8A00DDE
:04040200B4B3AECE13
:04040300B4AEE3AE02
:04040400B4AA3E5008
:04040500B4A5BC5787
:04040600B4A15DA799
:04040700B49D203E42
:04040800B49903A1FF
:04040900B49505FBA6
:04040A00B49126DDA6
:04040B00B48D653116
:04040C00B489BFDA16
:04040D00B48635B5C7
:04040E00B482C65698
:04040F00B47EE0FADD
:04041000B47866EA6C
:04041100B4721C8E17
:04041200B46C00982E
:04041300B466118535
:04041400B4604E7909
:04041500B45AB58D93
:04041600B45544D5C0
:04041700B44FFBB132
:04041800B44AD8A763
:04041900B445DACC40
:04041A00B44100F0F9
:04041B00B43C494163
:04041C00B437B389B5
:04041D00B4333E7046
:04041E00B42EE87E92
:04041F00B42AB1C981
:04042000B42698095D
:04042100B4229B075F
:04042200B41EBA5BEF
:04042300B41AF4050E
:04042400B417484B76
:04042500B413B5C097
:04042600B4103C32A0
:04042700B40CD95FD9
:04042800B4098F473D
:04042900B4065AA615
:04042A00B4033BF1EB
:04042B00B400325C8B
:04042C00B3FA7AE8BD
:04042D00B3F4B7E28B
:04042E00B3EF1CB458
:04042F00B3E9A5D8B0
:04043000B3E454825B
:04043100B3DF25AC64
:04043200B3DA19968A
:04043300B3D52F0608
:04043400B3D0642DB0
:04043500B3CBB9127A
:04043600B3C72C9A82
:04043700B3C2BD7619
:04043800B3BE6AE401
:04043900B3BA347BA3
:04043A00B3B619A399
:04043B00B3B218CC74
:04043C00B3AE319D8D
:04043D00B3AA63D229
:04043E00B3A6AD6D47
:04043F00B3A30F1B39
:04044000B39F87E3FC
:04044100B39C16FD55
:04044200B398BB9B15
:04044300B39574D524
:04044400B39242D15C
:04044500B38F251D2F
:04044600B38C1A4C0D
:04044700B38922B1A2
:04044800B3863D3BFF
:04044900B38369BC54
:04044A00B380A71FB5
:04044B00B37BEBC8CC
:04044C00B376AA13C6
:04044D00B371887F80
:04044E00B36C8606FF
:04044F00B367A1638B
:04045000B362DAEECB
:04045100B35E30FA6C
:04045200B359A29D5B
:04045300B3552F8EE0
:04045400B350D77F4B
:04045500B34C994CBF
:04045600B3487380B4
:04045700B34466B094
:04045800B3407198A4
:04045900B33C93F32A
:04045A00B338CCE304
:04045B00B3351C6E2B
:04045C00B3318053E5
:04045D00B32DFA447D
:04045E00B32A881025
:04045F00B32729BBDB
:04046000B323DF7C67
:04046100B320A750CD
:04046200B31D8184C1
:04046300B31A6E67F3
:04046400B3176C5905
:04046500B3147BC190
:04046600B3119BBB78
:04046700B30ECB5FA6
:04046800B30C0BB80E
:04046900B3095B1860
:04046A00B306B98C90
:04046B00B304262789
:04046C00B301A2270F
:04046D00B2FE56CEB7
:04046E00B2F985D882
:04046F00B2F4CE66AF
:04047000B2F0316A4B
:04047100B2EBAD99A4
:04047200B2E74301A9
:04047300B2E2EFA55D
:04047400B2DEB471CF
:04047500B2DA90F770
:04047600B2D6837007
:04047700B2D28BA0D2
:04047800B2CEA94D0A
:04047900B2CADC0225
:04047A00B2C7225B88
:04047B00B2C37DB3D8
:04047C00B2BFEC110E
:04047D00B2BC6D4D53
:04047E00B2B90142CC
:04047F00B2B5A78DDE
:04048000B2B25F5164
:04048100B2AF28628C
:04048200B2AC0274A2
:04048300B2A8ECE34C
:04048400B2A5E79D99
:04048500B2A2F21518
:04048600B2A00BA372
:04048700B29D34E40A
:04048800B29A6C9622
:04048900B297B2452F
:04048A00B295066EB3
:04048B00B29268259C
:04048C00B28FD74D07
:04048D00B28D537168
:04048E00B28ADCCC86
:04048F00B288726C51
:04049000B2861452CA
:04049100B283C23C34
:04049200B2817C0BAC
:04049300B27E8204AF
:04049400B27A22F91D
:04049500B275D8B8AC
:04049600B271A52D6D
:04049700B26D865864
:04049800B2697BAF1B
:04049900B26584E3E1
:04049A00B261A22881
:04049B00B25DD2EB91
:04049C00B25A15E05B
:04049D00B2566BB137
:04049E00B252D28CF8
:04049F00B24F4C7C90
:0404A000B24BD6CABB
:0404A100B24871BC30
:0404A200B2451D9CA6
:0404A300B241D9CEBB
:0404A400B23EA5358A
:0404A500B23B7FF5F2
:0404A600B2386AB44A
:0404A700B235632BDC
:0404A800B2326AA161
:0404A900B22F809559
:0404AA00B22CA4A428
:0404AB00B229D58518
:0404AC00B22713DA86
:0404AD00B2245FE234
:0404AE00B221B8724D
:0404AF00B21F1D84D7
:0404B000B21C8E8F5D
:0404B100B21A0BAEC2
:0404B200B217947772
:0404B300B215290451
:0404B400B212C8E9CF
:0404B500B21073B955
:0404B600B20E296BEE
:0404B700B20BE94C4F
:0404B800B209B46170
:0404B900B20788A15D
:0404BA00B205679A86
:0404BB00B203500D2B
:0404BC00B2014275D2
:0404BD00B1FE7B6AA7
:0404BE00B1FA855BAF
:0404BF00B1F6A037BB
:0404C000B1F2CD7E4A
:0404C100B1EF0B721A
:0404C200B1EB5B4EF1
:0404C300B1E7BB0DD5
:0404C400B1E42AD1A4
:0404C500B1E0AB49AE
:0404C600B1DD3AF476
:0404C700B1D9DA824B
:0404C800B1D68826FB
:0404C900B1D345A9BD
:0404CA00B1D0111785
:0404CB00B1CCEAD8EE
:0404CC00B1C9D27A66
:0404CD00B1C6C7D716
:0404CE00B1C3CA10DC
:0404CF00B1C0DA18C6
:0404D000B1BDF6EED6
:0404D100B1BB20F5A6
:0404D200B1B8562C3B
:0404D300B1B597F137
:0404D400B1B2E5627A
:0404D500B1B03EBACA
:0404D600B1ADA3CB56
:0404D700B1AB13F7BB
:0404D800B1A88FE751
:0404D900B1A6156B48
:0404DA00B1A3A5BD68
:0404DB00B1A1411872
:0404DC00B19EE623C4
:0404DD00B19C9560D9
:0404DE00B19A4E0879
:0404DF00B198119F20
:0404E000B195DE11E3
:0404E100B193B324FC
:0404E200B191923B07
:0404E300B18F7A1A41
:0404E400B18D6A610B
:0404E500B18B6394E0
:0404E600B189659FD4
:0404E700B1876F4129
:0404E800B1858191C8
:0404E900B1839B99A7
:0404EA00B181BD43DC
:0404EB00B17FCEB857
:0404EC00B17C318727
:0404ED00B178A490AE
:0404EE00B17523C5FC
:0404EF00B171B28BAA
:0404F000B16E4E4C4F
:0404F100B16AFABD35
:0404F200B167B2E458
:0404F300B16476D6A4
:0404F400B1614A990F
:0404F500B15E2AA921
:0404F600B15B1720BF
:0404F700B1581017D1
:0404F800B1551508DD
:0404F900B15225C017
:0404FA00B14F41B805
:0404FB00B14C6ADCBA
:0404FC00B1499E84E0
:0404FD00B146DDD750
:0404FE00B144273AA4
:0404FF00B1417BFE8E
:04050000B13DB967E9
:04050100B138A00D60
:04050200B133AECE95
:04050300B12EE3AE84
:04050400B12A3E508A
:04050500B125BC5709
:04050600B1215DA71B
:04050700B11D203EC4
:04050800B11903A181
:04050900B11505FB28
:04050A00B11126DD28
:04050B00B10D653198
:04050C00B109BFDA98
:04050D00B10635B549
:04050E00B102C6561A
:04050F00B0FEE0FA60
:04051000B0F866EAEF
:04051100B0F21C8E9A
:04051200B0EC0098B1
:04051300B0E61185B8
:04051400B0E04E798C
:04051500B0DAB58D16
:04051600B0D544D543
:04051700B0CFFBB1B5
:04051800B0CAD8A7E6
:04051900B0C5DACCC3
:04051A00B0C100F07C
:04051B00B0BC4941E6
:04051C00B0B7B38938
:04051D00B0B33E70C9
:04051E00B0AEE87E15
:04051F00B0AAB1C904
:04052000B0A69809E0
:04052100B0A29B07E2
:04052200B09EBA5B72
:04052300B09AF40591
:04052400B097484BF9
:04052500B093B5C01A
:04052600B0903C3223
:04052700B08CD95F5C
:04052800B0898F47C0
:04052900B0865AA698
:04052A00B0833BF16E
:04052B00B080325C0E
:04052C00B07A7AE83F
:04052D00B074B7E20D
:04052E00B06F1CB4DA
:04052F00B069A5D832
:04053000B0645482DD
:04053100B05F25ACE6
:04053200B05A19960C
:04053300B0552F068A
:04053400B050642D32
:04053500B04BB912FC
:04053600B0472C9A04
:04053700B042BD769B
:04053800B03E6AE483
:04053900B03A347B25
:04053A00B03619A31B
:04053B00B03218CCF6
:04053C00B02E319D0F
:04053D00B02A63D2AB
:04053E00B026AD6DC9
:04053F00B0230F1BBB
:04054000B01F87E37E
:04054100B01C16FDD7
:04054200B018BB9B97
:04054300B01574D5A6
:04054400B01242D1DE
:04054500B00F251DB1
:04054600B00C1A4C8F
:04054700B00922B124
:04054800B0063D3B81
:04054900B00369BCD6
:04054A00B000A71F37
:04054B00AFFBEBC84F
:04054C00AFF6AA1349
:04054D00AFF1887F03
:04054E00AFEC860682
:04054F00AFE7A1630E
:04055000AFE2DAEE4E
:04055100AFDE30FAEF
:04055200AFD9A29DDE
:04055300AFD52F8E63
:04055400AFD0D77FCE
:04055500AFCC994C42
:04055600AFC8738037
:04055700AFC466B017
:04055800AFC0719827
:04055900AFBC93F3AD
:04055A00AFB8CCE387
:04055B00AFB51C6EAE
:04055C00AFB1805368
:04055D00AFADFA4400
:04055E00AFAA8810A8
:04055F00AFA729BB5E
:04056000AFA3DF7CEA
:04056100AFA0A75050
:04056200AF9D818444
:04056300AF9A6E6776
:04056400AF976C5988
:04056500AF947BC113
:04056600AF919BBBFB
:04056700AF8ECB5F29
:04056800AF8C0BB891
:04056900AF895B18E3
:04056A00AF86B98C13
:04056B00AF8426270C
:04056C00AF81A22792
:04056D00AF7E56CE39
:04056E00AF7985D804
:04056F00AF74CE6631
:04057000AF70316ACD
:04057100AF6BAD9926
:04057200AF6743012B
:04057300AF62EFA5DF
:04057400AF5EB47151
:04057500AF5A90F7F2
:04057600AF56837089
:04057700AF528BA054
:04057800AF4EA94D8C
:04057900AF4ADC02A7
:04057A00AF47225B0A
:04057B00AF437DB35A
:04057C00AF3FEC1190
:04057D00AF3C6D4DD5
:04057E00AF3901424E
:04057F00AF35A78D60
:04058000AF325F51E6
:04058100AF2F28620E
:04058200AF2C027424
:04058300AF28ECE3CE
:04058400AF25E79D1B
:04058500AF22F2159A
:04058600AF200BA3F4
:04058700AF1D34E48C
:04058800AF1A6C96A4
:04058900AF17B245B1
:04058A00AF15066E35
:04058B00AF1268251E
:04058C00AF0FD74D89
:04058D00AF0D5371EA
:04058E00AF0ADCCC08
:04058F00AF08726CD3
:04059000AF0614524C
:04059100AF03C23CB6
:04059200AF017C0B2E
:04059300AEFE820432
:04059400AEFA22F9A0
:04059500AEF5D8B82F
:04059600AEF1A52DF0
:04059700AEED8658E7
:04059800AEE97BAF9E
:04059900AEE584E364
:04059A00AEE1A22804
:04059B00AEDDD2EB14
:04059C00AEDA15E0DE
:04059D00AED66BB1BA
:04059E00AED2D28C7B
:04059F00AECF4C7C13
:0405A000AECBD6CA3E
:0405A100AEC871BCB3
:0405A200AEC51D9C29
:0405A300AEC1D9CE3E
:0405A400AEBEA5350D
:0405A500AEBB7FF575
:0405A600AEB86AB4CD
:0405A700AEB5632B5F
:0405A800AEB26AA1E4
:0405A900AEAF8095DC
:0405AA00AEACA4A4AB
:0405AB00AEA9D5859B
:0405AC00AEA713DA09
:0405AD00AEA45FE2B7
:0405AE00AEA1B872D0
:0405AF00AE9F1D845A
:0405B000AE9C8E8FE0
:0405B100AE9A0BAE45
:0405B200AE979477F5
:0405B300AE952904D4
:0405B400AE92C8E952
:0405B500AE9073B9D8
:0405B600AE8E296B71
:0405B700AE8BE94CD2
:0405B800AE89B461F3
:0405B900AE8788A1E0
:0405BA00AE85679A09
:0405BB00AE83500DAE
:0405BC00AE81427555
:0405BD00AE7E7B6A29
:0405BE00AE7A855B31
:0405BF00AE76A0373D
:0405C000AE72CD7ECC
:0405C100AE6F0B729C
:0405C200AE6B5B4E73
:0405C300AE67BB0D57
:0405C400AE642AD126
:0405C500AE60AB4930
:0405C600AE5D3AF4F8
:0405C700AE59DA82CD
:0405C800AE5688267D
:0405C900AE5345A93F
:0405CA00AE50111707
:0405CB00AE4CEAD870
:0405CC00AE49D27AE8
:0405CD00AE46C7D798
:0405CE00AE43CA105E
:0405CF00AE40DA1848
:0405D000AE3DF6EE58
:0405D100AE3B20F528
:0405D200AE38562CBD
:0405D300AE3597F1B9
:0405D400AE32E562FC
:0405D500AE303EBA4C
:0405D600AE2DA3CBD8
:0405D700AE2B13F73D
:0405D800AE288FE7D3
:0405D900AE26156BCA
:0405DA00AE23A5BDEA
:0405DB00AE214118F4
:0405DC00AE1EE62346
:0405DD00AE1C95605B
:0405DE00AE1A4E08FB
:0405DF00AE18119FA2
:0405E000AE15DE1165
:0405E100AE13B3247E
:0405E200AE11923B89
:0405E300AE0F7A1AC3
:0405E400AE0D6A618D
:0405E500AE0B639462
:0405E600AE09659F56
:0405E700AE076F41AB
:0405E800AE0581914A
:0405E900AE039B9929
:0405EA00AE01BD435E
:0405EB00ADFFCEB8DA
:0405EC00ADFC3187AA
:0405ED00ADF8A49031
:0405EE00ADF523C57F
:0405EF00ADF1B28B2D
:0405F000ADEE4E4CD2
:0405F100ADEAFABDB8
:0405F200ADE7B2E4DB
:0405F300ADE476D627
:0405F400ADE14A9992
:0405F500ADDE2AA9A4
:0405F600ADDB172042
:0405F700ADD8101754
:0405F800ADD5150860
:0405F900ADD225C09A
:0405FA00ADCF41B888
:0405FB00ADCC6ADC3D
:0405FC00ADC99E8463
:0405FD00ADC6DDD7D3
:0405FE00ADC4273A27
:0405FF00ADC17BFE11
:04060000ADBDB9676C
:04060100ADB8A00DE3
:04060200ADB3AECE18
:04060300ADAEE3AE07
:04060400ADAA3E500D
:04060500ADA5BC578C
:04060600ADA15DA79E
:04060700AD9D203E47
:04060800AD9903A104
:04060900AD9505FBAB
:04060A00AD9126DDAB
:04060B00AD8D65311B
:04060C00AD89BFDA1B
:04060D00AD8635B5CC
:04060E00AD82C6569D
:04060F00AD7EE0FAE2
:04061000AD7866EA71
:04061100AD721C8E1C
:04061200AD6C009833
:04061300AD6611853A
:04061400AD604E790E
:04061500AD5AB58D98
:04061600AD5544D5C5
:04061700AD4FFBB137
:04061800AD4AD8A768
:04061900AD45DACC45
:04061A00AD4100F0FE
:04061B00AD3C494168
:04061C00AD37B389BA
:04061D00AD333E704B
:04061E00AD2EE87E97
:04061F00AD2AB1C986
:04062000AD26980962
:04062100AD229B0764
:04062200AD1EBA5BF4
:04062300AD1AF40513
:04062400AD17484B7B
:04062500AD13B5C09C
:04062600AD103C32A5
:04062700AD0CD95FDE
:04062800AD098F4742
:04062900AD065AA61A
:04062A00AD033BF1F0
:04062B00AD00325C90
:04062C00ACFA7AE8C2
:04062D00ACF4B7E290
:04062E00ACEF1CB45D
:04062F00ACE9A5D8B5
:04063000ACE4548260
:04063100ACDF25AC69
:04063200ACDA19968F
:04063300ACD52F060D
:04063400ACD0642DB5
:04063500ACCBB9127F
:04063600ACC72C9A87
:04063700ACC2BD761E
:04063800ACBE6AE406
:04063900ACBA347BA8
:04063A00ACB619A39E
:04063B00ACB218CC79
:04063C00ACAE319D92
:04063D00ACAA63D22E
:04063E00ACA6AD6D4C
:04063F00ACA30F1B3E
:04064000AC9F87E301
:04064100AC9C16FD5A
:04064200AC98BB9B1A
:04064300AC9574D529
:04064400AC9242D161
:04064500AC8F251D34
:04064600AC8C1A4C12
:04064700AC8922B1A7
:04064800AC863D3B04
:04064900AC8369BC59
:04064A00AC80A71FBA
:04064B00AC7BEBC8D1
:04064C00AC76AA13CB
:04064D00AC71887F85
:04064E00AC6C860604
:04064F00AC67A16390
:04065000AC62DAEED0
:04065100AC5E30FA71
:04065200AC59A29D60
:04065300AC552F8EE5
:04065400AC50D77F50
:04065500AC4C994CC4
:04065600AC487380B9
:04065700AC4466B099
:04065800AC407198A9
:04065900AC3C93F32F
:04065A00AC38CCE309
:04065B00AC351C6E30
:04065C00AC318053EA
:04065D00AC2DFA4482
:04065E00AC2A88102A
:04065F00AC2729BBE0
:04066000AC23DF7C6C
:04066100AC20A750D2
:04066200AC1D8184C6
:04066300AC1A6E67F8
:04066400AC176C590A
:04066500AC147BC195
:04066600AC119BBB7D
:04066700AC0ECB5FAB
:04066800AC0C0BB813
:04066900AC095B1865
:04066A00AC06B98C95
:04066B00AC0426278E
:04066C00AC01A22714
:04066D00ABFE56CEBC
:04066E00ABF985D887
:04066F00ABF4CE66B4
:04067000ABF0316A50
:04067100ABEBAD99A9
:04067200ABE74301AE
:04067300ABE2EFA562
:04067400ABDEB471D4
:04067500ABDA90F775
:04067600ABD683700C
:04067700ABD28BA0D7
:04067800ABCEA94D0F
:04067900ABCADC022A
:04067A00ABC7225B8D
:04067B00ABC37DB3DD
:04067C00ABBFEC1113
:04067D00ABBC6D4D58
:04067E00ABB90142D1
:04067F00ABB5A78DE3
:04068000ABB25F5169
:04068100ABAF286291
:04068200ABAC0274A7
:04068300ABA8ECE351
:04068400ABA5E79D9E
:04068500ABA2F2151D
:04068600ABA00BA377
:04068700AB9D34E40F
:04068800AB9A6C9627
:04068900AB97B24534
:04068A00AB95066EB8
:04068B00AB926825A1
:04068C00AB8FD74D0C
:04068D00AB8D53716D
:04068E00AB8ADCCC8B
:04068F00AB88726C56
:04069000AB861452CF
:04069100AB83C23C39
:04069200AB817C0BB1
:04069300AB7E8204B4
:04069400AB7A22F922
:04069500AB75D8B8B1
:04069600AB71A52D72
:04069700AB6D865869
:04069800AB697BAF20
:04069900AB6584E3E6
:04069A00AB61A22886
:04069B00AB5DD2EB96
:04069C00AB5A15E060
:04069D00AB566BB13C
:04069E00AB52D28CFD
:04069F00AB4F4C7C95
:0406A000AB4BD6CAC0
:0406A100AB4871BC35
:0406A200AB451D9CAB
:0406A300AB41D9CEC0
:0406A400AB3EA5358F
:0406A500AB3B7FF5F7
:0406A600AB386AB44F
:0406A700AB35632BE1
:0406A800AB326AA166
:0406A900AB2F80955E
:0406AA00AB2CA4A42D
:0406AB00AB29D5851D
:0406AC00AB2713DA8B
:0406AD00AB245FE239
:0406AE00AB21B87252
:0406AF00AB1F1D84DC
:0406B000AB1C8E8F62
:0406B100AB1A0BAEC7
:0406B200AB17947777
:0406B300AB15290456
:0406B400AB12C8E9D4
:0406B500AB1073B95A
:0406B600AB0E296BF3
:0406B700AB0BE94C54
:0406B800AB09B46175
:0406B900AB0788A162
:0406BA00AB05679A8B
:0406BB00AB03500D30
:0406BC00AB014275D7
:0406BD00AAFE7B6AAC
:0406BE00AAFA855BB4
:0406BF00AAF6A037C0
:0406C000AAF2CD7E4F
:0406C100AAEF0B721F
:0406C200AAEB5B4EF6
:0406C300AAE7BB0DDA
:0406C400AAE42AD1A9
:0406C500AAE0AB49B3
:0406C600AADD3AF47B
:0406C700AAD9DA8250
:0406C800AAD6882600
:0406C900AAD345A9C2
:0406CA00AAD011178A
:0406CB00AACCEAD8F3
:0406CC00AAC9D27A6B
:0406CD00AAC6C7D71B
:0406CE00AAC3CA10E1
:0406CF00AAC0DA18CB
:0406D000AABDF6EEDB
:0406D100AABB20F5AB
:0406D200AAB8562C40
:0406D300AAB597F13C
:0406D400AAB2E5627F
:0406D500AAB03EBACF
:0406D600AAADA3CB5B
:0406D700AAAB13F7C0
:0406D800AAA88FE756
:0406D900AAA6156B4D
:0406DA00AAA3A5BD6D
:0406DB00AAA1411877
:0406DC00AA9EE623C9
:0406DD00AA9C9560DE
:0406DE00AA9A4E087E
:0406DF00AA98119F25
:0406E000AA95DE11E8
:0406E100AA93B32401
:0406E200AA91923B0C
:0406E300AA8F7A1A46
:0406E400AA8D6A6110
:0406E500AA8B6394E5
:0406E600AA89659FD9
:0406E700AA876F412E
:0406E800AA858191CD
:0406E900AA839B99AC
:0406EA00AA81BD43E1
:0406EB00AA7FCEB85C
:0406EC00AA7C31872C
:0406ED00AA78A490B3
:0406EE00AA7523C501
:0406EF00AA71B28BAF
:0406F000AA6E4E4C54
:0406F100AA6AFABD3A
:0406F200AA67B2E45D
:0406F300AA6476D6A9
:0406F400AA614A9914
:0406F500AA5E2AA926
:0406F600AA5B1720C4
:0406F700AA581017D6
:0406F800AA551508E2
:0406F900AA5225C01C
:0406FA00AA4F41B80A
:0406FB00AA4C6ADCBF
:0406FC00AA499E84E5
:0406FD00AA46DDD755
:0406FE00AA44273AA9
:0406FF00AA417BFE93
:04070000AA3DB967EE
:04070100AA38A00D65
:04070200AA33AECE9A
:04070300AA2EE3AE89
:04070400AA2A3E508F
:04070500AA25BC570E
:04070600AA215DA720
:04070700AA1D203EC9
:04070800AA1903A186
:04070900AA1505FB2D
:04070A00AA1126DD2D
:04070B00AA0D65319D
:04070C00AA09BFDA9D
:04070D00AA0635B54E
:04070E00AA02C6561F
:04070F00A9FEE0FA65
:04071000A9F866EAF4
:04071100A9F21C8E9F
:04071200A9EC0098B6
:04071300A9E61185BD
:04071400A9E04E7991
:04071500A9DAB58D1B
:04071600A9D544D548
:04071700A9CFFBB1BA
:04071800A9CAD8A7EB
:04071900A9C5DACCC8
:04071A00A9C100F081
:04071B00A9BC4941EB
:04071C00A9B7B3893D
:04071D00A9B33E70CE
:04071E00A9AEE87E1A
:04071F00A9AAB1C909
:04072000A9A69809E5
:04072100A9A29B07E7
:04072200A99EBA5B77
:04072300A99AF40596
:04072400A997484BFE
:04072500A993B5C01F
:04072600A9903C3228
:04072700A98CD95F61
:04072800A9898F47C5
:04072900A9865AA69D
:04072A00A9833BF173
:04072B00A980325C13
:04072C00A97A7AE844
:04072D00A974B7E212
:04072E00A96F1CB4DF
:04072F00A969A5D837
:04073000A9645482E2
:04073100A95F25ACEB
:04073200A95A199611
:04073300A9552F068F
:04073400A950642D37
:04073500A94BB91201
:04073600A9472C9A09
:04073700A942BD76A0
:04073800A93E6AE488
:04073900A93A347B2A
:04073A00A93619A320
:04073B00A93218CCFB
:04073C00A92E319D14
:04073D00A92A63D2B0
:04073E00A926AD6DCE
:04073F00A9230F1BC0
:04074000A91F87E383
:04074100A91C16FDDC
:04074200A918BB9B9C
:04074300A91574D5AB
:04074400A91242D1E3
:04074500A90F251DB6
:04074600A90C1A4C94
:04074700A90922B129
:04074800A9063D3B86
:04074900A90369BCDB
:04074A00A900A71F3C
:04074B00A8FBEBC854
:04074C00A8F6AA134E
:04074D00A8F1887F08
:04074E00A8EC860687
:04074F00A8E7A16313
:04075000A8E2DAEE53
:04075100A8DE30FAF4
:04075200A8D9A29DE3
:04075300A8D52F8E68
:04075400A8D0D77FD3
:04075500A8CC994C47
:04075600A8C873803C
:04075700A8C466B01C
:04075800A8C071982C
:04075900A8BC93F3B2
:04075A00A8B8CCE38C
:04075B00A8B51C6EB3
:04075C00A8B180536D
:04075D00A8ADFA4405
:04075E00A8AA8810AD
:04075F00A8A729BB63
:04076000A8A3DF7CEF
:04076100A8A0A75055
:04076200A89D818449
:04076300A89A6E677B
:04076400A8976C598D
:04076500A8947BC118
:04076600A8919BBB00
:04076700A88ECB5F2E
:04076800A88C0BB896
:04076900A8895B18E8
:04076A00A886B98C18
:04076B00A884262711
:04076C00A881A22797
:04076D00A87E56CE3E
:04076E00A87985D809
:04076F00A874CE6636
:04077000A870316AD2
:04077100A86BAD992B
:04077200A867430130
:04077300A862EFA5E4
:04077400A85EB47156
:04077500A85A90F7F7
:04077600A85683708E
:04077700A8528BA059
:04077800A84EA94D91
:04077900A84ADC02AC
:04077A00A847225B0F
:04077B00A8437DB35F
:04077C00A83FEC1195
:04077D00A83C6D4DDA
:04077E00A839014253
:04077F00A835A78D65
:04078000A8325F51EB
:04078100A82F286213
:04078200A82C027429
:04078300A828ECE3D3
:04078400A825E79D20
:04078500A822F2159F
:04078600A8200BA3F9
:04078700A81D34E491
:04078800A81A6C96A9
:04078900A817B245B6
:04078A00A815066E3A
:04078B00A812682523
:04078C00A80FD74D8E
:04078D00A80D5371EF
:04078E00A80ADCCC0D
:04078F00A808726CD8
:04079000A806145251
:04079100A803C23CBB
:04079200A8017C0B33
:04079300A7FE820437
:04079400A7FA22F9A5
:04079500A7F5D8B834
:04079600A7F1A52DF5
:04079700A7ED8658EC
:04079800A7E97BAFA3
:04079900A7E584E369
:04079A00A7E1A22809
:04079B00A7DDD2EB19
:04079C00A7DA15E0E3
:04079D00A7D66BB1BF
:04079E00A7D2D28C80
:04079F00A7CF4C7C18
:0407A000A7CBD6CA43
:0407A100A7C871BCB8
:0407A200A7C51D9C2E
:0407A300A7C1D9CE43
:0407A400A7BEA53512
:0407A500A7BB7FF57A
:0407A600A7B86AB4D2
:0407A700A7B5632B64
:0407A800A7B26AA1E9
:0407A900A7AF8095E1
:0407AA00A7ACA4A4B0
:0407AB00A7A9D585A0
:0407AC00A7A713DA0E
:0407AD00A7A45FE2BC
:0407AE00A7A1B872D5
:0407AF00A79F1D845F
:0407B000A79C8E8FE5
:0407B100A79A0BAE4A
:0407B200A7979477FA
:0407B300A7952904D9
:0407B400A792C8E957
:0407B500A79073B9DD
:0407B600A78E296B76
:0407B700A78BE94CD7
:0407B800A789B461F8
:0407B900A78788A1E5
:0407BA00A785679A0E
:0407BB00A783500DB3
:0407BC00A78142755A
:0407BD00A77E7B6A2E
:0407BE00A77A855B36
:0407BF00A776A03742
:0407C000A772CD7ED1
:0407C100A76F0B72A1
:0407C200A76B5B4E78
:0407C300A767BB0D5C
:0407C400A7642AD12B
:0407C500A760AB4935
:0407C600A75D3AF4FD
:0407C700A759DA82D2
:0407C800A756882682
:0407C900A75345A944
:0407CA00A75011170C
:0407CB00A74CEAD875
:0407CC00A749D27AED
:0407CD00A746C7D79D
:0407CE00A743CA1063
:0407CF00A740DA184D
:0407D000A73DF6EE5D
:0407D100A73B20F52D
:0407D200A738562CC2
:0407D300A73597F1BE
:0407D400A732E56201
:0407D500A7303EBA51
:0407D600A72DA3CBDD
:0407D700A72B13F742
:0407D800A7288FE7D8
:0407D900A726156BCF
:0407DA00A723A5BDEF
:0407DB00A7214118F9
:0407DC00A71EE6234B
:0407DD00A71C956060
:0407DE00A71A4E0800
:0407DF00A718119FA7
:0407E000A715DE116A
:0407E100A713B32483
:0407E200A711923B8E
:0407E300A70F7A1AC8
:0407E400A70D6A6192
:0407E500A70B639467
:0407E600A709659F5B
:0407E700A7076F41B0
:0407E800A70581914F
:0407E900A7039B992E
:0407EA00A701BD4363
:0407EB00A6FFCEB8DF
:0407EC00A6FC3187AF
:0407ED00A6F8A49036
:0407EE00A6F523C584
:0407EF00A6F1B28B32
:0407F000A6EE4E4CD7
:0407F100A6EAFABDBD
:0407F200A6E7B2E4E0
:0407F300A6E476D62C
:0407F400A6E14A9997
:0407F500A6DE2AA9A9
:0407F600A6DB172047
:0407F700A6D8101759
:0407F800A6D5150865
:0407F900A6D225C09F
:0407FA00A6CF41B88D
:0407FB00A6CC6ADC42
:0407FC00A6C99E8468
:0407FD00A6C6DDD7D8
:0407FE00A6C4273A2C
:0407FF00A6C17BFE16
:04080000A6BDB96771
:04080100A6B8A00DE8
:04080200A6B3AECE1D
:04080300A6AEE3AE0C
:04080400A6AA3E5012
:04080500A6A5BC5791
:04080600A6A15DA7A3
:04080700A69D203E4C
:04080800A69903A109
:04080900A69505FBB0
:04080A00A69126DDB0
:04080B00A68D653120
:04080C00A689BFDA20
:04080D00A68635B5D1
:04080E00A682C656A2
:04080F00A67EE0FAE7
:04081000A67866EA76
:04081100A6721C8E21
:04081200A66C009838
:04081300A66611853F
:04081400A6604E7913
:04081500A65AB58D9D
:04081600A65544D5CA
:04081700A64FFBB13C
:04081800A64AD8A76D
:04081900A645DACC4A
:04081A00A64100F003
:04081B00A63C49416D
:04081C00A637B389BF
:04081D00A6333E7050
:04081E00A62EE87E9C
:04081F00A62AB1C98B
:04082000A626980967
:04082100A6229B0769
:04082200A61EBA5BF9
:04082300A61AF40518
:04082400A617484B80
:04082500A613B5C0A1
:04082600A6103C32AA
:04082700A60CD95FE3
:04082800A6098F4747
:04082900A6065AA61F
:04082A00A6033BF1F5
:04082B00A600325C95
:04082C00A5FA7AE8C7
:04082D00A5F4B7E295
:04082E00A5EF1CB462
:04082F00A5E9A5D8BA
:04083000A5E4548265
:04083100A5DF25AC6E
:04083200A5DA199694
:04083300A5D52F0612
:04083400A5D0642DBA
:04083500A5CBB91284
:04083600A5C72C9A8C
:04083700A5C2BD7623
:04083800A5BE6AE40B
:04083900A5BA347BAD
:04083A00A5B619A3A3
:04083B00A5B218CC7E
:04083C00A5AE319D97
:04083D00A5AA63D233
:04083E00A5A6AD6D51
:04083F00A5A30F1B43
:04084000A59F87E306
:04084100A59C16FD5F
:04084200A598BB9B1F
:04084300A59574D52E
:04084400A59242D166
:04084500A58F251D39
:04084600A58C1A4C17
:04084700A58922B1AC
:04084800A5863D3B09
:04084900A58369BC5E
:04084A00A580A71FBF
:04084B00A57BEBC8D6
:04084C00A576AA13D0
:04084D00A571887F8A
:04084E00A56C860609
:04084F00A567A16395
:04085000A562DAEED5
:04085100A55E30FA76
:04085200A559A29D65
:04085300A5552F8EEA
:04085400A550D77F55
:04085500A54C994CC9
:04085600A5487380BE
:04085700A54466B09E
:04085800A5407198AE
:04085900A53C93F334
:04085A00A538CCE30E
:04085B00A5351C6E35
:04085C00A5318053EF
:04085D00A52DFA4487
:04085E00A52A88102F
:04085F00A52729BBE5
:04086000A523DF7C71
:04086100A520A750D7
:04086200A51D8184CB
:04086300A51A6E67FD
:04086400A5176C590F
:04086500A5147BC19A
:04086600A5119BBB82
:04086700A50ECB5FB0
:04086800A50C0BB818
:04086900A5095B186A
:04086A00A506B98C9A
:04086B00A504262793
:04086C00A501A22719
:04086D00A4FE56CEC1
:04086E00A4F985D88C
:04086F00A4F4CE66B9
:04087000A4F0316A55
:04087100A4EBAD99AE
:04087200A4E74301B3
:04087300A4E2EFA567
:04087400A4DEB471D9
:04087500A4DA90F77A
:04087600A4D6837011
:04087700A4D28BA0DC
:04087800A4CEA94D14
:04087900A4CADC022F
:04087A00A4C7225B92
:04087B00A4C37DB3E2
:04087C00A4BFEC1118
:04087D00A4BC6D4D5D
:04087E00A4B90142D6
:04087F00A4B5A78DE8
:04088000A4B25F516E
:04088100A4AF286296
:04088200A4AC0274AC
:04088300A4A8ECE356
:04088400A4A5E79DA3
:04088500A4A2F21522
:04088600A4A00BA37C
:04088700A49D34E414
:04088800A49A6C962C
:04088900A497B24539
:04088A00A495066EBD
:04088B00A4926825A6
:04088C00A48FD74D11
:04088D00A48D537172
:04088E00A48ADCCC90
:04088F00A488726C5B
:04089000A4861452D4
:04089100A483C23C3E
:04089200A4817C0BB6
:04089300A47E8204B9
:04089400A47A22F927
:04089500A475D8B8B6
:04089600A471A52D77
:04089700A46D86586E
:04089800A4697BAF25
:04089900A46584E3EB
:04089A00A461A2288B
:04089B00A45DD2EB9B
:04089C00A45A15E065
:04089D00A4566BB141
:04089E00A452D28C02
:04089F00A44F4C7C9A
:0408A000A44BD6CAC5
:0408A100A44871BC3A
:0408A200A4451D9CB0
:0408A300A441D9CEC5
:0408A400A43EA53594
:0408A500A43B7FF5FC
:0408A600A4386AB454
:0408A700A435632BE6
:0408A800A4326AA16B
:0408A900A42F809563
:0408AA00A42CA4A432
:0408AB00A429D58522
:0408AC00A42713DA90
:0408AD00A4245FE23E
:0408AE00A421B87257
:0408AF00A41F1D84E1
:0408B000A41C8E8F67
:0408B100A41A0BAECC
:0408B200A41794777C
:0408B300A41529045B
:0408B400A412C8E9D9
:0408B500A41073B95F
:0408B600A40E296BF8
:0408B700A40BE94C59
:0408B800A409B4617A
:0408B900A40788A167
:0408BA00A405679A90
:0408BB00A403500D35
:0408BC00A4014275DC
:0408BD00A3FE7B6AB1
:0408BE00A3FA855BB9
:0408BF00A3F6A037C5
:0408C000A3F2CD7E54
:0408C100A3EF0B7224
:0408C200A3EB5B4EFB
:0408C300A3E7BB0DDF
:0408C400A3E42AD1AE
:0408C500A3E0AB49B8
:0408C600A3DD3AF480
:0408C700A3D9DA8255
:0408C800A3D6882605
:0408C900A3D345A9C7
:0408CA00A3D011178F
:0408CB00A3CCEAD8F8
:0408CC00A3C9D27A70
:0408CD00A3C6C7D720
:0408CE00A3C3CA10E6
:0408CF00A3C0DA18D0
:0408D000A3BDF6EEE0
:0408D100A3BB20F5B0
:0408D200A3B8562C45
:0408D300A3B597F141
:0408D400A3B2E56284
:0408D500A3B03EBAD4
:0408D600A3ADA3CB60
:0408D700A3AB13F7C5
:0408D800A3A88FE75B
:0408D900A3A6156B52
:0408DA00A3A3A5BD72
:0408DB00A3A141187C
:0408DC00A39EE623CE
:0408DD00A39C9560E3
:0408DE00A39A4E0883
:0408DF00A398119F2A
:0408E000A395DE11ED
:0408E100A393B32406
:0408E200A391923B11
:0408E300A38F7A1A4B
:0408E400A38D6A6115
:0408E500A38B6394EA
:0408E600A389659FDE
:0408E700A3876F4133
:0408E800A3858191D2
:0408E900A3839B99B1
:0408EA00A381BD43E6
:0408EB00A37FCEB861
:0408EC00A37C318731
:0408ED00A378A490B8
:0408EE00A37523C506
:0408EF00A371B28BB4
:0408F000A36E4E4C59
:0408F100A36AFABD3F
:0408F200A367B2E462
:0408F300A36476D6AE
:0408F400A3614A9919
:0408F500A35E2AA92B
:0408F600A35B1720C9
:0408F700A3581017DB
:0408F800A3551508E7
:0408F900A35225C021
:0408FA00A34F41B80F
:0408FB00A34C6ADCC4
:0408FC00A3499E84EA
:0408FD00A346DDD75A
:0408FE00A344273AAE
:0408FF00A3417BFE98
:04090000A33DB967F3
:04090100A338A00D6A
:04090200A333AECE9F
:04090300A32EE3AE8E
:04090400A32A3E5094
:04090500A325BC5713
:04090600A3215DA725
:04090700A31D203ECE
:04090800A31903A18B
:04090900A31505FB32
:04090A00A31126DD32
:04090B00A30D6531A2
:04090C00A309BFDAA2
:04090D00A30635B553
:04090E00A302C65624
:04090F00A2FEE0FA6A
:04091000A2F866EAF9
:04091100A2F21C8EA4
:04091200A2EC0098BB
:04091300A2E61185C2
:04091400A2E04E7996
:04091500A2DAB58D20
:04091600A2D544D54D
:04091700A2CFFBB1BF
:04091800A2CAD8A7F0
:04091900A2C5DACCCD
:04091A00A2C100F086
:04091B00A2BC4941F0
:04091C00A2B7B38942
:04091D00A2B33E70D3
:04091E00A2AEE87E1F
:04091F00A2AAB1C90E
:04092000A2A69809EA
:04092100A2A29B07EC
:04092200A29EBA5B7C
:04092300A29AF4059B
:04092400A297484B03
:04092500A293B5C024
:04092600A2903C322D
:04092700A28CD95F66
:04092800A2898F47CA
:04092900A2865AA6A2
:04092A00A2833BF178
:04092B00A280325C18
:04092C00A27A7AE849
:04092D00A274B7E217
:04092E00A26F1CB4E4
:04092F00A269A5D83C
:04093000A2645482E7
:04093100A25F25ACF0
:04093200A25A199616
:04093300A2552F0694
:04093400A250642D3C
:04093500A24BB91206
:04093600A2472C9A0E
:04093700A242BD76A5
:04093800A23E6AE48D
:04093900A23A347B2F
:04093A00A23619A325
:04093B00A23218CC00
:04093C00A22E319D19
:04093D00A22A63D2B5
:04093E00A226AD6DD3
:04093F00A2230F1BC5
:04094000A21F87E388
:04094100A21C16FDE1
:04094200A218BB9BA1
:04094300A21574D5B0
:04094400A21242D1E8
:04094500A20F251DBB
:04094600A20C1A4C99
:04094700A20922B12E
:04094800A2063D3B8B
:04094900A20369BCE0
:04094A00A200A71F41
:04094B00A1FBEBC859
:04094C00A1F6AA1353
:04094D00A1F1887F0D
:04094E00A1EC86068C
:04094F00A1E7A16318
:04095000A1E2DAEE58
:04095100A1DE30FAF9
:04095200A1D9A29DE8
:04095300A1D52F8E6D
:04095400A1D0D77FD8
:04095500A1CC994C4C
:04095600A1C8738041
:04095700A1C466B021
:04095800A1C0719831
:04095900A1BC93F3B7
:04095A00A1B8CCE391
:04095B00A1B51C6EB8
:04095C00A1B1805372
:04095D00A1ADFA440A
:04095E00A1AA8810B2
:04095F00A1A729BB68
:04096000A1A3DF7CF4
:04096100A1A0A7505A
:04096200A19D81844E
:04096300A19A6E6780
:04096400A1976C5992
:04096500A1947BC11D
:04096600A1919BBB05
:04096700A18ECB5F33
:04096800A18C0BB89B
:04096900A1895B18ED
:04096A00A186B98C1D
:04096B00A184262716
:04096C00A181A2279C
:04096D00A17E56CE43
:04096E00A17985D80E
:04096F00A174CE663B
:04097000A170316AD7
:04097100A16BAD9930
:04097200A167430135
:04097300A162EFA5E9
:04097400A15EB4715B
:04097500A15A90F7FC
:04097600A156837093
:04097700A1528BA05E
:04097800A14EA94D96
:04097900A14ADC02B1
:04097A00A147225B14
:04097B00A1437DB364
:04097C00A13FEC119A
:04097D00A13C6D4DDF
:04097E00A139014258
:04097F00A135A78D6A
:04098000A1325F51F0
:04098100A12F286218
:04098200A12C02742E
:04098300A128ECE3D8
:04098400A125E79D25
:04098500A122F215A4
:04098600A1200BA3FE
:04098700A11D34E496
:04098800A11A6C96AE
:04098900A117B245BB
:04098A00A115066E3F
:04098B00A112682528
:04098C00A10FD74D93
:04098D00A10D5371F4
:04098E00A10ADCCC12
:04098F00A108726CDD
:04099000A106145256
:04099100A103C23CC0
:04099200A1017C0B38
:04099300A0FE82043C
:04099400A0FA22F9AA
:04099500A0F5D8B839
:04099600A0F1A52DFA
:04099700A0ED8658F1
:04099800A0E97BAFA8
:04099900A0E584E36E
:04099A00A0E1A2280E
:04099B00A0DDD2EB1E
:04099C00A0DA15E0E8
:04099D00A0D66BB1C4
:04099E00A0D2D28C85
:04099F00A0CF4C7C1D
:0409A000A0CBD6CA48
:0409A100A0C871BCBD
:0409A200A0C51D9C33
:0409A300A0C1D9CE48
:0409A400A0BEA53517
:0409A500A0BB7FF57F
:0409A600A0B86AB4D7
:0409A700A0B5632B69
:0409A800A0B26AA1EE
:0409A900A0AF8095E6
:0409AA00A0ACA4A4B5
:0409AB00A0A9D585A5
:0409AC00A0A713DA13
:0409AD00A0A45FE2C1
:0409AE00A0A1B872DA
:0409AF00A09F1D8464
:0409B000A09C8E8FEA
:0409B100A09A0BAE4F
:0409B200A0979477FF
:0409B300A0952904DE
:0409B400A092C8E95C
:0409B500A09073B9E2
:0409B600A08E296B7B
:0409B700A08BE94CDC
:0409B800A089B461FD
:0409B900A08788A1EA
:0409BA00A085679A13
:0409BB00A083500DB8
:0409BC00A08142755F
:0409BD00A07E7B6A33
:0409BE00A07A855B3B
:0409BF00A076A03747
:0409C000A072CD7ED6
:0409C100A06F0B72A6
:0409C200A06B5B4E7D
:0409C300A067BB0D61
:0409C400A0642AD130
:0409C500A060AB493A
:0409C600A05D3AF402
:0409C700A059DA82D7
:0409C800A056882687
:0409C900A05345A949
:0409CA00A050111711
:0409CB00A04CEAD87A
:0409CC00A049D27AF2
:0409CD00A046C7D7A2
:0409CE00A043CA1068
:0409CF00A040DA1852
:0409D000A03DF6EE62
:0409D100A03B20F532
:0409D200A038562CC7
:0409D300A03597F1C3
:0409D400A032E56206
:0409D500A0303EBA56
:0409D600A02DA3CBE2
:0409D700A02B13F747
:0409D800A0288FE7DD
:0409D900A026156BD4
:0409DA00A023A5BDF4
:0409DB00A0214118FE
:0409DC00A01EE62350
:0409DD00A01C956065
:0409DE00A01A4E0805
:0409DF00A018119FAC
:0409E000A015DE116F
:0409E100A013B32488
:0409E200A011923B93
:0409E300A00F7A1ACD
:0409E400A00D6A6197
:0409E500A00B63946C
:0409E600A009659F60
:0409E700A0076F41B5
:0409E800A005819154
:0409E900A0039B9933
:0409EA00A001BD4368
:0409EB009FFFCEB8E4
:0409EC009FFC3187B4
:0409ED009FF8A4903B
:0409EE009FF523C589
:0409EF009FF1B28B37
:0409F0009FEE4E4CDC
:0409F1009FEAFABDC2
:0409F2009FE7B2E4E5
:0409F3009FE476D631
:0409F4009FE14A999C
:0409F5009FDE2AA9AE
:0409F6009FDB17204C
:0409F7009FD810175E
:0409F8009FD515086A
:0409F9009FD225C0A4
:0409FA009FCF41B892
:0409FB009FCC6ADC47
:0409FC009FC99E846D
:0409FD009FC6DDD7DD
:0409FE009FC4273A31
:0409FF009FC17BFE1B
:040A00009FBDB96776
:040A01009FB8A00DED
:040A02009FB3AECE22
:040A03009FAEE3AE11
:040A04009FAA3E5017
:040A05009FA5BC5796
:040A06009FA15DA7A8
:040A07009F9D203E51
:040A08009F9903A10E
:040A09009F9505FBB5
:040A0A009F9126DDB5
:040A0B009F8D653125
:040A0C009F89BFDA25
:040A0D009F8635B5D6
:040A0E009F82C656A7
:040A0F009F7EE0FAEC
:040A10009F7866EA7B
:040A11009F721C8E26
:040A12009F6C00983D
:040A13009F66118544
:040A14009F604E7918
:040A15009F5AB58DA2
:040A16009F5544D5CF
:040A17009F4FFBB141
:040A18009F4AD8A772
:040A19009F45DACC4F
:040A1A009F4100F008
:040A1B009F3C494172
:040A1C009F37B389C4
:040A1D009F333E7055
:040A1E009F2EE87EA1
:040A1F009F2AB1C990
:040A20009F2698096C
:040A21009F229B076E
:040A22009F1EBA5BFE
:040A23009F1AF4051D
:040A24009F17484B85
:040A25009F13B5C0A6
:040A26009F103C32AF
:040A27009F0CD95FE8
:040A28009F098F474C
:040A29009F065AA624
:040A2A009F033BF1FA
:040A2B009F00325C9A
:040A2C009EFA7AE8CC
:040A2D009EF4B7E29A
:040A2E009EEF1CB467
:040A2F009EE9A5D8BF
:040A30009EE454826A
:040A31009EDF25AC73
:040A32009EDA199699
:040A33009ED52F0617
:040A34009ED0642DBF
:040A35009ECBB91289
:040A36009EC72C9A91
:040A37009EC2BD7628
:040A38009EBE6AE410
:040A39009EBA347BB2
:040A3A009EB619A3A8
:040A3B009EB218CC83
:040A3C009EAE319D9C
:040A3D009EAA63D238
:040A3E009EA6AD6D56
:040A3F009EA30F1B48
:040A40009E9F87E30B
:040A41009E9C16FD64
:040A42009E98BB9B24
:040A43009E9574D533
:040A44009E9242D16B
:040A45009E8F251D3E
:040A46009E8C1A4C1C
:040A47009E8922B1B1
:040A48009E863D3B0E
:040A49009E8369BC63
:040A4A009E80A71FC4
:040A4B009E7BEBC8DB
:040A4C009E76AA13D5
:040A4D009E71887F8F
:040A4E009E6C86060E
:040A4F009E67A1639A
:040A50009E62DAEEDA
:040A51009E5E30FA7B
:040A52009E59A29D6A
:040A53009E552F8EEF
:040A54009E50D77F5A
:040A55009E4C994CCE
:040A56009E487380C3
:040A57009E4466B0A3
:040A58009E407198B3
:040A59009E3C93F339
:040A5A009E38CCE313
:040A5B009E351C6E3A
:040A5C009E318053F4
:040A5D009E2DFA448C
:040A5E009E2A881034
:040A5F009E2729BBEA
:040A60009E23DF7C76
:040A61009E20A750DC
:040A62009E1D8184D0
:040A63009E1A6E6702
:040A64009E176C5914
:040A65009E147BC19F
:040A66009E119BBB87
:040A67009E0ECB5FB5
:040A68009E0C0BB81D
:040A69009E095B186F
:040A6A009E06BA34F6
:040A6B009E0426B30C
:040A6C009E01A1B78F
:040A6D009DFE565D37
:040A6E009DF9852E3B
:040A6F009DF4CE66BE
:040A70009DF0316A5A
:040A71009DEBAD99B3
:040A72009DE7428E2C
:040A73009DE2EFDE33
:040A74009DDEB4E46B
:040A75009DDA90BEB8
:040A76009DD683374F
:040A77009DD28BDAA7
:040A78009DCEA8D98E
:040A79009DCADBC86F
:040A7A009DC722D022
:040A7B009DC37D9604
:040A7C009DBFEBD659
:040A7D009DBC6CD7D9
:040A7E009DB90142DB
:040A7F009DB5A71763
:040A80009DB25EDBEA
:040A81009DAF28629B
:040A82009DAC0256CF
:040A83009DA8EC4EF0
:040A84009DA5E74302
:040A85009DA2F1BB82
:040A86009DA00BDF45
:040A87009D9D348974
:040A88009D9A6BFFC9
:040A89009D97B1EA9A
:040A8A009D95066EC2
:040A8B009D9267E8E9
:040A8C009D8FD76CF7
:040A8D009D8D538F59
:040A8E009D8ADC8ED3
:040A8F009D88722F9D
:040A90009D8613F537
:040A91009D83C23C43
:040A92009D817BCDFA
:040A93009D7E8204BE
:040A94009D7A2337ED
:040A95009D75D9353D
:040A96009D71A56B3E
:040A97009D6D865873
:040A98009D697BAF2A
:040A99009D6585A131
:040A9A009D61A22890
:040A9B009D5DD2EBA0
:040A9C009D5A15E06A
:040A9D009D566BF106
:040A9E009D52D38C06
:040A9F009D4F4BDC40
:040AA0009D4BD6CACA
:040AA1009D48723DBD
:040AA2009D451DFC55
:040AA3009D41D9CECA
:040AA4009D3EA57658
:040AA5009D3B8036BF
:040AA6009D386A32DB
:040AA7009D3563CF47
:040AA8009D326B24EC
:040AA9009D2F809568
:040AAA009D2CA48358
:040AAB009D29D5E8C4
:040AAC009D27147FEF
:040AAD009D24602400
:040AAE009D21B82F9F
:040AAF009D1F1DC7A3
:040AB0009D1C8E6E8D
:040AB1009D1A0B6B14
:040AB2009D1794DB1D
:040AB3009D15298ADA
:040AB4009D12C8E9DE
:040AB5009D1073B964
:040AB6009D0E290563
:040AB7009D0BE9B1F9
:040AB8009D09B4617F
:040AB9009D07890705
:040ABA009D0567DE51
:040ABB009D034FEB5D
:040ABC009D01423125
:040ABD009CFE7AE041
:040ABE009CFA851603
:040ABF009CF6A07C85
:040AC0009CF2CCF3E5
:040AC1009CEF0BFD9E
:040AC2009CEB5B4E00
:040AC3009CE7B9F6FD
:040AC4009CE42A8BF9
:040AC5009CE0AABD4A
:040AC6009CDD3AAECB
:040AC7009CD9DA825A
:040AC8009CD688B37D
:040AC9009CD345A9CC
:040ACA009CD010F3B9
:040ACB009CCCEAB421
:040ACC009CC9D29E51
:040ACD009CC6C7B349
:040ACE009CC3CA7B80
:040ACF009CC0DA5F8E
:040AD0009CBDF68251
:040AD1009CBB206545
:040AD2009CB8562C4A
:040AD3009CB597F146
:040AD4009CB2E56289
:040AD5009CB03F4B47
:040AD6009CADA383AD
:040AD7009CAB144080
:040AD8009CA88F55F2
:040AD9009CA615477B
:040ADA009CA3A5E252
:040ADB009CA1413D5C
:040ADC009C9EE5FEF9
:040ADD009C9C953C0C
:040ADE009C9A4E9CF4
:040ADF009C9812339A
:040AE0009C95DDEC18
:040AE1009C93B36EC1
:040AE2009C919285CC
:040AE3009C8F79F477
:040AE4009C8D6A87F4
:040AE5009C8B63DFA4
:040AE6009C89652E54
:040AE7009C876FB1C8
:040AE8009C85814622
:040AE9009C839B73DC
:040AEA009C81BDDB53
:040AEB009C7FCF4FCE
:040AEC009C7C30EFCF
:040AED009C78A35FEF
:040AEE009C752412BD
:040AEF009C71B28BB9
:040AF0009C6E4F7E2B
:040AF1009C6AF98A78
:040AF2009C67B24A01
:040AF3009C64785730
:040AF4009C614A991E
:040AF5009C5E2A5B7E
:040AF6009C5B16D21D
:040AF7009C580F2ECA
:040AF8009C551508EC
:040AF9009C5225C026
:040AFA009C4F41DFED
:040AFB009C4C6ADCC9
:040AFC009C499E353E
:040AFD009C46DD88AE
:040AFE009C44278964
:040AFF009C417B3962
:040B00009C3DB967F8
:040B01009C38A0215B
:040B02009C33AE7EF4
:040B03009C2EE3AE93
:040B04009C2A3E00E9
:040B05009C25BC7FF0
:040B06009C215DA72A
:040B07009C1D208F82
:040B08009C19038DA4
:040B09009C15061021
:040B0A009C1126F222
:040B0B009C0D6531A7
:040B0C009C09BFC5BC
:040B0D009C06358B82
:040B0E009C02C66B14
:040B0F009BFEE0D099
:040B10009BF866C028
:040B11009BF21C63D4
:040B12009BEC00C296
:040B13009BE611DA72
:040B14009BE04E4EC6
:040B15009BDAB56250
:040B16009BD544AA7D
:040B17009BCFFB9BDA
:040B18009BCAD87C20
:040B19009BC5DACCD2
:040B1A009BC100F08B
:040B1B009BBC4983B3
:040B1C009BB7B3735D
:040B1D009BB33E1731
:040B1E009BAEE8683A
:040B1F009BAAB15A82
:040B20009BA697B049
:040B21009BA29AC435
:040B22009B9EBA01DB
:040B23009B9AF3D8CE
:040B24009B9748341F
:040B25009B93B604E4
:040B26009B903BAABB
:040B27009B8CDA2C9D
:040B28009B898EEC2B
:040B29009B865A61EC
:040B2A009B833BC3AB
:040B2B009B80322D4C
:040B2C009B7A7ABA7C
:040B2D009B74B811EC
:040B2E009B6F1C8617
:040B2F009B69A636E2
:040B30009B645482EC
:040B31009B5F25ACF5
:040B32009B5A19C6EB
:040B33009B552EA7F9
:040B34009B5063FD72
:040B35009B4BB8B26C
:040B36009B472BF2BC
:040B37009B42BCFE23
:040B38009B3E6AE492
:040B39009B3A356D41
:040B3A009B3619A32A
:040B3B009B3218834E
:040B3C009B2E316C4F
:040B3D009B2A633F4D
:040B3E009B26AD9FA6
:040B3F009B230F7E67
:040B40009B1F87FC74
:040B41009B1C177969
:040B42009B18BB370A
:040B43009B1574EE9C
:040B44009B124303BA
:040B45009B0F251DC0
:040B46009B0C1A4C9E
:040B47009B09227E66
:040B48009B063D5477
:040B49009B03698918
:040B4A009B00A76CF9
:040B4B009AFBEC61C4
:040B4C009AF6AA79F2
:040B4D009AF1887F12
:040B4E009AEC85D2C6
:040B4F009AE7A1631D
:040B50009AE2DAEE5D
:040B51009ADE309167
:040B52009AD9A23456
:040B53009AD52FC33D
:040B54009AD0D74A12
:040B55009ACC98E3BB
:040B56009AC8736660
:040B57009AC4669640
:040B58009AC0719836
:040B59009ABC945E50
:040B5A009AB8CD3345
:040B5B009AB51C0328
:040B5C009AB180BF0B
:040B5D009AADF9F361
:040B5E009AAA87DAEE
:040B5F009AA729D652
:040B60009AA3DEF581
:040B61009AA0A7357A
:040B62009A9D81D601
:040B63009A9A6E6785
:040B64009A976C5997
:040B65009A947BA53E
:040B66009A919B685D
:040B67009A8ECB9700
:040B68009A8C0B4810
:040B69009A895AFC0F
:040B6A009A86B9545A
:040B6B009A8426B38F
:040B6C009A81A1B712
:040B6D009A7E565DB9
:040B6E009A79852EBD
:040B6F009A74CE6640
:040B70009A70316ADC
:040B71009A6BAD9935
:040B72009A67428EAE
:040B73009A62EFDEB5
:040B74009A5EB4E4ED
:040B75009A5A90BE3A
:040B76009A568337D1
:040B77009A528BDA29
:040B78009A4EA8D910
:040B79009A4ADBC8F1
:040B7A009A4722D0A4
:040B7B009A437D9686
:040B7C009A3FEBD6DB
:040B7D009A3C6CD75B
:040B7E009A3901425D
:040B7F009A35A717E5
:040B80009A325F51F5
:040B81009A2F282659
:040B82009A2C025651
:040B83009A28EC6C54
:040B84009A25E74384
:040B85009A22F19D22
:040B86009A200BDFC7
:040B87009A1D34A8D7
:040B88009A1A6C1D2C
:040B89009A17B226DF
:040B8A009A1506139F
:040B8B009A126862F0
:040B8C009A0FD6F2F4
:040B8D009A0D538FDB
:040B8E009A0ADCCC17
:040B8F009A0872103E
:040B90009A0614337A
:040B91009A03C21DE4
:040B92009A017C0B3D
:040B930099FE824203
:040B940099FA237532
:040B950099F5D8B83E
:040B960099F1A4EE3F
:040B970099ED8658F6
:040B980099E97B70EC
:040B990099E58561F4
:040B9A0099E1A1E953
:040B9B0099DDD36AA3
:040B9C0099DA15A02D
:040B9D0099D66B7109
:040B9E0099D2D30C09
:040B9F0099CF4C5C42
:040BA00099CBD649CE
:040BA10099C871BCC2
:040BA20099C51D5B79
:040BA30099C1D92CEF
:040BA40099BEA5143D
:040BA50099BB803642
:040BA60099B86A94FC
:040BA70099B5632B6E
:040BA80099B26B454E
:040BA90099AF80740C
:040BAA0099ACA462FC
:040BAB0099A9D5C768
:040BAC0099A7141CD5
:040BAD0099A46003A4
:040BAE0099A1B8B49D
:040BAF00999F1DC726
:040BB000999C8ED2AC
:040BB100999A0B8C76
:040BB20099979498E3
:040BB3009995298A5D
:040BB4009992C90B3E
:040BB500999073118F
:040BB600998E2949A2
:040BB700998BE9D35A
:040BB8009989B41D46
:040BB9009987890788
:040BBA0099856800B1
:040BBB0099834FEBE0
:040BBC009981425386
:040BBD00997E7B6A38
:040BBE00997A84D1CB
:040BBF0099769FF292
:040BC0009972CD7EDB
:040BC100996F0BB766
:040BC200996B5AC30E
:040BC3009967B9F67F
:040BC40099642AD135
:040BC5009960AB493F
:040BC600995D3AAE4D
:040BC7009959DAC896
:040BC8009956886D45
:040BC9009953451CDB
:040BCA0099501181AC
:040BCB00994CEB4214
:040BCC009949D29ED3
:040BCD009946C76C12
:040BCE009943CAC2BB
:040BCF009940DA1857
:040BD000993DF7361E
:040BD100993B20D15B
:040BD2009938557881
:040BD300993597CDEC
:040BD4009932E63B31
:040BD50099303E967F
:040BD600992DA45C55
:040BD700992B13D370
:040BD80099288F7A4F
:040BD90099261547FD
:040BDA009923A57442
:040BDB00992140CF4D
:040BDC00991EE5FE7B
:040BDD00991C958545
:040BDE00991A4E080A
:040BDF009918119FB1
:040BE0009915DDEC9A
:040BE1009913B34968
:040BE200991192AA29
:040BE300990F79F4F9
:040BE400990D6AD12C
:040BE500990B639471
:040BE6009909659F65
:040BE70099076F6695
:040BE8009905816C7E
:040BE90099039BBF12
:040BEA009901BDDBD5
:040BEB0098FFCF049C
:040BEC0098FC31D36D
:040BED0098F8A35F72
:040BEE0098F52379DA
:040BEF0098F1B28B3C
:040BF00098EE4FCB61
:040BF10098EAF9D7AE
:040BF20098E7B1FDD2
:040BF30098E4780A00
:040BF40098E14AE654
:040BF50098DE2AF666
:040BF60098DB172051
:040BF70098D80F2E4D
:040BF80098D515086F
:040BF90098D22572F7
:040BFA0098CF420648
:040BFB0098CC6ADC4C
:040BFC0098C99E5C9A
:040BFD0098C6DCEBCF
:040BFE0098C427B0C0
:040BFF0098C17B60BE
:00000001FF
